:020000040800F2
:10000000E8BA0020310300083B69000805490008F0
:1000100039690008F1170008E57B000800000000BE
:100020000000000000000000000000007102000855
:10003000111F000800000000CD020008D171000867
:100040004B0300084B0300084B0300084B03000858
:100050004B0300084B030008131F00084B03000864
:100060004B030008191F00081F1F00084B0300085E
:100070004B0300084B0300084B0300084B03000828
:100080004B0300084B0300084B0300084B03000818
:10009000F51700084B0300084B030008251F000854
:1000A0004B0300084B0300084B0300084B030008F8
:1000B0004B0300084B0300084B0300084B030008E8
:1000C0004B0300084B0300084B0300084B030008D8
:1000D0004B030008B97A00084B030008157B0008A1
:1000E0004B0300084B0300084B0300084B030008B8
:1000F0004B0300084B0300084B0300084B030008A8
:100100004B0300084B0300084B0300084B03000897
:100110004B0300084B0300084B0300084B03000887
:100120004B0300084B0300084B0300084B03000877
:100130004B0300084B0300084B0300084B03000867
:10014000011800084B0300084B0300084B0300088C
:100150004B0300084B0300084B0300084B03000847
:100160004B0300084B0300084B0300084B03000837
:100170004B0300084B0300084B030008000000007D
:100180004B0300084B03000800F002F800F060F891
:100190000AA090E8000C82448344AAF10107DA45E2
:1001A00001D100F055F8AFF2090EBAE80F0013F0D4
:1001B000010F18BFFB1A43F001031847A4D4000035
:1001C000C4D400000A444FF0000C10F8013B13F0B7
:1001D000070408BF10F8014B1D1108BF10F8015BA0
:1001E000641E05D010F8016B641E01F8016BF9D193
:1001F00013F0080F1EBF10F8014BAD1C0C1B09D1EA
:100200006D1E58BF01F801CBFAD505E014F8016B5B
:1002100001F8016B6D1EF9D59142D6D370470000ED
:100220000023002400250026103A28BF78C1FBD8FF
:10023000520728BF30C148BF0B6070471FB50CF094
:1002400013FA9DE8030000F063FF1FBD10B510BD59
:1002500001F008F81146FFF7F1FF09F0EDF901F0A0
:1002600026F803B4FFF7F2FF03BC01F05DF80000CD
:100270002C4B19680868B0E8F04F80F30988BFF389
:100280006F8F4FF0000080F311887047000000006E
:1002900008480068006880F308884FF0000080F389
:1002A000148862B661B6BFF34F8FBFF36F8F00DF64
:1002B00000BF00BF08ED00E0DFF80C00016841F46A
:1002C00070010160704700BF88ED00E0EFF3098026
:1002D000BFF36F8F134B1A681EF0100F08BF20ED8D
:1002E000108A20E9F04F106009B44FF0500080F3FD
:1002F0001188BFF34F8FBFF36F8F0AF05BFA4FF097
:10030000000080F3118809BC19680868B0E8F04F54
:100310001EF0100F08BFB0EC108A80F30988BFF3FD
:100320006F8F704774020020EFF305807047000064
:100330000948804709480047FEE7FEE7FEE7FEE779
:10034000FEE7FEE7FEE7FEE7FEE7FEE704480549B5
:10035000054A064B704700009D720008890100089D
:10036000E87A0020E8BA0020E89A0020E89A002005
:100370009FED1A1AF5EE000A40EE010ABDEEE00A02
:10038000F5EEC00A10EE100AF1EE10FA38BF401E6A
:1003900000EE100A1349F7EE001AB8EEC00A30EE6C
:1003A000C00ADFED0F0A20EE200AFCEEC00A10EEB4
:1003B000900AC0F3080000EE900A01EB8000F8EE0E
:1003C000600A90ED011A70EE600A90ED000A71EE7D
:1003D000E01A21EE800A00EE810A704783F9223E7E
:1003E0000000004418CE0008DFED190AB5EEC00A7F
:1003F00060EE200ABDEEE01A11EE100AF1EE10FADE
:1004000038BF401E00EE100A1349F7EE001AB8EE8E
:10041000C00A30EEC00ADFED0F0A60EE200ABCEE23
:10042000E00A10EE100AC0F3080000EE100A01EB1B
:100430008000B8EE400A90ED011A70EEC00A90ED0F
:10044000000A71EEE01A21EE800A00EE810A704780
:1004500083F9223E0000004418CE000870B40588DD
:100460000E884468D1F804C05368B54208D140886A
:100470004988884201BF11888D425188884203D043
:1004800070BC6FF00200704705FB00F1880827D0B0
:1004900094ED001ADCED000A94ED010ADCED011A7E
:1004A00031EE201AD4ED020A70EE211A9CED020AF8
:1004B00083ED001AC3ED011A94ED031ADCED031A63
:1004C00030EE800A401E71EE210A83ED020A04F12B
:1004D0001004C3ED030A03F110030CF1100CD7D183
:1004E00011F0030030D0B0F1004F30D200282BDDE6
:1004F000211F1B1FACF1040210F0010F0AD091ED77
:10050000010AD2ED010A091D121D30EE200A83ED09
:10051000010A1B1D400817D091ED010AD2ED010A16
:10052000401E30EE200A83ED010A91ED020AD2ED61
:10053000020A01F1080102F1080230EE200A83EDFF
:10054000020A03F10803E7D170BC00207047B4EC45
:10055000010A401EFCEC010A30EE200AA3EC010A5D
:10056000F5D1F1E701804280436070472DE9F34FF8
:1005700084B0049840680090486801900498B0F8EE
:1005800000E04588DFEDFE0A00200290B0EE600A30
:10059000AE4506D108884988884204BF7146864521
:1005A00004D06FF0020006B0BDE8F08F01985FEA5A
:1005B000010C18BFB7EE001A3DD000BFBEEB0C0116
:1005C00017D0B1F1004F80F01F82002911DD021F0A
:1005D00011F0010F1CBFC2ED010A121D4B1006D015
:1005E000C2ED010AC2ED020A08325B1EF8D100EB2F
:1005F0008100BCF10102A0EC011A19D0B2F1004F48
:1006000080F00882002A13DD031F12F0010F1CBFC7
:10061000C3ED010A1B1D511008D000BFC3ED010A34
:10062000C3ED020A491E03F10803F7D100EB820073
:10063000BCF1010CC2D14FF000080395002D14BF8E
:10064000B0EE602A002000F0BF8100BF009908FBD7
:1006500005F001EB800B0199DBED002A01EB800036
:100660000346F0EE421AC64552D9AEEB0802ABEB98
:10067000850112F0010F17D001EB850191ED000A01
:10068000B5EEC00AF1EE10FA07DDB4EEE10AF1EEC4
:1006900010FA09DDF0EE401A06E0B1EE400AF4EE81
:1006A000C01AF1EE10FAF5D3521031D001EB850CDF
:1006B0009CED000AB5EEC00AF1EE10FA05DDB4EECD
:1006C000E10AF1EE10FA09DD06E0B1EE400AF4EEBF
:1006D000C01AF1EE10FA01D2F0EE401A01EBC5019A
:1006E00091ED000AB5EEC00AF1EE10FA05DDB4EEA8
:1006F000E10AF1EE10FA09DD06E0B1EE400AF4EE8F
:10070000C01AF1EE10FA01D2F0EE401A521ECDD10D
:10071000F5EEC01AF1EE10FA00F07381F5EEC02A82
:100720000126F1EE10FA0099D4BFB1EE620AB0EEE4
:10073000620AB4EE610AF1EE10FA1CBFAEEB0802D9
:10074000B2F1010C47D005FB08F201EB820292EDF9
:10075000001A00BFB0EE410A05FB06F4B5EEC00A70
:1007600000EB8404F1EE10FACCBFF0EE400AF1EE9B
:10077000400AF4EE610AF1EE10FA28D1B5EB080C4C
:1007800011D0BCF1004F7DD2BCF1000F0BDD00BFDA
:1007900092ED000AD1ED000ABCF1010CE2EC010A75
:1007A000A1EC010AF4D129000ED0B1F1004F6AD2B8
:1007B000002909DD94ED000AD0ED000A491EE4ECA1
:1007C000010AA0EC010AF5D1012002900BE0761C91
:1007D000BCF1010CBED10298012804D0F5EEC02A6C
:1007E000F1EE10FA7ED09BED000AB5EB08009A46B8
:1007F0005946064622D0B0F1004F74D200281DDDC4
:10080000091F10F0010F06D0F0EE400A80EEA01A8A
:1008100081ED011A091D401010D000BFD1ED010A71
:10082000401E80EE801A81ED011A91ED021AC1EE90
:10083000000AC1ED020A01F10801EFD1280026D01B
:10084000B0F1004F7ED2002821DDAAF1040110F0A2
:10085000010F06D0D1ED010A80EE801A81ED011A58
:10086000091D401013D000BFD1ED010A401E80EEDB
:10087000801A81ED011AD1ED020A80EE801A81ED15
:10088000021A01E0CBE0D6E001F10801ECD1DDE98C
:1008900000124FF000095FEA0E0773D0C14504BF94
:1008A00001EB860102EB850274D091ED000ADC4673
:1008B0005046330035D01C46B6F1004F7ED2002C96
:1008C0002FDD0B1FABF1040C16F0010F0FD0F0EE73
:1008D000400ADCED011AB0EE601A00EEE11A83ED79
:1008E000011A01E08DE0B1E01B1D0CF1040C741045
:1008F00015D000BFD3ED010A9CED011A40EE410A6C
:10090000C3ED010AD3ED020A9CED021A0CF1080CAA
:1009100040EE410AC3ED020A0833641EEAD101EB3E
:1009200086012B0036D0B3F1004F72D2002B31DD9F
:10093000A2F1040CAAF1040013F0010F0CD0DCEDBD
:10094000010A00E08BE090ED011A001D40EE410A23
:10095000CCED010A0CF1040C5C1019D0DCED010A9D
:1009600090ED011A40EE410ACCED010ADCED020ADD
:1009700090ED021A083040EE410ACCED020A03E085
:10098000000000000DE005E0641E0CF1080CE5D14C
:1009900002EB830201EB88017F1E09F101097FF45C
:1009A0007DAF009808F10108001D00900398401EDB
:1009B00003907FF44BAE0299012900E058E004BF98
:1009C00006B0BDE8F08F00BFB5EEC00AF1EE10FA38
:1009D0007FF4E9AD04990EFB05F3002B4A684FF054
:1009E00000010BD902EB810C9CED000AB5EEC00AA8
:1009F000F1EE10FA02D1491C8B42F3D88B427FF4FE
:100A0000D2AD6FF00400CEE5E0EC010A491EFBD147
:100A1000EFE538E0E0EC010A521EFBD108E692ED6A
:100A2000000AD1ED000ABCF1010CE2EC010AA1ECD4
:100A3000010AF4D1B7E694ED000AD0ED000A491E90
:100A4000E4EC010AA0EC010AF5D1BDE6D1ED000A03
:100A5000401E80EE801AA1EC011AF7D1EEE6D3ED2C
:100A6000000A401E80EE801AA3EC011AF7D10EE7AF
:100A7000BCEC011AD1ED000A5B1E40EE410AE1EC2C
:100A8000010AF5D14DE7B0EC011AD2ED000A5B1E68
:100A900040EE410AE2EC010AF5D17BE72DE9F04F87
:100AA00082B0466853680193058847884B880020C8
:100AB00000900888874201BFB2F800C0654552889F
:100AC00093421EBF6FF0020002B0BDE8F08F9FEDB1
:100AD000412A4FEA970EC7F3400B00BFDDE9000241
:100AE00002EB800A4A6898464FF00009B0EE420ACD
:100AF000B4465FEA0E0025D092ED001ADCED001A34
:100B000002EB8302DCED010A01EE810A92ED001A8C
:100B100002EB8302401ED2ED001A02EB830200EECC
:100B2000810A9CED021ADCED030A00040CF1100CA2
:100B3000000C01EE210A92ED001A02EB830200EE96
:100B4000810AD9D117F0030026D0ACF10404A2EB3E
:100B5000830210F0010F08D002EB8302D4ED010AEA
:100B600092ED001A241D00EE810A5FEA0B0013D0FB
:100B700002EB830CD4ED010A9CED001A02EBC302D8
:100B8000401E00EE810AD4ED020A92ED001A04F133
:100B9000080400EE810AEBD109F10100AAEC010A78
:100BA0001FFA80F9486800EB8902A8F101001FFADA
:100BB00080F8B8F1000F99D1009806EB8706184429
:100BC00080B20090681E05042D0C87D102B0002071
:100BD000BDE8F08F0000000070B405880E884468FE
:100BE000D1F804C05368B54208D14088498888428A
:100BF00001BF11888D425188884203D070BC6FF0CC
:100C00000200704705FB00F1880827D094ED001A18
:100C1000DCED000A94ED010ADCED011A31EE601AF8
:100C2000D4ED020A70EE611A9CED020A83ED001AFF
:100C3000C3ED011A94ED031ADCED031A30EEC00A7D
:100C4000401E71EE610A83ED020A04F11004C3ED47
:100C5000030A03F110030CF1100CD7D111F00300BB
:100C600030D0B0F1004F30D200282BDD211F1B1FE8
:100C7000ACF1040210F0010F0AD091ED010AD2ED9F
:100C8000010A091D121D30EE600A83ED010A1B1DC9
:100C9000400817D091ED010AD2ED010A401E30EE56
:100CA000600A83ED010A91ED020AD2ED020A01F118
:100CB000080102F1080230EE600A83ED020A03F136
:100CC0000803E7D170BC00207047B4EC010A401E55
:100CD000FCEC010A30EE600AA3EC010AF5D1F1E761
:100CE0002DE9F04F02884768B0F802804888D1F8B3
:100CF000049082B04FF0000A1646824207BF09886E
:100D000088456FF0020002B018BFBDE8F08F4FEACF
:100D1000980B02EB42000190C8F34000CDF80000B0
:100D200009EB8A01BBF1000F33D0019801EB820C73
:100D300001EB80043B46E64601EBC2054FEA0B009F
:100D400093ED000A401E81ED000A93ED010A01EBCC
:100D500002118CED000A93ED020A0CEB021C85EDEA
:100D6000000A93ED030A05EB021584ED000A04EB7B
:100D7000021403F11003E3D10EEB820000EB8200BA
:100D800000EB8201ABF10100504307EB0B1701EBC5
:100D9000001118F0030C21D03B1FA1EB82011CF0C5
:100DA000010F06D093ED010A01EB82011B1D81EDBD
:100DB000000A009880B100BF93ED010A01EB8204A4
:100DC00001EBC20184ED000A93ED020A401E81EDA1
:100DD000000A03F10803EFD107EB8C070AF10100C9
:100DE0001FFA80FA701E0604360C99D102B000205A
:100DF000BDE8F08F70B5064600F06EF9056806F1A3
:100E00000B0020F00704B4429CBF002070BD2B46AD
:100E10006A68BAB11068A04210D304F10801884290
:100E20003CBF5068586007D3516810194160116881
:100E3000091B016058601460101D70BD1346526894
:100E4000002AE7D12146284600F04EF90028DED1DD
:100E500070BD53EA020C00F069802DE9F04B4FF0B1
:100E60000006002B1FBFB3FA83F503FA05F424FA3A
:100E700005F65E4012BF1643B2FA82F502FA05F497
:100E8000C5F120051EBF22FA05FC44EA0C042035FA
:100E900056EA044C4FEA144418BF641C4FF0000893
:100EA0004FF00009904271EB030C39D3002919BFB0
:100EB000B1FA81F701FA07F6B0FA80F700FA07F6FF
:100EC000C7F120071EBF20FA07FC46EA0C062037B0
:100ED000B6FBF4FCA7EB0507103F07F01F0BCBF1A7
:100EE00020060CFA0BFB2CFA06F644BFB34600268C
:100EF000202FA4BF5E464FF0000B5BEA060C08BF34
:100F00004FF0010B19EB0B09ABFB027C48EB060819
:100F1000C01B06FB02CC0BFB03CC71EB0C01C1E741
:100F20000B46024641464846BDE8F08B13B54FF0EC
:100F300000004FF00001AFF30080BDE81C40704797
:100F4000032A40F2308010F0030C00F0158011F8F5
:100F5000013BBCF1020F624498BF11F801CB00F8CD
:100F6000013B38BF11F8013BA2F1040298BF00F821
:100F700001CB38BF00F8013B11F0030300F02580DE
:100F8000083AC0F0088051F8043B083A51F804CB05
:100F9000A0E80810F5E7121D5CBF51F8043B40F8CB
:100FA000043BAFF30080D20724BF11F8013B11F8D6
:100FB00001CB48BF11F8012B24BF00F8013B00F81A
:100FC00001CB48BF00F8012B704710B5203AC0F0A4
:100FD0000B80B1E81850203AA0E81850B1E818503A
:100FE000A0E81850BFF4F5AF5FEA027C24BFB1E877
:100FF0001850A0E8185044BF18C918C0BDE81040E8
:101000005FEA827C24BF51F8043B40F8043B08BFF0
:101010007047D20728BF31F8023B48BF11F8012BB7
:1010200028BF20F8023B48BF00F8012B704702F0B0
:10103000FF0343EA032242EA024200F002B84FF003
:1010400000020429C0F0128010F0030C00F01B8095
:10105000CCF1040CBCF1020F18BF00F8012BA8BFA3
:1010600020F8022BA1EB0C0100F00DB85FEAC17C67
:1010700024BF00F8012B00F8012B48BF00F8012B1A
:1010800070474FF0000200B513469446964620394B
:1010900022BFA0E80C50A0E80C50B1F12001BFF431
:1010A000F7AF090728BFA0E80C5048BF0CC05DF897
:1010B00004EB890028BF40F8042B08BF704748BFE5
:1010C00020F8022B11F0804F18BF00F8012B704759
:1010D000704770477047000000487047907A0020C2
:1010E000704770477047704738B504460A4600207D
:1010F0006946AFF30080002808BF38BD024600995A
:10110000204600F075F8012038BD012000F0A2B89B
:10111000F8B5AFF30080054600200C46102000BF54
:101120000646A819A0420DD9324669460020AFF301
:101130000080070008BF00F08DF80098A04218BF9B
:101140000546C419FFF7C8FF05600746F01D20F0EB
:1011500007004619284600F00AF8B44208BFF8BD57
:10116000A21B31463868BDE8F84000F041B80021C4
:101170000160C0E9011070471020704770B5044647
:10118000051FFFF7A9FF0068002C14BF446870BD5D
:10119000002C18BFAC423CBF20466468F8D30168FD
:1011A0000A18AA4218BF456003D12A6805461144AF
:1011B000016028684119A1421CBF6C6070BD616864
:1011C000696021680844286070BD10B500F00CF813
:1011D000006810BD10B5044600F006F8046010BDAC
:1011E00000487047887A002000487047887A0020BD
:1011F000034640688C46002818BF88423CBF03461F
:101200004068F8D318681844884207D00CF10300EE
:1012100020F00700001D411A521A0146081D0A60FD
:10122000FFF7ACBF1FB584B000200A9C06AB04AA30
:1012300002A90094AFF3008018B1DDE9020108B003
:1012400010BD0348204000F040F800200146F6E7BA
:101250000000207C10B500F03FF8BDE8104000F021
:101260002FB870477546FFF7BBFFAE4605006946CD
:10127000534620F00700854618B020B5FFF766F802
:10128000BDE820404FF000064FF000074FF0000887
:101290004FF0000B21F00701AC46ACE8C009ACE808
:1012A000C009ACE8C009ACE8C0098D46704710B56C
:1012B0000446AFF300802046BDE81040FEF7D1BFE2
:1012C000002801D000F030B8704710B500F04CF89D
:1012D000BDE81040FFF7F4BF10B5012805D000218C
:1012E00003A000F027F8012010BD09A1F8E70000D5
:1012F00053494752544D454D3A204F7574206F66FF
:101300002068656170206D656D6F72790000000066
:101310003A2048656170206D656D6F727920636F4A
:10132000727275707465640001491820ABBEFEE7E7
:101330002600020070B505460C460A2000E06D1C30
:1013400000F068F835B128780028F8D102E0641C74
:1013500000F060F814B120780028F8D1BDE87040A2
:101360000A2000F057B8000010B5022803D0410150
:1013700003D50DA112E0002010BD010101D50FA180
:101380000CE0C10001D511A108E0810001D512A136
:1013900004E0400001D513A100E0002115A0FFF7F3
:1013A000C9FF012010BD0000496E76616C696420A0
:1013B0004F7065726174696F6E00000044697669F0
:1013C0006465204279205A65726F00004F7665721D
:1013D000666C6F7700000000556E646572666C6F16
:1013E00077000000496E65786163742052657375FB
:1013F0006C7400005349474650453A204172697465
:10140000686D6574696320657863657074696F6E73
:101410003A20000008B569468DF800000320ABBEF5
:1014200008BD000001221021014801F0ADBC000000
:101430000000024000221021014801F0A5BC00007C
:101440000000024001221146014801F09DBC00004D
:101450000004024000220121014801F095BC000077
:101460000004024070B50446FFF7E4FF922000F04C
:101470002FF906226649122000F00CF9FFF7D2FF7F
:10148000634DA5F11C0668782978000200B2084374
:1014900000EE100AD6ED030AB8EEC00A60EE200A8C
:1014A00094ED080A60EE800AC4ED000AE878A97895
:1014B000000200B2084300EE900AB8EEE01AD6ED42
:1014C000030A21EE201A21EE001A84ED011A687930
:1014D0002979000200B20843308101EE100AB8EE0B
:1014E000C11A61EE200A20EE800A84ED020AFFF79D
:1014F000B1FF08222946002000F0CCF8FFF7A2FF38
:1015000028780F285DD1F07880B3E878A9780002B8
:1015100000B2084300EE100AD4ED090AB8EEC01A72
:1015200096ED040A51EE000AC4ED030A68792979A0
:10153000000200B2084300EE900A94ED0A1AF8EE99
:10154000E00A10EE801A84ED041AE879A979000205
:1015500000B20843308100EE900A94ED0B1AF8EEC9
:10156000E00A10EE801A84ED051A2AE0FFE7E87819
:10157000A978000200B2084300EE100AF8EEC00A93
:1015800096ED040A60EE800AC4ED030A68792979B1
:10159000000200B2084300EE900AF8EEE00A60EEA6
:1015A000800AC4ED040AE879A979000200B2084370
:1015B000308100EE900AF8EEE00A20EE800A84ED19
:1015C000050AFFF737FFA22000F082F80222104937
:1015D000222000F05FF8FFF725FF28786978C00027
:1015E00040EA51103081B0F5806F02DBA0F5006059
:1015F0003081B6F90800B4EE001A00EE100AF8EED9
:10160000C00AB3EE070A00EE810A84ED070A70BD36
:101610004801002070B50D4616490860164C0020A0
:10162000A07006F08FFDA1780843A07006F01EFEA2
:10163000A1780843A0701DB1104800F035F916E0FC
:101640000E489FED0F0A80ED090A9FED0E0A80ED0E
:101650000A0A80ED0B0A9FED0C0A80ED0C0A9FED43
:101660000B0A80ED080A9FED0A0A80ED060AA078B1
:1016700070BD0000740100202C010020AC1500207A
:10168000AC38223BB016CE393F161B41C48B813F8C
:101690000000204270B50D46144640F0800000F076
:1016A00017F806E0552000F013F805F8010B641E4A
:1016B000E4B2002CF6D170BD10B50C4640F08000AD
:1016C00000F006F8552000F003F8207010BD00006F
:1016D00001B582B04FF47A7000900548012301AA49
:1016E00002A9006802F06AFA9DF804000EBD00002D
:1016F0007401002010B50C46FFF7EAFF2046BDE854
:101700001040FFF7E5BFB6EE002A92ED020AB0EEF8
:10171000421AD2ED030A00EE401AD0ED001AD0EDC5
:10172000013A00EEE01A21EE213A92ED011AD2EDD3
:10173000001A61EE002A41EEE02A61EE200A41EE35
:10174000800A02EEA33A90ED020AF0EE002A00EEC3
:10175000803A23EE220A81ED000A92ED010AD2EDD1
:10176000021A92ED001AD2ED030A20EE213AD0EDD2
:10177000003A90ED014A01EE203A23EE233AF0EED2
:10178000423A40EE403A40EEE03A61EEA00A41EEC5
:10179000400A03EE843A90ED020A00EE803A23EE0E
:1017A000220A81ED010AD2ED010AD2ED031A92ED6F
:1017B000020A92ED001A20EEA13A60EE211AD0ED55
:1017C000003A00EEE02A01EE403A41EE201A90ED98
:1017D000011A00EE402A23EE233A90ED020A01EEB0
:1017E000813A02EE003A23EE220A81ED020A7047A6
:1017F000FEE70000014800F007BE0000900900204D
:10180000014800F001BE0000B809002038B50E4CB8
:101810004FF4007525600025A560E5600825256169
:101820000A4C050A25706070080AA070E170100A61
:1018300020716271180AA071E3716B462246024959
:10184000034800F0FAFB38BD2C0E00208200002077
:101850009009002038B50E4C40F2FF152560002598
:10186000A560E560082525610A4C050A25706070B1
:10187000080AA070E170100A20716271180AA07144
:10188000E3716B4622460249034800F0D6FB38BD9F
:10189000140E00207A0000209009002001490078F1
:1018A00048707047780000202DE9F04F04462DED78
:1018B000048B89B000200790089000F09BFAE94E55
:1018C00086ED050A04AF0DF104084FF07C5BDFF8EC
:1018D0009893DFF898A300F08DFAD6ED050AE44955
:1018E00030EE600A10EE100A884212DD9FEDE10A28
:1018F00084ED090A9FEDE00A84ED0A0A84ED0B0AE3
:101900009FEDDE0A84ED0C0A9FEDDD0A84ED060AE8
:1019100085E19FEDDC0A00F02FFA9FEDDB0A84EDF4
:101920000C0A84ED090A84ED0A0A84ED0B0A0025ED
:10193000F6E0FFF77FFD9220FFF7CAFE062207A917
:101940001220FFF7A7FEFFF76DFD9DF81D009DF823
:101950001C10000200B2084300EE100AD6ED030A84
:10196000B8EEC00A20EE200A84ED000A9DF81F00A0
:101970009DF81E10000200B2084300EE900A96ED9A
:10198000031AF8EEE00A60EE810AC4ED010A9DF840
:1019900021009DF82010000200B2084301EE900AD9
:1019A000F8EEE11A21EE811A84ED021A20EE000A07
:1019B00000EEA00A01EE010A06F072FBB0EE408ACA
:1019C00094ED0C0A30EE080A84ED0C0AFFF742FD94
:1019D000082207A90020FFF75DFEFFF733FD9DF801
:1019E0001C000F2840D19DF81F009DF81E1000021A
:1019F00000B2084300EE100AF8EEC00A96ED040AA1
:101A000060EE800AC4ED030A94ED091A71EE200A13
:101A1000C4ED090A9DF821009DF82010000200B2D3
:101A2000084300EE900AF8EEE00A60EE800AC4ED8A
:101A3000040A94ED0A1A71EE200AC4ED0A0A9DF810
:101A400023009DF82210000200B2084300EE900A25
:101A5000F8EEE00A20EE800A84ED050AD4ED0B0AC8
:101A600030EE800A84ED0B0A002D7DD0B4EEE88ABA
:101A7000F1EE10FA01DDF0EE488AB4EEC98AF1EE1B
:101A800010FA01D2B0EE489A002004EB800191EDEB
:101A9000030A07EB8001D1ED000AB4EEE00AF1EE93
:101AA00010FA01DD81ED000A08EB8001D1ED000A9A
:101AB000B4EEE00AF1EE10FA01D281ED000A401C0A
:101AC000C0B20328E1D338EEC90A86ED060A002029
:101AD00007EB8001D1ED000A08EB800191ED001ABF
:101AE00009EB800170EEC10AC1ED000A401CC0B2D2
:101AF0000328EDD310EE100A584515DCD9F8000084
:101B0000504511DCD9F8040050450DDCD9F8080027
:101B1000504509DC9FED5D0A00F02EF96D1CADB259
:101B2000F0888542FFF405AFF288D4ED0C0A00EE90
:101B3000102AB8EE400A80EE801A84ED0C1A0020BC
:101B400000EE102A04EB8001B8EE400AD1ED090A3C
:101B500080EE801A81ED091A401CC0B20328EFD331
:101B6000FFF768FCA22000E066E0FFF7B1FD02226B
:101B700007A92220FFF78EFDFFF754FC9DF81C00FB
:101B80009DF81D10C00040EA5110B0F5806F02DBD7
:101B9000A0F5006000B200EE100AB4EE001AF8EEF4
:101BA000C00AB3EE070A00EE810A84ED060AB08887
:101BB000401CB080B06958453FF78DAE94ED0C0ADB
:101BC000DFED330A30EE600AB0EEC00A10EE100A04
:101BD0005845F1DCD9F800005045EDDCD9F8040097
:101BE0005045E9DCD9F808005045E5DC94ED090AD8
:101BF0002849B0EEC00A10EE100A8842DCDC94EDF1
:101C00000A0AB0EEC00A10EE100A8842D4DC94ED45
:101C10000B0AB0EEC00A10EE100A8842CCDC94ED3C
:101C20000C0ADFED1D0A80EE801A84ED081A09B057
:101C3000BDEC048BBDE8F08FF0EE488AB0EE489A18
:101C4000002004EB800191ED030A07EB800181ED98
:101C5000000A08EB800181ED000A401CC0B2032895
:101C6000EFD330E72C010020A01500209A99193EEF
:101C700000002041AC38223BB016CE393F161B4144
:101C8000000020420AD7A33B000000006F12033A75
:101C9000CDCC1C410AD7233CC3F51C4101680A4B3B
:101CA000CAB2103AA3FB02321209084B9B5CC3650F
:101CB000032A04D96FF30901091D816502E06FF35E
:101CC00009018165806D7047ABAAAAAA10CE0008F1
:101CD000014600208A6A8B69002B0FD0B3F5005FA4
:101CE0001DD08AB3012A30D0022A2ED0032A04D173
:101CF000C96A11F0807F00D0012070471AB1012A13
:101D000007D0022AF9D1C96A11F0807FF5D00120ED
:101D10007047C96AB1F1C07FFAD1012070475AB14A
:101D2000012A0BD0022A07D0032AF7D1C96AB1F1E0
:101D3000C07FF3D10120704701207047C96A11F0BC
:101D4000807FFAD001207047FFE701207047000034
:101D500008B507484068009006480099026991421A
:101D600002D2C168491CC1600099016108BD000030
:101D7000001000E0380000200A4841680A4AD2ED0D
:101D8000000A4268521AF8EE601A01EE102AB8EE04
:101D9000411A60EE211AB4EEE11AF1EE10FAF0D316
:101DA00070470000001000E03800002000B52DED65
:101DB000028B81B00D49496800910168009A511A5F
:101DC00000EE101A0A49F8EE400A91ED000AB8EE4A
:101DD000400A80EE808A00990160FFF7B9FF01B0E8
:101DE000B0EE480ABDEC028B00BD0000001000E020
:101DF0003800002010B500F043F80C489FED0C1A95
:101E0000818890ED000A00EE901AC088B8EE400A72
:101E1000F8EE600A00EE810A00EE900A9FED051AC6
:101E2000F8EE600A00EE810A10BD00006800002094
:101E30006F12833ABD3786350D490A6842F08072C9
:101E40000A600C4900224A600B6843F001030B60F2
:101E500009494843094908604FF47A73B0FBF3F32A
:101E60004B60054BB0FBF3F08860CA607047000020
:101E7000FCED00E0001000E040420F0038000020C0
:101E80002DE9F84F204840680090FFF761FFDFF828
:101E90007C904FF0000A0098D9F80C204FF0FF33E7
:101EA0005146E2FB030104460D46C9E90E01D9F88B
:101EB00000B000235A4620462946FEF7CAFF0646D0
:101EC0000F463046A0FB0B2107FB0B1106FB0A1344
:101ED000A71A65EB030809F130042660D9F80460FD
:101EE0000023324641463846FEF7B3FF80B2A08059
:101EF0007043381A68EB0A010023D9F80820FEF76E
:101F0000A8FFE080BDE8F88F001000E03800002056
:101F10007047012000F01EBE082000F01BBE1020FC
:101F200000F018BE202000F015BEB6EE002A92ED9B
:101F3000020AB0EE421AD2ED030A00EE401AD0EDCA
:101F4000001AD0ED013A00EEE01A21EE213A92EDAE
:101F5000011AD2ED001A61EE002A41EEA02A61EECC
:101F6000200A41EEC00A02EEA33A90ED020AF0EE1A
:101F7000002A00EE803A23EE220A81ED000A92ED5B
:101F8000010AD2ED021A92ED001AD2ED030A20EEF8
:101F9000213AD0ED003A90ED014A01EE603A23EE8D
:101FA000233AF0EE423A40EE403A40EEE03A61EE3B
:101FB000A00A41EE000A03EE843A90ED020A00EE18
:101FC000803A23EE220A81ED010AD2ED010AD2ED18
:101FD000031A92ED020A92ED001A20EEA13A60EE89
:101FE000211AD0ED003A00EEE02A01EE003A41EE6F
:101FF000601A90ED011A00EE402A23EE233A90ED8C
:10200000020A01EE813A02EE003A23EE220A81ED45
:10201000020A7047704790F82020012A07D0022A50
:1020200005D0416A41F48021416201207047006877
:102030004269114341610020704770B490F820401C
:10204000D0F800C0DCF808C0012C08D0022C06D063
:10205000416A41F48021416270BC012070470CF05C
:1020600080640CF000652C4302D11CF0805F5FD0CF
:10207000CCF3016CBCF1020F06D9416A41F40001B6
:10208000416270BC01207047012404FA0CF41C600A
:102090008B684FF4C0749BB1CD6804EB0C162B43D6
:1020A0004D6843EAC5030568AB514FF4C273066837
:1020B00003EB0C130D69F550097D012909D00DE0E2
:1020C0000D88CB6804EB0C1643EA45530568AB5109
:1020D000EBE70168CD5845F48075CD501179D3797F
:1020E000557941EA036193791B0443EA05231943B7
:1020F0004FF4C675036805EB0C1559511178D37868
:1021000041EA0361937852781B0443EA02221143A7
:102110004FF4C473026803EB0C13D150016804EB55
:102120000C100A5842F001020A5070BC002070479F
:10213000416A41F40011416270BC01207047000007
:1021400090F82020012A07D0022A05D0416A41F4E4
:1021500080214162012070474248D0F8002242F0BD
:102160000102C0F80022D0F8002222F47C52C0F80C
:102170000022D0F800224B6A42EA0322C0F8002273
:102180000A7D012302F01F0203FA02F2D0F81C328A
:102190009343C0F81C32CB69D3B9D0F80C329343C7
:1021A000C0F80C32B1F80CC04B686CF31F43D1F887
:1021B00014C000EBCC0CCCF84032B1F808C00B686E
:1021C0006CF31F43D1F814C000EBCC0CCCF84432B4
:1021D000CB69012B1AD1D0F80C321343C0F80C3262
:1021E000B1F800C04B686CF31F43D1F814C000EB8A
:1021F000CC0CCCF84032B1F808C0CB686CF31F436C
:10220000D1F814C000EBCC0CCCF844328B697BB114
:10221000D0F804321343C0F804320B6973B1D0F81C
:1022200014321343C0F81432096A01290CD010E0AB
:10223000D0F804329343C0F80432EEE7D0F81432F9
:102240009343C0F81432EFE7D0F81C121143C0F8E2
:102250001C12D0F8001221F00101C0F80012002079
:102260007047000000640040704710B490F820C030
:10227000BCF1010F09D0BCF1020F06D0416A41F454
:102280008021416210BC0120704739B1D0F800C0F4
:10229000DCF810C01CF0030F7DD006E0D0F800C0C1
:1022A000DCF80CC01CF0030F7BD04FF4D87C046822
:1022B0000CEB011C54F80C4004F004049460002C56
:1022C0007DD0046854F80C40E4085460046854F865
:1022D0000CC0CCF3400CC2F80CC04FF4DA7C04689C
:1022E0000CEB011C54F80C4004F00F04146104685A
:1022F00054F80C40C4F307249461046854F80CC0EB
:102300004FEA1C4CC2F814C04FF4DC72D0F800C085
:1023100002EB01125CF802C083F800C0D0F800C0E4
:102320005CF802C04FEA1C2C83F801C0D0F800C052
:102330005CF802C04FEA1C4C83F802C0D0F800C021
:102340005CF80220120EDA704FF4DE72D0F800C092
:1023500002EB01125CF802C083F804C0D0F800C0A0
:102360005CF802C04FEA1C2C83F805C0D0F800C00E
:102370005CF802C04FEA1C4C83F806C0D0F800C0DD
:102380005CF80220120EDA71F9B10068016941F0BF
:102390002001016102E00BE003E010E010BC00202E
:1023A0007047416A41F40011416210BC012070473E
:1023B000416A41F40011416210BC01207047046879
:1023C00054F80C40640D146080E70068C16841F067
:1023D0002001C160DEE70246002092F820100129AA
:1023E00001D002290FD111688A6812F0806F00D0E5
:1023F00001208A6812F0006F00D0401C896811F03B
:10240000805F00D0401C70472DE9F05F0546002436
:1024100028684669D0F804908768D0F80CA0D0F8F6
:1024200010B0D0F8188016F0010F54D017F0010F3B
:1024300017D00121816017F0020F03D0284600F069
:10244000BDFA0EE017F0040F02D04FF4006408E06C
:1024500017F0080F02D04FF4805402E0284600F035
:10246000ACFA17F4807F19D029684FF48070886027
:1024700017F4007F03D0284600F0A2FA0EE017F40C
:10248000806F02D044F4005408E017F4006F02D0CB
:1024900044F4804402E0284600F091FA17F4803FAB
:1024A00019D029684FF48030886017F4003F03D0BA
:1024B000284600F087FA0EE017F4802F02D044F48B
:1024C000004408E017F4002F02D044F4803402E006
:1024D000284600F076FA16F0080F07D01AF0100F11
:1024E00004D044F4007429681020C86016F0040F6A
:1024F0004FF0080707D01AF0080F04D02868C7600B
:10250000284600F0CFF916F0020F07D02868C068FF
:1025100010F0030F02D0284600F0C6F916F0400F65
:1025200007D01BF0100F04D044F4806429681020F9
:10253000086116F0200F07D01BF0080F04D02868A0
:102540000761284600F004FA16F0100F07D028683B
:10255000006910F0030F02D0284600F0FAF916F4D3
:10256000003F08D019F0100F05D0296810204860EE
:10257000284600F0EFF916F4803F07D019F0080F55
:1025800004D028684760284600F01DFA16F4004F72
:102590004AD019F0040F44D016F4807F04D018F00C
:1025A000010F01D044F0010416F4007F04D018F0AC
:1025B000020F01D044F0020416F4806F04D018F02A
:1025C000040F01D044F0040416F4006F29D018F071
:1025D000700F26D008F07000402815D006DC1028B7
:1025E00009D020280AD0302816D10AE050280ED071
:1025F000602811D10EE044F008040DE044F010040E
:102600000AE044F0200407E044F0400404E044F011
:10261000800401E044F480742868816921F070012D
:102620008161296804204860002C05D0686A204335
:1026300068622846FFF718FEBDE8F09F70B50446B3
:10264000002C03D094F8200010B104E0012070BDEC
:10265000204600F0A7F82068016821F0020101601F
:1026600000F09AFB0546206840684FF0050610F020
:10267000020F11D000F090FB401B0A2807D9606AB6
:1026800040F40030606284F82060012070BD206852
:10269000406810F0020FEDD12068016841F001019F
:1026A000016000F079FB05462068406810F0010FDA
:1026B00011D100F071FB401B0A2807D9606A40F471
:1026C0000030606284F82060012070BD206840689E
:1026D00010F0010FEDD0207E01283FD02068016866
:1026E00021F080010160607E01283DD020680168F2
:1026F00021F040010160A07E01283BD020680168E4
:1027000021F020010160E07E012839D020680168B5
:1027100041F010010160207F012837D02068016856
:1027200021F008010160607F012835D02068016830
:1027300021F004010160E168A06862690843216931
:10274000114308436168491E08432168C86100209D
:102750006062012084F82000002070BD20680168BC
:1027600041F080010160BEE72068016841F040014E
:102770000160C0E72068016841F020010160C2E704
:102780002068016821F010010160C4E72068016839
:1027900041F008010160C6E72068016841F00401CA
:1027A0000160C8E72DE9F04186B00446142101A874
:1027B000FEF767FC364B374ADFF8D080186821688F
:1027C000344C03260227401C103200254FF0090C20
:1027D000414527D11860012807D1106840F00070EA
:1027E0001060106800F000700090206840F0080051
:1027F0002060206800F00800009001960297039581
:102800000496CDF814C001A9234800F0AFF90022C6
:102810000621142000F04AFC142000F039FC06B018
:10282000BDE8F081DFF874804145F8D1116841F0CE
:1028300080611160116801F08061009118600128C9
:1028400007D1106840F000701060106800F0007050
:102850000090206840F002002060206800F0020034
:10286000009060200190029703950496CDF814C063
:1028700001A90B4800F07AF900220621402000F05F
:1028800015FC402000F004FCC9E700000064004093
:102890001800002030380240000C02400068004060
:1028A000000402407047000030B589B004466B4612
:1028B00002AA00212046FFF7D8FC2148844234D1E7
:1028C0000298A0F2012008282DD2DFE800F00404CD
:1028D00004042C040404C1B21A4801701A4B01EB21
:1028E000810203EB420033F8124004819DF801405D
:1028F0009DF8005044EA052423F812409DF8032077
:102900009DF8023042EA032242809DF805209DF89E
:10291000043042EA032282809DF806208271491C1D
:10292000C8B206F001F809B030BD08488442FAD1B7
:1029300002980528F7D16846FEF7B0FFF3E70000DC
:102940009009002078000020CC0D0020B80900205C
:1029500070477047704770B5044694F8200001280E
:1029600005D0606A40F400206062012070BD022042
:1029700084F820002068016821F00101016000F066
:102980000BFA05462068406810F0010F12D000F0E5
:1029900003FA401B0A2808D9606A40F400306062DC
:1029A000052084F82000012070BD2068406810F0E8
:1029B000010FECD10020606270BD70477047704716
:1029C000704770477047704710B50446002C02D01E
:1029D000607910B106E0012010BD00202071204672
:1029E00000F006F80220607101206071002010BD27
:1029F00008B500680649884208D10648016841F4D4
:102A000080510160006800F48050009008BD000013
:102A1000003002403038024090F83510022903D0CF
:102A20008021416501207047052180F8351000683C
:102A3000016821F001010160002070472DE9F0419B
:102A4000044600F0A9F90546DCB1002684F834609C
:102A5000022084F835002068016821F0010101603E
:102A60002068006810F0010F13D000F095F9401BAA
:102A7000052809D920206065032084F83500BDE8C9
:102A8000F0810120BDE8F0812068006810F0010F9E
:102A9000EBD121680868234A1040A3686268D4F823
:102AA00010C01A43E36843EA0C031A4363691A43EC
:102AB000A3691A43E3691A43236A1A431043626AFB
:102AC000042A03D1236BE26A1A431043086020688A
:102AD000406920F00701606A40EA010501270428E7
:102AE0000ED1A06A0543E06A50B12046FFF7F0F826
:102AF00030B14020606584F835700120BDE8F08178
:102B0000206845612046FFF7C9F894F85C103F2221
:102B100002FA01F18160666584F835700020BDE835
:102B2000F08100003F8010F070B5044600F034F9E9
:102B30000546B4F1FF3F02D004480078044400F099
:102B40002BF9401BA042FAD370BD000068020020A0
:102B50007047000010B504490A68024202D00860BC
:102B6000FFF7F6FF10BD0000143C01402DE9F84FBF
:102B70000022DFF80082DFF80092DFF800A24FF0B9
:102B8000030E0F27012303FA02F50B682B40AB421B
:102B90007DD1D1F804C0BCF1020F02D0BCF1120FFC
:102BA00012D14FEAD20C00EB8C0CDCF820605407F9
:102BB000E40E07FA04FB26EA0B06D1F810B00BFA74
:102BC00004F43443CCF8204006684FEA420C0EFA75
:102BD0000CF4A64391F804B00BF0030B0BFA0CFBBA
:102BE0004BEA060606604E68012E05D0022E03D081
:102BF000112E01D0122E11D18668A643D1F80CB047
:102C00000BFA0CFB4BEA06068660466826EA0505C9
:102C10000E79C6F30016964035434560C56825EA2F
:102C200004048D6805FA0CFC4CEA040CC0F80CC0D6
:102C3000D1F804C01CF0805F7DD0D8F800C04CF4FF
:102C4000804CC8F800C0D8F800C00CF4804CCDF817
:102C500000C022F0030C0CF1804404F59834D4F841
:102C600008C895072D0F07FA05F62CEA0606A0F10D
:102C7000804CBCF5003C64D0A0F1804CBCF5013C1C
:102C800062D0A0F1804CBCF5023C60D000E052E084
:102C9000A0F1804CBCF5033C5CD0A0F1804CBCF5AD
:102CA000043C5AD0A0F1804CBCF5053C58D0A0F1B2
:102CB000804CBCF5063C56D0A0F1804CBCF5073CDE
:102CC00054D04FF0080C0CFA05FC4CEA060CC4F882
:102CD00008C8D9F800C02CEA030C4C6814F4803FF3
:102CE00001D04CEA030CC9F800C0254CD4F800C050
:102CF0002CEA030C4D6815F4003F01D04CEA030C9C
:102D0000C4F800C0DAF800C02CEA030C4C6814F4D4
:102D1000801F01D04CEA030CCAF800C0194CD4F84B
:102D200000C02CEA030C4D6815F4001F01D04CEADA
:102D3000030CC4F800C0521C102AFFF423AFBDE8F6
:102D4000F88F4FF0000CBEE74FF0010CBBE74FF0DF
:102D5000020CB8E74FF0030CB5E74FF0040CB2E7F4
:102D60004FF0050CAFE74FF0060CACE74FF0070C47
:102D7000A9E7000044380240003C0140083C014003
:102D8000043C01400C3C0140002A01D081617047A5
:102D900009048161704700000148806870470000A5
:102DA0006802002070B50446002C04D094F83D0061
:102DB000002510B106E0012070BD84F83C5020468B
:102DC00000F0BCF8242084F83D002068016821F060
:102DD0000101016000F02EFB544B6168994203D859
:102DE0005349884203D304E05249884201D201206A
:102DF00070BD5149B0FBF1F12268D2F804C02CF04B
:102E00003F0C4CEA010CC2F804C062689A4201D837
:102E10004A1C07E04FF4967251434FF47A72B1FBAB
:102E2000F2F14A1C2168D1F820C02CF03F0C42EA94
:102E30000C020A626168994210D84900401EB0FB3A
:102E4000F1F2521CC2F30B02042A01D2042026E044
:102E5000B0FBF1F0401CC0F30B0020E0A268002A98
:102E600050D001EBC10303EB0113A0F1010CBCFB3B
:102E7000F3F35B1C43F480431B051B0D4AD0002A6F
:102E80004AD001EBC10202EB0111401EB0FBF1F090
:102E9000401CC0F30B0040F4804040F40040216827
:102EA000CA6922F0FF0222F44F421043C861216A2E
:102EB000E06901432068026822F0C002114301600A
:102EC000E168206901432068826822F0FF0222F451
:102ED000034211438160A169606901432068C268AF
:102EE00022F0FF021143C1602068016841F0010136
:102EF00001602564202084F83D00256384F83E505D
:102F0000002070BD01EB4103A0F1010CBCFBF3F309
:102F10005B1CB1E70120C2E701EB4101401EB0FBA1
:102F2000F1F0401CC0F30B00B7E70000A0860100E1
:102F300080841E0000093D0040420F00F0B587B0BC
:102F40000446142102A8FEF79CF81D492068884217
:102F500033D11C48016841F004010160016801F0AF
:102F600004010191016841F001010160006800F075
:102F7000010001904FF40070029012270397012482
:102F80000494032605960425069502A90E48FFF72A
:102F9000EDFD20020290039704940596069502A980
:102FA0000A48FFF7E3FD07481030016841F40001CB
:102FB0000160006800F40000019007B0F0BD00005F
:102FC000005C00403038024000080240000002402F
:102FD00002488168027811448160704768020020CD
:102FE00010B50B48016841F400710160016841F4BB
:102FF00080610160016841F480710160032000F08C
:1030000089F80F2000F006F800F026F8002010BD27
:10301000003C024070B504460D4D4FF47A7128789B
:10302000B1FBF0F00B490968B1FBF0F000F0C2FE13
:1030300008B1012070BD102C07D200222146501E7D
:1030400000F034F86C60002070BD012070BD0000FD
:10305000680200202400002082B00C48016841F47E
:1030600080410160006800F4804001900748001F23
:10307000016841F080510160006800F080500190CB
:1030800000220F21901E02B000F010B84438024018
:1030900000280ADB00F01F01012202FA01F14009B9
:1030A000800000F1E020C0F80011704710B4184B08
:1030B0001B68C3F30223C3F1070CBCF1040F01D951
:1030C0004FF0040C1C1D072C01D2002300E0DB1E76
:1030D000012404FA0CFCACF1010C0CEA010199404A
:1030E00004FA03F35B1E1A401143002806DB00F1CB
:1030F000E020090180F8001410BC704700F00F00B8
:1031000000F1E020090180F8141D10BC7047000098
:103110000CED00E000F00700064A11684FF6FF03CF
:10312000194041EA002040F0FD7040F080601060DE
:10313000704700000CED00E02DE9F84304464FF025
:10314000010820784FF0000710F0050F33D0DFF8AA
:103150004491C9F86870FFF71FFE06464E4D286877
:1031600010F0006F0BD0FFF717FE801B022802D96A
:103170000320BDE8F883286810F0006FF3D1606881
:10318000217A800140EA017044490860C9F86880EA
:10319000FFF702FE0646286810F0006F0BD1FFF71C
:1031A000FBFD801B022802D90320BDE8F8832868B4
:1031B00010F0006FF3D0207810F0020F5CD0384888
:1031C000016841F080510160006800F0805000907B
:1031D000344D286840F480702860FFF7DDFD064616
:1031E000286810F4807F0BD1FFF7D6FD801B0228E2
:1031F00002D90320BDE8F883286810F4807FF3D05B
:10320000294D286800F4407028B3A18901F4407169
:10321000814220D0286820F440702449C1F8008001
:103220000F602860286810F0010F14D0FFF7B4FD7C
:103230000646286810F0020F0DD141F28837FFF7DB
:10324000ABFD801BB84202D90320BDE8F883286893
:1032500010F0020FF3D0E0684FF4407131EA000241
:1032600013490CD0086820F4F81008602868A18978
:10327000C1F30B01084328600020BDE8F8830A6809
:1032800020F4407022F4F81220F0704010430860DF
:10329000ECE700000000474200380240843802405A
:1032A000403802400070004070380240400E4742F3
:1032B000083802402DE9F04704460D46002C13D093
:1032C000DFF85091D9F80000EFB200F00F00A842EB
:1032D0000DD289F80070D9F8000000F00F00A84264
:1032E00005D00120BDE8F0870120BDE8F087206807
:1032F000494E10F0020F14D010F0040F03D03068C4
:1033000040F4E0503060207810F0080F03D03068AF
:1033100040F4604030603068A16820F0F00008435D
:103320003060207810F0010F3ED060683B490128E2
:1033300008D002280DD003280BD0096811F0020F25
:1033400028D00AE0096811F4003F06D10120BDE849
:10335000F087096811F0007F19D0316821F003016E
:1033600008433060FFF718FD80463068616800F060
:103370000C00B0EB810F17D041F2883AFFF70CFD3B
:10338000A0EB0800504508D90320BDE8F0870120D4
:10339000BDE8F0870120BDE8F0873068616800F083
:1033A0000C00B0EB810FE9D1D9F8000000F00F005C
:1033B000A8420AD989F80070D9F8000000F00F007F
:1033C000A84202D00120BDE8F087207810F0040F59
:1033D00005D03068E16820F4E05008433060207880
:1033E00010F0080F06D03068216920F4604040EAF0
:1033F000C100306000F03EF83168094AC1F30311A2
:10340000515CC840074908600F20FFF703FE002009
:10341000BDE8F087003C0240083802400038024016
:10342000ACC9000824000020014800687047000073
:103430002400002000B5FFF7F7FF04490968044A9B
:10344000C1F38221515CC84000BD00000838024031
:10345000BCC9000800B5FFF7E7FF04490968044A42
:10346000C1F34231515CC84000BD00000838024041
:10347000BCC9000810B51748006810F00C011648C8
:1034800016D0164B042912D0082911D1144C2168EA
:1034900001F03F02216811F4800F0AD02068C0F3C8
:1034A0008810A0FB03010023FDF7D3FC09E01846B8
:1034B00010BD21680023C1F38811A1FB0001FDF7B5
:1034C000C8FC2168C1F30141491C4900B0FBF1F07F
:1034D00010BD0000083802400024F400001BB700B3
:1034E000043802402DE9F84F0446002C10D0207813
:1034F000FA4D10F0010F64D0F948016801F00C0199
:1035000004290DD0006800F00C00082803D011E059
:103510000120BDE8F88FF348006810F4800F09D04F
:10352000286810F4003F4CD06068002849D1012081
:10353000BDE8F88F6068B0F5803F14D0B0F5A02FDB
:1035400016D0286820F480302860286820F4802075
:103550002860606810B3FFF71FFC0646286810F467
:10356000003F0ED02DE0286840F480302860F0E75E
:10357000286840F480202860286840F48030286063
:10358000E7E7FFF709FC801B642802D90320BDE8A8
:10359000F88F286810F4003FF3D012E0FFF7FCFB2F
:1035A0000646286810F4003F0BD0FFF7F5FB801BA0
:1035B000642802D90320BDE8F88F286810F4003F82
:1035C000F3D12078C84F10F0020F4FF0000856D00A
:1035D000C348016811F00C0F15D0006800F00C0012
:1035E000082804D1BF48006810F4800F0BD0E068B1
:1035F00078B301203860FFF7CFFB0646286810F04B
:10360000020F12D01DE0286810F0020F05D0E0680C
:10361000012802D00120BDE8F88F2868216920F038
:10362000F80040EAC100286029E0FFF7B5FB801BE5
:10363000022802D90320BDE8F88F286810F0020F95
:10364000F3D02868216920F0F80040EAC100286022
:1036500015E0FFE7C7F80080FFF79EFB06462868E5
:1036600010F0020F0BD0FFF797FB801B022802D946
:103670000320BDE8F88F286810F0020FF3D12078FE
:1036800010F0080F33D09948DFF864926169B9B13E
:1036900001210160FFF780FB0646D9F8000010F019
:1036A000020F24D1FFF778FB801B022802D90320E8
:1036B000BDE8F88FD9F8000010F0020FF2D016E044
:1036C000C0F80080FFF768FB0646D9F8000010F04C
:1036D000020F0CD0FFF760FB801B022802D90320E9
:1036E000BDE8F88FD9F8000010F0020FF2D1207871
:1036F00010F0040F73D04FF00009DFF8F8A1DAF8EA
:10370000000010F0805F0CD1DAF8000040F080502B
:10371000CAF80000DAF8000000F0805000904FF086
:103720000109DFF8D4B1DBF8000010F4807F1AD172
:10373000DBF8000040F48070CBF80000FFF72CFBB2
:103740000646DBF8000010F4807F0CD1FFF724FB65
:10375000801B022802D90320BDE8F88FDBF80000A7
:1037600010F4807FF2D0A068DFF890B1012818D063
:1037700005281DD0DBF8000020F00100CBF8000088
:10378000DBF8000020F00400CBF80000A06838B39C
:10379000FFF702FB0646DBF8000010F0020F14D022
:1037A0003CE0DBF8000040F00100CBF80000EDE762
:1037B000DBF8000040F00400CBF80000DBF800006C
:1037C00040F00100CBF80000E0E7FFF7E5FA811BCD
:1037D00041F28830814204D90320BDE8F88F26E009
:1037E00005E0DBF8000010F0020FEED016E0FFF766
:1037F000D3FA0646DBF8000010F0020F0ED0FFF7F8
:10380000CBFA811B41F28830814202D90320BDE806
:10381000F88FDBF8000010F0020FF0D1B9F1010FC2
:1038200005D1DAF8000020F08050CAF80000A06945
:10383000E8B32B49096801F00C0108296BD0022874
:1038400010D0C7F86080FFF7A7FA0446286810F088
:10385000007F5ED0FFF7A0FA001B022855D9032095
:10386000BDE8F88FC7F86080FFF796FA064628682B
:1038700010F0007F0BD0FFF78FFA801B022802D9CF
:103880000320BDE8F88F286810F0007FF3D1216A8B
:10389000E069A26A0843616A4FF0FF33890103EBD4
:1038A000520241EA0241084394F82C1000E030E053
:1038B00040EA01610B48016001203866FFF76CFAAD
:1038C0000446286810F0007F23D1FFF765FA001B3B
:1038D000022815D90320BDE8F88F1CE0003802400B
:1038E000083802400438024000004742800E474238
:1038F0007438024040380240007000407038024086
:10390000286810F0007FE0D003E0286810F0007F06
:10391000A0D10020DFE70120DDE770B50446002CD0
:1039200002D0607F10B106E0012070BD002020773A
:10393000204600F04FF8022060772168CA204862D4
:10394000216853204862204603F08AFBFF250426A5
:1039500020B1206845626677012070BD20688168CB
:1039600021F0400121F4E0018160206881686268F3
:103970006369114322691A43114381602168E06839
:10398000086120680169228941EA024101612068D9
:10399000C16821F08001C1602068806810F0200FAC
:1039A00008D1204600F022F820B1206845626677F1
:1039B000012070BD2068016C21F480210164206821
:1039C000016CA2691143016420684562012060779F
:1039D000002070BD00680349884202D102490120DD
:1039E00008607047002800403C0E474270B504460E
:1039F0002068C16821F0A001C160FFF7CDF905463C
:103A00002068C06810F0200F0CD1FFF7C5F9401BEB
:103A1000B0F57A7F01D9032070BD2068C06810F02E
:103A2000200FF2D0002070BD70B50446002C05D0E8
:103A30000025A56294F8510010B106E0012070BD88
:103A400084F85050204600F031F8022084F85100EC
:103A50002068016821F040010160A1686068226966
:103A60000843E1681143084361690843218B01F46D
:103A700000710843E1690843216A0843A16A0843C9
:103A800021680860A069042101EA1040616A0843C6
:103A9000216848602068C16921F40061C1616565E1
:103AA000012084F85100002070BD00002DE9F04392
:103AB00087B00546142102A8FDF7E3FA39492868C2
:103AC00088426CD100263848016841F48051016079
:103AD000006800F48050019033481438016841F0C8
:103AE00002010160016801F002010191016841F0E9
:103AF00001010160006800F00100019018200290AF
:103B00004FF00208CDF80C804FF00109CDF810906D
:103B1000032405940527069702A92448FFF726F8F1
:103B200080200290CDF80C80CDF810900594069777
:103B300002A91F48FFF71AF81F4C1E4820604FF0DB
:103B4000C068C4F80480A660E66007152761666156
:103B5000A661E6614FF44030206266622046FEF7BF
:103B60006DFF08B1FEF756FAEC64A5631148124CDC
:103B7000183060342060C4F804804020A060E66003
:103B800027616661A661E661C00220626662204626
:103B9000FEF754FF08B1FEF73DFAAC64A56307B029
:103BA000BDE8F08300300140443802400004024088
:103BB0000000024040640240AC0A00202DE9F84FAA
:103BC00004460A9E8A4693461F4601254FF0000888
:103BD00094F8500001280ED0012084F85000FFF71F
:103BE000DBF8814694F85100616801280ED0B1F5E8
:103BF000827F07D102E00220BDE8F88FA16809B9F1
:103C0000042803D04FF0020800F0CBB8BAF1000F3F
:103C10001DD0BBF1000F1AD0380018D094F8510015
:103C2000042802D0052084F8510000206065C4F803
:103C300038B0E787A787C4F830A0E786A786206456
:103C400060642068016811F0400F03D006E04FF077
:103C50000108A6E0016841F040010160E068B0F5AC
:103C6000006F05D06068002848D0012F46D07EE064
:103C7000606808B1012F3AD1206B21680088C860C4
:103C8000206B801C2063E08E401EE0862FE02068C1
:103C9000816811F0020F0DD0E18E59B1012D09D1CB
:103CA000216B0988C160206B801C2063E08E401E60
:103CB000E08600252068816811F0010F0BD0E18FAC
:103CC00049B1C068A16B0880A06B801CA063E08F25
:103CD000401EE0870125FFF75FF8A0EB0900B04226
:103CE00005D3B6F1FF3F02D04FF0030859E0E08E54
:103CF0000028CCD1E08F0028C9D13EE0206B21689C
:103D000000780873206B401C2063E08E401EE08624
:103D10002DE02068816811F0020F0DD0E18E59B1BD
:103D2000012D09D1216B09780173206B401C2063A0
:103D3000E08E401EE08600252068816811F0010FAA
:103D40000BD0E18F49B1C068A16B0870A06B401C1B
:103D5000A063E08F401EE0870125FFF71DF8A0EB70
:103D60000900B04202D3B6F1FF3F11D186B1E08E17
:103D70000028CED1E08F0028CBD14A4631462046DC
:103D800003F090F938B14FF001082020606508E099
:103D90004FF0030805E0A06818B92068C168806882
:103DA0000090012084F85100002084F85000404623
:103DB000BDE8F88F401EB0F1807F01D3012070472D
:103DC0004FF0E0214861044AF02010700020886123
:103DD000072008610020704723ED00E090F83C20A8
:103DE000012A2CD0012280F83C20CA680023D1F897
:103DF00008C022F4407242EA0C02D1F804C022F456
:103E0000806242EA0C02D1F800C022F4006242EA69
:103E10000C02D1F810C022F4805242EA0C02D1F810
:103E200014C022F4005242EA0C02C96922F4804212
:103E300011430268516480F83C3000207047022032
:103E4000704730B490F83C20012A1ED0012480F83D
:103E50003C40022280F83D200268D2F804C09368FA
:103E60002CF0700C0D6845EA0C0C23F080034968B7
:103E70001943C2F804C00268916080F83D400021F7
:103E800080F83C1030BC0020704730BC02207047E6
:103E900010B50446002C03D094F83D0010B107E0A3
:103EA000012010BD002084F83C00204600F00CF8F2
:103EB000022084F83D00211D206803F019FA01203A
:103EC00084F83D00002010BD08B500682549264A49
:103ED000884208D1106840F001001060106800F0BE
:103EE0000100009008BD2049204B091F984208D1CD
:103EF000086840F002000860086800F002000090C6
:103F000008BD1B4B984208D1086840F004000860C7
:103F1000086800F00400009008BD164B984208D1D4
:103F2000086840F008000860086800F00800009089
:103F300008BD1149884208D1106840F002001060A5
:103F4000106800F00200009008BD0C498842FBD1C7
:103F5000106840F400301060106800F400300090E9
:103F600008BD000000000140443802400004004049
:103F700000080040000C00400004014000440140E3
:103F8000022180F83D1001688A6802F00702062AC3
:103F900003D00A6842F001020A60012180F83D1056
:103FA0000020704770B5044694F83C00012818D0F2
:103FB000012584F83C50022084F83D002068826886
:103FC00022F0770222F47F4282600868502832D0C3
:103FD0000EDC20284DD006DC00284AD010284DD118
:103FE00047E0022070BD302843D0402846D136E05B
:103FF00060282AD0702806D0B0F5805F3ED0B0F59A
:10400000005F3BD10BE0CB684A688968206803F009
:10401000E4F92068816841F0770181602EE0CB6887
:104020004A688968206803F0D8F92068816841F4FB
:104030008041816022E0CA684968206803F0D1FAB3
:104040005021206803F0D4F918E0CA684968206854
:1040500003F0DAFA6021206803F0CAF90EE0CA68BA
:104060004968206803F0BDFA4021206803F0C0F9D8
:1040700004E022680146104603F0BAF984F83D5086
:10408000002084F83C0070BD2DE9F04387B0044661
:10409000142102A8FCF7F5FF6C4821686C4C02253E
:1040A0000126814228D1206840F01000206020685D
:1040B00000F0100001904FF4D44002900395049654
:1040C0000595069602A96348FEF750FD6248FFF782
:1040D00057FF0021604800F05EF904215E4800F0BF
:1040E0005AF908215C4800F056F90C215A4800F0B2
:1040F00052F907B0BDE8F0835848DFF86491814277
:104100001BD1206840F004002060206800F004000B
:10411000019088150290039504960595069502A9CD
:104120004846FEF723FD4C484030FFF729FF4A4838
:104130000821403000F02FF9DBE74A4881422FD1B7
:1041400045488030FFF71CFF43480821803000F0CD
:1041500022F9206840F080002060206800F0800094
:1041600001904FF4E0500290039504960595069552
:1041700002A93D48FEF7FAFC3748C030FFF700FFC0
:1041800035480021C03000F006F933480421C03022
:1041900000F001F930480821C03000F0FCF8A8E731
:1041A000324840274FF0030881422FD1206840F465
:1041B00080702060206800F480700190206840F0DA
:1041C00004002060206800F004000190029703952D
:1041D00004960595CDF8188002A92548FEF7C6FC7F
:1041E0000297039504960595CDF8188002A94846D4
:1041F000FEF7BCFC1F48FFF7C3FE00211D4800F07E
:10420000CAF804211B4800F0C6F872E71A48814238
:1042100092D1206840F020002060206800F020004B
:1042200001900297039504960595CDF8188002A990
:104230001248FEF79BFC0F484030FFF7A1FE0D48E7
:104240000021403000F0A7F853E7000000000140D3
:1042500030380240001002406C0B00200004004087
:1042600000080240000C0040001C02400004014015
:10427000002002406C0C0020004401400014024069
:1042800070B504460D4694F83C0001280DD0012677
:1042900084F83C60022084F83D0042B1042A1AD020
:1042A000082A2DD00C2A53D13EE0022070BD2946A9
:1042B000206803F0A5F82068816941F00801816158
:1042C0002068816921F004018161206881692A697F
:1042D000114381613CE02946206803F0C9F8206859
:1042E000816941F4006181612068816921F4806104
:1042F0008161206881692A6941EA0221816127E0A0
:104300002946206803F0F0F82068C16941F00801EF
:10431000C1612068C16921F00401C1612068C169DF
:104320002A691143C16113E02946206803F018F996
:104330002068C16941F40061C1612068C16921F44C
:104340008061C1612068C1692A6941EA0221C161B5
:1043500084F83D60002084F83C0070BD10B5044630
:10436000002C03D094F83D0010B107E0012010BDEF
:10437000002084F83C00204600F00CF8022084F86D
:104380003D00211D206802F0B3FF012084F83D00AC
:10439000002010BD704710B504460122206803F0CC
:1043A0000DF82168A1F18040B0F5803004D0A1F172
:1043B0008040B0F5823003D1486C40F4004048643E
:1043C0002068816801F00701062903D0016841F0E7
:1043D00001010160002010BD7047000010B50446C7
:1043E00022681068D168526900F00F03002B0AD1CF
:1043F00010F0200F07D011F0200F04D02046BDE8A8
:10440000104003F036B9002B6BD002F0010301F429
:10441000907C53EA0C0364D010F0010F06D011F425
:10442000807F03D0E36B43F00103E36310F0040FDC
:1044300006D012F0010F03D0E36B43F00203E363F5
:1044400010F0020F06D012F0010F03D0E36B43F01F
:104450000403E36310F0080F06D012F0010F03D03D
:10446000E26B42F00802E263E26B002A2ED010F009
:10447000200F05D011F0200F02D0204603F0F9F8EC
:1044800020684069C0F38010E16B11F0080F00D183
:1044900008B3204603F0D2F82068416911F0400FBC
:1044A00015D0416921F040014161606B58B1184954
:1044B0000165606BFEF7B0FA002807D0606B016DF4
:1044C000BDE8104008472046FFF786FF10BD204694
:1044D000FFF782FF10BD2046FFF77EFF0020E0635C
:1044E00010BD10F0800F07D011F0800F04D02046CF
:1044F000BDE8104003F0ACBA10F0400FF0D011F05E
:10450000400FEDD02046BDE8104003F0A5B80000F4
:104510002D76000870B50446002C04D094F83900BC
:10452000002510B106E0012070BD84F83850204607
:1045300000F022F8242084F839002068C16821F4B2
:104540000051C160204603F0E3F82068016921F4BE
:10455000904101612068416921F02A014161206890
:10456000C16841F40051C160E563202084F839003E
:1045700084F83A00002070BD2DE9F04387B006466C
:10458000142102A8FCF77DFD454A30680025454905
:10459000022401274FF003084FF0070990423CD155
:1045A00040481430026842F010020260006800F0D7
:1045B00010000190086840F002000860086800F0F0
:1045C00002000190086840F001000860086800F0EF
:1045D000010001908020029003940497CDF814808C
:1045E000CDF8189002A93048FEF7C0FA20020290D8
:1045F00003940497CDF81480CDF8189002A92B48A5
:10460000FEF7B4FA002205212520FEF74FFD2520F4
:10461000FEF73EFD07B0BDE8F083254A9042F9D190
:1046200020481030026842F480220260006800F4E2
:1046300080200190086840F004000860086800F0DD
:10464000040001904FF44060029003940497CDF869
:104650001480CDF8189002A91648FEF787FA174C77
:10466000154820604FF000606060A560E560401470
:1046700020616561A561E561C00120626562204637
:10468000FEF7DCF908B1FDF7C5FC7463A6630022F0
:1046900004212720FEF70AFD2720FEF7F9FCB9E7E1
:1046A0000010014030380240000402400000024087
:1046B0000048004000080240286002406C0D0020C5
:1046C00090F83A30202B01D002207047F9B1F2B1B6
:1046D00090F83830012B1CD081628285C285002180
:1046E000C163222280F83A2080F838100168CA6835
:1046F00042F48072CA6001684A6942F001024A616C
:104700000068C16841F02001C160002070470120AD
:10471000704702207047000070B500682549884244
:1047200046D125480078244D244C6D1E002629785A
:1047300021B101290DD002291ED032E0A52801D0D7
:104740006E802EE069884A1C6A80605401202870BF
:1047500027E069884A1C92B26A806054022A20D1FC
:1047600016480178A52901D1407810B16E802E70CD
:1047700017E00220287014E069884A1C92B26A800F
:1047800060540E2A0DD10E210C4806F043F830B1CA
:1047900054F8020FE060606820612089A0826E807A
:1047A0002E70BDE87040012203490548FFF788BF1D
:1047B00070BD000000100140210100207415002090
:1047C000EC0C002090F83930202B01D002207047EB
:1047D000A9B1A2B190F83830012B12D001628284C5
:1047E000C2840021C163212280F8392080F838106A
:1047F0000068C16841F08001C1600020704701205D
:10480000704702207047704770B50446002020743E
:104810003B4DA27B616828884243D4F8F400FCF742
:10482000D4FBA17B288841436068FCF72AFCA07B6D
:1048300010FB00F128884143D4F81801FCF721FC53
:10484000207BA17B10FB01F128884143D4F80C01A7
:10485000FCF717FC002029E0D4F8F41001EB8002EB
:1048600092ED000AB5EEC00AF1EE10FA1CD0227CDF
:1048700001EB820181ED000A227C616A8854A16902
:10488000227B01EB8001237C91ED000A6169095CC8
:1048900012FB0311D4F80C21491E02EB810181EDBA
:1048A000000A217C491C2174401CC0B2A17B8142BA
:1048B000D2D8002010E0636AE26900FB01011B5CB2
:1048C00002EB830292ED000AD4F8182102EB810179
:1048D00081ED000A401CC0B2217C8142EBD85C34DF
:1048E00014F84C0CA08314F8500CE083A084E184ED
:1048F000A186E186A087E18724F8141C70BD000022
:1049000078010020FEE70000F0B504462DED068B8F
:1049100087B00E461546884FD4ED040A874897EDB8
:10492000050A30EEC00AB0EEC00A10EE101A81423D
:1049300019DC94ED050A97ED061A30EE410AB0EE47
:10494000C00A10EE101A81420DDC94ED060A97EDB4
:10495000071A30EE410AB0EEC00A10EE101A81427A
:1049600001DC2078F0B3DFED76AA80EEAA0AFBF72F
:10497000FFFCF0EE409AD4ED050A80EEAA0AFBF7A0
:10498000F7FCB0EE409AD4ED060A80EEAA0AFBF7D7
:10499000EFFCB0EE40AAD4ED040A80EEAA0AFBF7C1
:1049A00023FDF0EE408AD4ED050A80EEAA0AFBF75B
:1049B0001BFDB0EE408AD4ED060A80EEAA0AFBF792
:1049C00013FD69EE8A0A68EE881AB0EE601A01EEED
:1049D000801A87ED081A29EE281A87ED091A29EEA0
:1049E000801A00E027E06AEE281A01EEC81A87ED67
:1049F0000A1A29EE881A21EE001A0AEE681A87EDC3
:104A00000B1A29EE891A87ED0C1AB1EE681A21EEFD
:104A1000001A00EEC81A87ED0D1AF1EE490A20EED1
:104A2000800A87ED0E0A87ED0F8A29EE0A0A87EDC4
:104A3000100A00202070002004A906EB800292EDED
:104A4000000A04EB8002D2ED010A01EB800220EEA5
:104A5000200A82ED000A401CC0B20328EDD39DED70
:104A6000040A97ED085ADDED050A97ED094A20EE94
:104A7000052A9DED061AD7ED0A1A04EE202A01EE4A
:104A8000812A86ED002A97ED0B2A97ED0C3AD7ED97
:104A90000D2A60EE023A43EE203A42EE813AC6ED2C
:104AA000013AD7ED0E3AD7ED0F4AD7ED105A20EE66
:104AB000230A04EEA00A05EE810A86ED020A002010
:104AC00001A905EB800292ED000A01EB800282ED64
:104AD000000A401CC0B20328F3D39DED010ADDEDAE
:104AE000020A9DED031A20EE055A04EE205A01EE4B
:104AF000815A85ED005A60EE021A43EE201A42EE0A
:104B0000811AC5ED011A20EE230A04EEA00A05EE73
:104B1000810A85ED020A94ED040A87ED050A94EDF9
:104B2000050A87ED060A94ED060A87ED070A07B025
:104B3000BDEC068BF0BD0000A80000206F12833A88
:104B4000E12E654210B504462DED048BD4F8EC003F
:104B5000D0ED009A90ED018AD0ED028A90ED039A93
:104B600029EEA90A08EE080A08EEA80A09EE090AC1
:104B700004F0B0FC0020D4F8EC1001EB8001D1ED82
:104B8000000A60EE800AC1ED000A401CC0B2042891
:104B9000F1D33A48F83490ED6F0AA16860EE080A44
:104BA000B6EE000A60EE800AC1ED040AD0ED6F0A8D
:104BB000A16860EEA80A60EE800AC1ED050AD0ED9A
:104BC0006F0AA16820EEA91AFEEE000A21EE201A53
:104BD00081ED0A1A90ED6F1AA16821EE091A21EEF3
:104BE000001A81ED0B1A90ED6F1AA16821EE091AD7
:104BF00021EE201A81ED101A90ED6F1AA16821EEB6
:104C0000291A21EE201A81ED111A90ED6F1AA16870
:104C100021EE281A21EE000A81ED160A90ED6F0AA6
:104C2000A16820EE080A20EE200A81ED170A21680B
:104C3000D0ED720A91ED1C0A80EE201A81ED1C1A4B
:104C40002168D0ED720A91ED230A80EE201A81EDE1
:104C5000231A54F8F8090A499FED0A0A026F8A429A
:104C600001DD80ED1C0AD4F8F800D0F88C208A42CF
:104C700001DD80ED230ABDEC048B10BDE0150020A2
:104C800000401C4600401C4670B52DED028B0125EE
:104C9000284C257084ED6C0AC4ED6D0A84ED6E1A03
:104CA0009FED250A84ED710A002084F83801D03484
:104CB000002121676167A167E167D03C11EE900A8E
:104CC000B7EE008AB0F17E5F01DDF0EE481AC4ED68
:104CD000721A84ED642A032300220621201D00F0AD
:104CE0001DFE8834606E80ED008A606E9FED130AB1
:104CF00080ED010A606E80ED020A606E80ED030AAD
:104D00000F48A0640F48E0640F4820650F486065B5
:104D100004F85A5C04F8595C90220D49E06FFCF7E6
:104D200054F9606F9022BDEC028B0A49BDE87040D7
:104D3000FCF74BB9E0150020CDCCCC3D00000000C5
:104D4000594D0008454B00088D4D00086952000878
:104D500080CA0008C001002010B50446902254F813
:104D6000F81F0848FCF731F948220748616AFCF748
:104D70002CF9054861694822BDE810404830FCF72D
:104D800024B90000C0010020B817002070B5044607
:104D9000B0EE000A54F8EC0F2B4DD0ED000A60EE97
:104DA000800AC5ED090AD0ED010A60EE800AC5ED62
:104DB0000A0AD0ED020A60EE800AC5ED0B0AD0EDBA
:104DC000030A20EE800A85ED0C0A14F8DE0C14F8B4
:104DD000E01C10FB01F11D4800884143206AFCF7EC
:104DE00050F995ED0B2A206AF1EE421AC0ED001A37
:104DF000206A95ED0C0A80ED010AD5ED090A206ABA
:104E0000B1EE601A80ED021A206A95ED0A1A80ED63
:104E1000031A206A80ED061A206AC0ED070A206A8C
:104E200080ED080A206A80ED092A206AC0ED0C0A8C
:104E3000206AF1EE410AC0ED0D0A206AC0ED0E1A9B
:104E4000206A80ED0F0A70BD7C01002078010020EF
:104E500070B52DED088BF0EE40BAF0EE60AAB0EE22
:104E600041BAF0EE619AB0EE42AAB0EE629AB0EEAC
:104E7000438AF04C2078DFEDF08A00280BD1B0EEA9
:104E8000682AF7EE001A9FEDED1ADFEDED0AB2EE9B
:104E9000040AFFF7F9FE04F5827484ED2E8AD4ED3E
:104EA000171A3BEEE10A84ED1A0AD4ED181A7AEECD
:104EB000E10AC4ED1B0AD4ED191A3BEE611A84ED28
:104EC0001C1AF6EE001ADF4D20EE210A20EE080A29
:104ED00085ED000A20EEA10A20EE080A85ED010A00
:104EE00021EE210A20EE080A85ED020A9022D64919
:104EF0002068FCF76AF895ED000A2068B1EE402AB8
:104F000080ED012AD5ED010A2068F1EE602AC0ED9E
:104F1000022A95ED021A2068F1EE411AC0ED031A3B
:104F2000206880ED060A206880ED081A2068C0ED30
:104F3000092A2068C0ED0C0A2068C0ED0D1A20680F
:104F400080ED0F0A206880ED121A2068C0ED130A68
:104F5000206880ED142AD4E91101A4F58274084375
:104F600005D1C4ED5E9A84ED5FAA84ED609A94ED5C
:104F70005E0AD4ED640A94ED6F1A20EE202A31EE19
:104F8000200AC2EE001A21EE292AC2EE002A31EED2
:104F9000A22A84ED5E2AD4ED5F1A61EEA02AC2EE49
:104FA000801A61EE0A2A82EE803A71EE831AC4ED0D
:104FB0005F1AD4ED602A21EE091A62EEA02AC2EE31
:104FC000800AC1EE002A70EEA20AC4ED600A22EE49
:104FD000020A01EEA10A00EEA00A04F07BFA85EDB8
:104FE000030A002004EB8001D1ED5E0AA16860EEA7
:104FF000800A01EB8001C1ED000A401CC0B2032809
:10500000F0D394ED5B0AD4ED5C0A20EE000A00EECA
:10501000A00AD4ED5D0A00EEA00A04F05BFAB7EE38
:10502000009A89EE001A84ED651AD5ED030A89EE1F
:10503000200A84ED660A11EE100A844988420DDACE
:1050400010EE100A8249884208DD10EE100A8149EC
:10505000884203DA012084F8390102E0002084F854
:10506000390104F58C7494ED260AD4ED290A2068E0
:1050700020EE200A80ED000A94ED260AD4ED290ADC
:10508000206820EE200A80ED070A94ED260AD4ED70
:10509000290A206820EE200A80ED0E0A94ED260AE7
:1050A000D4ED290A206820EE200A80ED150A94ED3F
:1050B000270AD4ED290A206820EE200A80ED1C0A78
:1050C00094ED270AD4ED290A206820EE200A80ED0D
:1050D000230A606894ED280A80ED000A606894ED68
:1050E000280A80ED040A606894ED280AA4F58C74FF
:1050F00080ED080A201D00F0F7FE606890ED001AB0
:1051000084ED541A90ED010A84ED550A90ED022ABF
:1051100084ED562AD0ED031AC4ED571AD0ED040AD7
:10512000C4ED580AD0ED050AC4ED590AC4ED5A8AF7
:1051300061EE012A21EE211AB0EE008AF0EE490A52
:1051400040EE002A00EE021A52EE880A21EE080A0A
:1051500002F07EFEDFED408A20EE280A84ED6A0A26
:1051600094ED540A94ED571AF0EE490A60EE001AD5
:1051700041EE011A51EE880AD4ED551A20EE210AAB
:10518000D4ED561A01EE810A20EE080A02F060FE04
:1051900020EE280A84ED690A94ED550AD4ED570AE9
:1051A00094ED561A20EE200AD4ED540A00EEC10AFE
:1051B000F8EE000A20EE200A02F0B4FD20EE280AE4
:1051C00084ED680A94ED6A0AD4ED740A234970EEFE
:1051D000600A10EE900A884205DDB4F8CC01401E4A
:1051E000A4F8CC0109E010EE900A1D49884204D9C8
:1051F000B4F8CC01401CA4F8CC0104F5A474DFED94
:10520000191AB4F9840000EE900AB8EEE01AF0EE34
:10521000400A41EE210AC4ED190A84ED220AD4E9BC
:105220000010491C40F10000C4E90010BDEC088BDF
:1052300070BD0000E0150020000000008096184BB3
:105240006F12833A7C01002080CA00089A99993E27
:10525000CDCC1441CDCC2441E12E65420000344335
:10526000000034C30000B4432DE9F84F044604F1B4
:10527000800104F1780005460091FBF731FD6C34A4
:1052800084F85C00A089A08734F8120CE0876C3C9D
:1052900004F1A80204F15801934689462846FBF719
:1052A000FDFB823484F84600E08CE085208820866F
:1052B000823C04F1B002924658460099FBF7EEFB9F
:1052C000903484F838002088208260886082903C86
:1052D00004F1A002154604F190015046FBF7BEF818
:1052E000B034207651462846FBF740F92076E06B33
:1052F000C349D0ED001AC1ED0D1A90ED010A81ED00
:105300000E0AD0ED020AC1ED0F0A90ED031A81EDED
:10531000101A34F8380C20810125658120EE012A0D
:10532000F0EE002AE06F01EEE02A22EE222A80ED64
:10533000002A21EE802AE06F00EE812A22EE222A46
:1053400080ED012A61EEA11AE06FB03C40EE401AF8
:1053500040EEE01A41EE011AC0ED021A0027A94EF4
:10536000D4F82C0100EB870090ED000AB0EEC00AE3
:1053700002F04CFC06EB870080ED610A7F1CFFB257
:10538000032FEDD3B4F84800A4F8C000A4F8C2502D
:1053900004F1C00204F1B8011746884604F1480040
:1053A000FBF71AFCAA34A077E08A24F8020C2580C7
:1053B0005A4639465046FBF771FBA077E581E08AF3
:1053C000208241463846FBF78BFCA07724F8025C2C
:1053D00025805A4639464046FBF760FBA077D4F853
:1053E0000200AA3CD0ED000AC6ED700A96ED710AE3
:1053F000B6EE001A20EE011AF4EEC10AF1EE10FA30
:1054000001D286F83851F4EEC00A0020F1EE10FA0D
:105410003BDD96F83811B9B396F8391149B106F564
:10542000A07106F5A07306C9491C42F1000206C32B
:1054300004E00021C6F84011C6F8441106F5A07238
:105440004FF0320C0CCA0021BCEB0202994104D28D
:1054500086F8380184F82C0039E06B4E227B8034CA
:1054600030884243D4E91A01FBF7AFFD14F8740CFD
:1054700010FB00F230884243D4E91E01FBF7A5FD82
:1054800004F8545CBDE8F88FFFE79FED601A20EE4A
:10549000011AF4EEC10AF1EE10FA0DDD96F838119A
:1054A00051B170EE600A9FED5A1A20EE010A80EEAB
:1054B000801A86ED671A03E0B7EE000A86ED670AE8
:1054C0000022C6F84021C6F8442184F82C006C3430
:1054D00034F8140CA087E08AE0875A4648460099C1
:1054E000FBF7DCFA84F85C006C3C04F1980291460E
:1054F00051465846FBF7D2FA84F8C80000200DE068
:10550000D4F81C11D6ED670A01EB800191ED000A79
:1055100020EE200A81ED000A401CC0B2B4F89810B9
:10552000B4F89A2051438142EADC04219FED390A04
:1055300000200A1F06EB820C01EB41039CED611A6F
:10554000D4F81C2103EB000AC1EE000A02EB8A0228
:1055500092ED001A60EE810AC2ED000A401CC0B252
:105560000328EBD3491CC9B20629E1D334F8980FBC
:1055700020846584424639464846FBF78FFA84F812
:105580003000983C96F8380150B30420DFED220A31
:105590009FED221AD4F8BC1096ED6F0A01EB800142
:1055A00020EE200AD1ED001AF4EEC01AF1EE10FA46
:1055B00001DD81ED000AD4F8BC1096ED6F0A01EB15
:1055C000800120EE010AD1ED001AF4EEC01AF1EECE
:1055D00010FA01D281ED000A401CC0B20628D9D3CE
:1055E000D4F8BC009FED0E0A80ED030A04F13002EE
:1055F000414604F13800FAF731FF84F8C80041E76A
:105600007C010020E015002078010020CDCCCC3DAD
:105610006666663FDA0FC93F0AD7233C0AD723BC28
:105620000000000010B5114890ED070A1048D0EDB9
:10563000030A104801F08AFA0E4890ED0D0A03F0B3
:10564000DCFC00EE100A9FED0C1ADFED0C0AB8EE40
:10565000C00A03F0C2FCBCEEC00ABDE8104010EE68
:10566000100A002182B2064801F0A6BFAC15002046
:10567000A80000200C1300200000804F0000000054
:10568000AC0C002010B52DED028BB7EE000A2148BE
:1056900080ED010A80ED020A80ED030A9FED1E8A6B
:1056A00080ED048A80ED058A80ED068A0121017073
:1056B000B0EE482AF7EE001A9FED181ADFED180A2F
:1056C000B2EE040AFFF7E0FA00221146F0EE484A73
:1056D000B0EE484AF0EE483AB0EE483AF0EE482ACA
:1056E000B3EE042ADFED0F1AB0EE481ADFED0E0A12
:1056F0009FED0E0A0E4801F069FB00210D48FEF7F0
:105700004AFE04489FED0C0A803880ED100ABDEC7B
:10571000028B10BD44140020000000008096184B3E
:105720006F12833A00007A44000096430000FA4466
:105730000C130020AC0C002096430B3C70B52DEDF3
:10574000028B86B06C48D0E90912C06ACDE9031219
:1057500005906A48FCF72AFB684D85ED010AD5EDF6
:10576000020A30EE800A85ED020A6548FBF77AFEF0
:105770006348644C90ED000A84ED070A90ED010A3D
:1057800084ED080A90ED020A84ED090A90ED030AFF
:1057900084ED040A90ED040A84ED050A90ED050AF3
:1057A00084ED060A04F11C02A2F10C0101F1700063
:1057B000FFF7AAF8D4ED090A94ED070A02F048FBB6
:1057C0009FED518A20EE080ADFED500A80EE201A84
:1057D00084ED1A1AD4ED090A94ED080A02F038FB98
:1057E00020EE080ADFED4A0A80EE201A84ED1B1A2B
:1057F000D4ED092A94ED082AD4ED071A94ED061A7F
:10580000D4ED050A94ED040A95ED013AFFF720FB6B
:105810004049A4F1380091E84C00C968C0E90F364E
:105820008263416400F17C0122463348FBF76BFF41
:105830003148224602F150010C30FBF764FF2E483C
:10584000224602F15C011830FBF75DFF22466946F3
:1058500003A8FCF76AFB002095ED011A6A4604EBE9
:10586000800102EB800391ED070AD3ED000A30EED0
:10587000600A20EE012A94ED100A70EE010AC2EED1
:10588000201A91ED0A2A22EE000A80EE202A31EE3B
:10589000820A81ED0A0A401CC0B20328DFD3194AEC
:1058A00002F13401A1F10C00FBF72DFF1A4890ED35
:1058B0006A0A84ED1E0AD0ED690AC4ED1D0A90ED56
:1058C000681A84ED1C1A0F490C3981ED000AC1EDEC
:1058D000010A81ED021A90ED6B0A84ED1F0A287C03
:1058E000C00701D1FFF79EFE2869401C286106B061
:1058F000BDEC028B70BD000038CA0008A800002073
:10590000AC150020C413002000003443DB0F49C055
:10591000DB0F494030170020E01500202DE9F0474B
:1059200004460D4617461E46DFF8E4830420A8F817
:1059300000000820A8F8020025736773A6734FF0D3
:10594000000984F810903046FBF754FA6061314644
:10595000FBF775FBB8F800007043FBF74BFAA0614A
:10596000B8F800107143FBF78CFBB8F800007043E7
:10597000FBF740FAE061B8F800107143FBF781FBD8
:10598000B8F800006843FBF735FA2062B8F8001059
:105990006943FBF776FB3046FBF72CFA6062314631
:1059A000FBF74DFBB8F800006843FBF723FA2060D3
:1059B000B8F800106943FBF764FBB8F800007043C7
:1059C000FBF718FA6060B8F800107143FBF759FB59
:1059D000B8F800007843FBF70DFAA060B8F80010A3
:1059E0007943FBF74EFBB8F800006843FBF702FA77
:1059F000C4F8E800B8F800106943FBF742FB217BCC
:105A0000012204F13000D4F8E830FAF7ABFDB8F821
:105A100000006843FBF7EEF9C4F8EC00B8F800109A
:105A20006943FBF72EFB217B012204F13800D4F8F7
:105A3000EC30FAF797FD9FB1B8F800007843FBF718
:105A4000D9F9C4F8F000B8F800107943FBF719FB56
:105A5000617B012204F14000D4F8F030FAF782FDB6
:105A6000B8F800007043FBF7C5F9C4F8F400B8F8C3
:105A700000107143FBF705FBA17B012204F14800F4
:105A8000D4F8F430FAF76EFDB8F8000068436843C4
:105A9000FBF7B0F9C4F8F800B8F80010694369439F
:105AA000FBF7EFFA217B04F150000A46D4F8F830F6
:105AB000FAF758FDB8F8000068436843FBF79AF915
:105AC000C4F8FC00B8F8001069436943FBF7D9FA41
:105AD000217B04F158000A46D4F8FC30FAF742FD65
