:020000040800F2
:1000000098E1002031030008B9920008F16400086B
:10001000B59200085B190008A1CA000800000000A2
:100020000000000000000000000000007102000855
:100030009D24000800000000CD0200089B9F0008DE
:100040004B0300084B0300084B0300084B03000858
:100050004B0300084B0300089F2400084B030008D3
:100060004B030008A9240008B32400084B03000830
:100070004B0300084B0300084B0300084B03000828
:100080004B0300084B0300084B0300084B03000818
:10009000611900084B0300084B030008BD24000849
:1000A0004B0300084B0300084B0300084B030008F8
:1000B0004B0300084B0300084B0300084B030008E8
:1000C0004B0300084B0300084B0300084B030008D8
:1000D0004B03000829A800084B0300084B03000845
:1000E0004B0300084B0300084B0300084B030008B8
:1000F0004B0300084B0300084B0300084B030008A8
:100100004B0300084B0300084B0300084B03000897
:100110004B0300084B0300084B0300084B03000887
:100120004B030008852100084B0300084B0300081F
:100130004B0300084B0300084B0300084B03000867
:10014000711900084B0300084B0300086195000873
:100150004B030008952100084B03000875A8000810
:100160004B0300084B0300084B0300084B03000837
:100170004B0300084B0300084B030008000000007D
:100180004B0300084B03000800F002F800F060F891
:100190000AA090E8000C82448344AAF10107DA45E2
:1001A00001D100F055F8AFF2090EBAE80F0013F0D4
:1001B000010F18BFFB1A43F001031847643D01000B
:1001C000843D01000A444FF0000C10F8013B13F08D
:1001D000070408BF10F8014B1D1108BF10F8015BA0
:1001E000641E05D010F8016B641E01F8016BF9D193
:1001F00013F0080F1EBF10F8014BAD1C0C1B09D1EA
:100200006D1E58BF01F801CBFAD505E014F8016B5B
:1002100001F8016B6D1EF9D59142D6D370470000ED
:100220000023002400250026103A28BF78C1FBD8FF
:10023000520728BF30C148BF0B6070471FB512F08E
:1002400006FD9DE8030000F063FF1FBD10B510BD63
:1002500001F008F81146FFF7F1FF0FF04FFA01F037
:1002600026F803B4FFF7F2FF03BC01F05DF80000CD
:100270002C4B19680868B0E8F04F80F30988BFF389
:100280006F8F4FF0000080F311887047000000006E
:1002900008480068006880F308884FF0000080F389
:1002A000148862B661B6BFF34F8FBFF36F8F00DF64
:1002B00000BF00BF08ED00E0DFF80C00016841F46A
:1002C00070010160704700BF88ED00E0EFF3098026
:1002D000BFF36F8F134B1A681EF0100F08BF20ED8D
:1002E000108A20E9F04F106009B44FF0500080F3FD
:1002F0001188BFF34F8FBFF36F8F10F0D9FC4FF011
:10030000000080F3118809BC19680868B0E8F04F54
:100310001EF0100F08BFB0EC108A80F30988BFF3FD
:100320006F8F704794050020EFF305807047000041
:100330000948804709480047FEE7FEE7FEE7FEE779
:10034000FEE7FEE7FEE7FEE7FEE7FEE704480549B5
:10035000054A064B7047000065A0000889010008A7
:1003600098A1002098E1002098C1002098C10020A9
:100370009FED1A1AF5EE000A40EE010ABDEEE00A02
:10038000F5EEC00A10EE100AF1EE10FA38BF401E6A
:1003900000EE100A1349F7EE001AB8EEC00A30EE6C
:1003A000C00ADFED0F0A20EE200AFCEEC00A10EEB4
:1003B000900AC0F3080000EE900A01EB8000F8EE0E
:1003C000600A90ED011A70EE600A90ED000A71EE7D
:1003D000E01A21EE800A00EE810A704783F9223E7E
:1003E00000000044BC360108DFED190AB5EEC00A72
:1003F00060EE200ABDEEE01A11EE100AF1EE10FADE
:1004000038BF401E00EE100A1349F7EE001AB8EE8E
:10041000C00A30EEC00ADFED0F0A60EE200ABCEE23
:10042000E00A10EE100AC0F3080000EE100A01EB1B
:100430008000B8EE400A90ED011A70EEC00A90ED0F
:10044000000A71EEE01A21EE800A00EE810A704780
:1004500083F9223E00000044BC36010870B40588D0
:100460000E884468D1F804C05368B54208D140886A
:100470004988884201BF11888D425188884203D043
:1004800070BC6FF00200704705FB00F1880827D0B0
:1004900094ED001ADCED000A94ED010ADCED011A7E
:1004A00031EE201AD4ED020A70EE211A9CED020AF8
:1004B00083ED001AC3ED011A94ED031ADCED031A63
:1004C00030EE800A401E71EE210A83ED020A04F12B
:1004D0001004C3ED030A03F110030CF1100CD7D183
:1004E00011F0030030D0B0F1004F30D200282BDDE6
:1004F000211F1B1FACF1040210F0010F0AD091ED77
:10050000010AD2ED010A091D121D30EE200A83ED09
:10051000010A1B1D400817D091ED010AD2ED010A16
:10052000401E30EE200A83ED010A91ED020AD2ED61
:10053000020A01F1080102F1080230EE200A83EDFF
:10054000020A03F10803E7D170BC00207047B4EC45
:10055000010A401EFCEC010A30EE200AA3EC010A5D
:10056000F5D1F1E701804280436070472DE9F34FF8
:1005700084B0049840680090486801900498B0F8EE
:1005800000E04588DFEDFE0A00200290B0EE600A30
:10059000AE4506D108884988884204BF7146864521
:1005A00004D06FF0020006B0BDE8F08F01985FEA5A
:1005B000010C18BFB7EE001A3DD000BFBEEB0C0116
:1005C00017D0B1F1004F80F01F82002911DD021F0A
:1005D00011F0010F1CBFC2ED010A121D4B1006D015
:1005E000C2ED010AC2ED020A08325B1EF8D100EB2F
:1005F0008100BCF10102A0EC011A19D0B2F1004F48
:1006000080F00882002A13DD031F12F0010F1CBFC7
:10061000C3ED010A1B1D511008D000BFC3ED010A34
:10062000C3ED020A491E03F10803F7D100EB820073
:10063000BCF1010CC2D14FF000080395002D14BF8E
:10064000B0EE602A002000F0BF8100BF009908FBD7
:1006500005F001EB800B0199DBED002A01EB800036
:100660000346F0EE421AC64552D9AEEB0802ABEB98
:10067000850112F0010F17D001EB850191ED000A01
:10068000B5EEC00AF1EE10FA07DDB4EEE10AF1EEC4
:1006900010FA09DDF0EE401A06E0B1EE400AF4EE81
:1006A000C01AF1EE10FAF5D3521031D001EB850CDF
:1006B0009CED000AB5EEC00AF1EE10FA05DDB4EECD
:1006C000E10AF1EE10FA09DD06E0B1EE400AF4EEBF
:1006D000C01AF1EE10FA01D2F0EE401A01EBC5019A
:1006E00091ED000AB5EEC00AF1EE10FA05DDB4EEA8
:1006F000E10AF1EE10FA09DD06E0B1EE400AF4EE8F
:10070000C01AF1EE10FA01D2F0EE401A521ECDD10D
:10071000F5EEC01AF1EE10FA00F07381F5EEC02A82
:100720000126F1EE10FA0099D4BFB1EE620AB0EEE4
:10073000620AB4EE610AF1EE10FA1CBFAEEB0802D9
:10074000B2F1010C47D005FB08F201EB820292EDF9
:10075000001A00BFB0EE410A05FB06F4B5EEC00A70
:1007600000EB8404F1EE10FACCBFF0EE400AF1EE9B
:10077000400AF4EE610AF1EE10FA28D1B5EB080C4C
:1007800011D0BCF1004F7DD2BCF1000F0BDD00BFDA
:1007900092ED000AD1ED000ABCF1010CE2EC010A75
:1007A000A1EC010AF4D129000ED0B1F1004F6AD2B8
:1007B000002909DD94ED000AD0ED000A491EE4ECA1
:1007C000010AA0EC010AF5D1012002900BE0761C91
:1007D000BCF1010CBED10298012804D0F5EEC02A6C
:1007E000F1EE10FA7ED09BED000AB5EB08009A46B8
:1007F0005946064622D0B0F1004F74D200281DDDC4
:10080000091F10F0010F06D0F0EE400A80EEA01A8A
:1008100081ED011A091D401010D000BFD1ED010A71
:10082000401E80EE801A81ED011A91ED021AC1EE90
:10083000000AC1ED020A01F10801EFD1280026D01B
:10084000B0F1004F7ED2002821DDAAF1040110F0A2
:10085000010F06D0D1ED010A80EE801A81ED011A58
:10086000091D401013D000BFD1ED010A401E80EEDB
:10087000801A81ED011AD1ED020A80EE801A81ED15
:10088000021A01E0CBE0D6E001F10801ECD1DDE98C
:1008900000124FF000095FEA0E0773D0C14504BF94
:1008A00001EB860102EB850274D091ED000ADC4673
:1008B0005046330035D01C46B6F1004F7ED2002C96
:1008C0002FDD0B1FABF1040C16F0010F0FD0F0EE73
:1008D000400ADCED011AB0EE601A00EEE11A83ED79
:1008E000011A01E08DE0B1E01B1D0CF1040C741045
:1008F00015D000BFD3ED010A9CED011A40EE410A6C
:10090000C3ED010AD3ED020A9CED021A0CF1080CAA
:1009100040EE410AC3ED020A0833641EEAD101EB3E
:1009200086012B0036D0B3F1004F72D2002B31DD9F
:10093000A2F1040CAAF1040013F0010F0CD0DCEDBD
:10094000010A00E08BE090ED011A001D40EE410A23
:10095000CCED010A0CF1040C5C1019D0DCED010A9D
:1009600090ED011A40EE410ACCED010ADCED020ADD
:1009700090ED021A083040EE410ACCED020A03E085
:10098000000000000DE005E0641E0CF1080CE5D14C
:1009900002EB830201EB88017F1E09F101097FF45C
:1009A0007DAF009808F10108001D00900398401EDB
:1009B00003907FF44BAE0299012900E058E004BF98
:1009C00006B0BDE8F08F00BFB5EEC00AF1EE10FA38
:1009D0007FF4E9AD04990EFB05F3002B4A684FF054
:1009E00000010BD902EB810C9CED000AB5EEC00AA8
:1009F000F1EE10FA02D1491C8B42F3D88B427FF4FE
:100A0000D2AD6FF00400CEE5E0EC010A491EFBD147
:100A1000EFE538E0E0EC010A521EFBD108E692ED6A
:100A2000000AD1ED000ABCF1010CE2EC010AA1ECD4
:100A3000010AF4D1B7E694ED000AD0ED000A491E90
:100A4000E4EC010AA0EC010AF5D1BDE6D1ED000A03
:100A5000401E80EE801AA1EC011AF7D1EEE6D3ED2C
:100A6000000A401E80EE801AA3EC011AF7D10EE7AF
:100A7000BCEC011AD1ED000A5B1E40EE410AE1EC2C
:100A8000010AF5D14DE7B0EC011AD2ED000A5B1E68
:100A900040EE410AE2EC010AF5D17BE72DE9F04F87
:100AA00082B0466853680193058847884B880020C8
:100AB00000900888874201BFB2F800C0654552889F
:100AC00093421EBF6FF0020002B0BDE8F08F9FEDB1
:100AD000412A4FEA970EC7F3400B00BFDDE9000241
:100AE00002EB800A4A6898464FF00009B0EE420ACD
:100AF000B4465FEA0E0025D092ED001ADCED001A34
:100B000002EB8302DCED010A01EE810A92ED001A8C
:100B100002EB8302401ED2ED001A02EB830200EECC
:100B2000810A9CED021ADCED030A00040CF1100CA2
:100B3000000C01EE210A92ED001A02EB830200EE96
:100B4000810AD9D117F0030026D0ACF10404A2EB3E
:100B5000830210F0010F08D002EB8302D4ED010AEA
:100B600092ED001A241D00EE810A5FEA0B0013D0FB
:100B700002EB830CD4ED010A9CED001A02EBC302D8
:100B8000401E00EE810AD4ED020A92ED001A04F133
:100B9000080400EE810AEBD109F10100AAEC010A78
:100BA0001FFA80F9486800EB8902A8F101001FFADA
:100BB00080F8B8F1000F99D1009806EB8706184429
:100BC00080B20090681E05042D0C87D102B0002071
:100BD000BDE8F08F0000000070B405880E884468FE
:100BE000D1F804C05368B54208D14088498888428A
:100BF00001BF11888D425188884203D070BC6FF0CC
:100C00000200704705FB00F1880827D094ED001A18
:100C1000DCED000A94ED010ADCED011A31EE601AF8
:100C2000D4ED020A70EE611A9CED020A83ED001AFF
:100C3000C3ED011A94ED031ADCED031A30EEC00A7D
:100C4000401E71EE610A83ED020A04F11004C3ED47
:100C5000030A03F110030CF1100CD7D111F00300BB
:100C600030D0B0F1004F30D200282BDD211F1B1FE8
:100C7000ACF1040210F0010F0AD091ED010AD2ED9F
:100C8000010A091D121D30EE600A83ED010A1B1DC9
:100C9000400817D091ED010AD2ED010A401E30EE56
:100CA000600A83ED010A91ED020AD2ED020A01F118
:100CB000080102F1080230EE600A83ED020A03F136
:100CC0000803E7D170BC00207047B4EC010A401E55
:100CD000FCEC010A30EE600AA3EC010AF5D1F1E761
:100CE0002DE9F04F02884768B0F802804888D1F8B3
:100CF000049082B04FF0000A1646824207BF09886E
:100D000088456FF0020002B018BFBDE8F08F4FEACF
:100D1000980B02EB42000190C8F34000CDF80000B0
:100D200009EB8A01BBF1000F33D0019801EB820C73
:100D300001EB80043B46E64601EBC2054FEA0B009F
:100D400093ED000A401E81ED000A93ED010A01EBCC
:100D500002118CED000A93ED020A0CEB021C85EDEA
:100D6000000A93ED030A05EB021584ED000A04EB7B
:100D7000021403F11003E3D10EEB820000EB8200BA
:100D800000EB8201ABF10100504307EB0B1701EBC5
:100D9000001118F0030C21D03B1FA1EB82011CF0C5
:100DA000010F06D093ED010A01EB82011B1D81EDBD
:100DB000000A009880B100BF93ED010A01EB8204A4
:100DC00001EBC20184ED000A93ED020A401E81EDA1
:100DD000000A03F10803EFD107EB8C070AF10100C9
:100DE0001FFA80FA701E0604360C99D102B000205A
:100DF000BDE8F08F70B5064600F06EF9056806F1A3
:100E00000B0020F00704B4429CBF002070BD2B46AD
:100E10006A68BAB11068A04210D304F10801884290
:100E20003CBF5068586007D3516810194160116881
:100E3000091B016058601460101D70BD1346526894
:100E4000002AE7D12146284600F04EF90028DED1DD
:100E500070BD53EA020C00F069802DE9F04B4FF0B1
:100E60000006002B1FBFB3FA83F503FA05F424FA3A
:100E700005F65E4012BF1643B2FA82F502FA05F497
:100E8000C5F120051EBF22FA05FC44EA0C042035FA
:100E900056EA044C4FEA144418BF641C4FF0000893
:100EA0004FF00009904271EB030C39D3002919BFB0
:100EB000B1FA81F701FA07F6B0FA80F700FA07F6FF
:100EC000C7F120071EBF20FA07FC46EA0C062037B0
:100ED000B6FBF4FCA7EB0507103F07F01F0BCBF1A7
:100EE00020060CFA0BFB2CFA06F644BFB34600268C
:100EF000202FA4BF5E464FF0000B5BEA060C08BF34
:100F00004FF0010B19EB0B09ABFB027C48EB060819
:100F1000C01B06FB02CC0BFB03CC71EB0C01C1E741
:100F20000B46024641464846BDE8F08B13B54FF0EC
:100F300000004FF00001AFF30080BDE81C40704797
:100F4000032A40F2308010F0030C00F0158011F8F5
:100F5000013BBCF1020F624498BF11F801CB00F8CD
:100F6000013B38BF11F8013BA2F1040298BF00F821
:100F700001CB38BF00F8013B11F0030300F02580DE
:100F8000083AC0F0088051F8043B083A51F804CB05
:100F9000A0E80810F5E7121D5CBF51F8043B40F8CB
:100FA000043BAFF30080D20724BF11F8013B11F8D6
:100FB00001CB48BF11F8012B24BF00F8013B00F81A
:100FC00001CB48BF00F8012B704710B5203AC0F0A4
:100FD0000B80B1E81850203AA0E81850B1E818503A
:100FE000A0E81850BFF4F5AF5FEA027C24BFB1E877
:100FF0001850A0E8185044BF18C918C0BDE81040E8
:101000005FEA827C24BF51F8043B40F8043B08BFF0
:101010007047D20728BF31F8023B48BF11F8012BB7
:1010200028BF20F8023B48BF00F8012B704702F0B0
:10103000FF0343EA032242EA024200F002B84FF003
:1010400000020429C0F0128010F0030C00F01B8095
:10105000CCF1040CBCF1020F18BF00F8012BA8BFA3
:1010600020F8022BA1EB0C0100F00DB85FEAC17C67
:1010700024BF00F8012B00F8012B48BF00F8012B1A
:1010800070474FF0000200B513469446964620394B
:1010900022BFA0E80C50A0E80C50B1F12001BFF431
:1010A000F7AF090728BFA0E80C5048BF0CC05DF897
:1010B00004EB890028BF40F8042B08BF704748BFE5
:1010C00020F8022B11F0804F18BF00F8012B704759
:1010D00070477047704700000048704740A10020EB
:1010E000704770477047704738B504460A4600207D
:1010F0006946AFF30080002808BF38BD024600995A
:10110000204600F075F8012038BD012000F0A2B89B
:10111000F8B5AFF30080054600200C46102000BF54
:101120000646A819A0420DD9324669460020AFF301
:101130000080070008BF00F08DF80098A04218BF9B
:101140000546C419FFF7C8FF05600746F01D20F0EB
:1011500007004619284600F00AF8B44208BFF8BD57
:10116000A21B31463868BDE8F84000F041B80021C4
:101170000160C0E9011070471020704770B5044647
:10118000051FFFF7A9FF0068002C14BF446870BD5D
:10119000002C18BFAC423CBF20466468F8D30168FD
:1011A0000A18AA4218BF456003D12A6805461144AF
:1011B000016028684119A1421CBF6C6070BD616864
:1011C000696021680844286070BD10B500F00CF813
:1011D000006810BD10B5044600F006F8046010BDAC
:1011E0000048704738A100200048704738A100200F
:1011F000034640688C46002818BF88423CBF03461F
:101200004068F8D318681844884207D00CF10300EE
:1012100020F00700001D411A521A0146081D0A60FD
:10122000FFF7ACBF1FB584B000200A9C06AB04AA30
:1012300002A90094AFF3008018B1DDE9020108B003
:1012400010BD0348204000F040F800200146F6E7BA
:101250000000207C10B500F03FF8BDE8104000F021
:101260002FB870477546FFF7BBFFAE4605006946CD
:10127000534620F00700854618B020B5FFF766F802
:10128000BDE820404FF000064FF000074FF0000887
:101290004FF0000B21F00701AC46ACE8C009ACE808
:1012A000C009ACE8C009ACE8C0098D46704710B56C
:1012B0000446AFF300802046BDE81040FEF7D1BFE2
:1012C000002801D000F030B8704710B500F04CF89D
:1012D000BDE81040FFF7F4BF10B5012805D000218C
:1012E00003A000F027F8012010BD09A1F8E70000D5
:1012F00053494752544D454D3A204F7574206F66FF
:101300002068656170206D656D6F72790000000066
:101310003A2048656170206D656D6F727920636F4A
:10132000727275707465640001491820ABBEFEE7E7
:101330002600020070B505460C460A2000E06D1C30
:1013400000F068F835B128780028F8D102E0641C74
:1013500000F060F814B120780028F8D1BDE87040A2
:101360000A2000F057B8000010B5022803D0410150
:1013700003D50DA112E0002010BD010101D50FA180
:101380000CE0C10001D511A108E0810001D512A136
:1013900004E0400001D513A100E0002115A0FFF7F3
:1013A000C9FF012010BD0000496E76616C696420A0
:1013B0004F7065726174696F6E00000044697669F0
:1013C0006465204279205A65726F00004F7665721D
:1013D000666C6F7700000000556E646572666C6F16
:1013E00077000000496E65786163742052657375FB
:1013F0006C7400005349474650453A204172697465
:10140000686D6574696320657863657074696F6E73
:101410003A20000008B569468DF800000320ABBEF5
:1014200008BD000010B501221021024802F004FAA4
:1014300010BD00000000024010B50022102102483B
:1014400002F0FAF910BD00000000024010B50122C0
:101450001146024802F0F0F910BD000000040240FD
:1014600010B500220121024802F0E6F910BD00008B
:101470000004024010B50446FFF7DEFF922000F0A2
:10148000A3F906229549122000F07EF9FFF7CAFF62
:1014900092484078000200B2904909780843904988
:1014A00008800846B0F9000000EE100AB8EEC00A45
:1014B0008C48D0ED000A20EE200AD4ED080A20EE78
:1014C000200A84ED000A8548C078000200B28349F2
:1014D00089780843824908800846B0F9000000EE88
:1014E000100AB8EEC00A7F48D0ED000A20EE200AAC
:1014F000D4ED080A20EE200A84ED010A77484079ED
:10150000000200B275490979084375490880084608
:10151000B0F9000000EE100AB8EEC00A7148D0ED34
:10152000000A20EE200AD4ED080A20EE200A84EDFD
:10153000020AFFF795FF08226849002000F024F90D
:10154000FFF784FF654800780F284FD16648007880
:10155000F0B36248C078000200B26049897808435D
:101560005F49088094ED090A0846B0F9000000EED2
:10157000900AF8EEE00A5D4890ED001A10EE810A3C
:1015800084ED030A55484079000200B253490979B5
:1015900008435349088094ED0A0A0846B0F9000050
:1015A00000EE900AF8EEE00A504890ED001A10EEB6
:1015B000810A84ED040A4948C079000200B2474913
:1015C000897908434649088094ED0B0A084600E0F3
:1015D0000DE0B0F9000000EE900AF8EEE00A434892
:1015E00090ED001A10EE810A84ED050A44E03B48B4
:1015F000C078000200B23949897808433849088028
:101600000846B0F9000000EE100AB8EEC00A3748EC
:10161000D0ED000A20EE200A84ED030A2F4840791D
:10162000000200B22D49097908432D490880084677
:10163000B0F9000000EE100AB8EEC00A2B48D0ED59
:10164000000A20EE200A84ED040A2448C079000232
:1016500000B2224989790843214908800846B0F937
:10166000000000EE100AB8EEC00A2048D0ED000AD3
:1016700020EE200A84ED050AFFF7DEFEA22000F02E
:10168000A3F802221549222000F07EF8FFF7CAFED7
:1016900012480078C0001149497840EA61101049A9
:1016A00008800846B0F90000B0F5806F05DB0846F9
:1016B0000088A0F5006000B208800948B0F9000079
:1016C00000EE100AF8EEC00AB4EE001AB3EE070AF4
:1016D00000EE810A84ED070A10BD0000160200200A
:1016E0001E020020D8010020E8010020DC010020BB
:1016F00070B504460D461C48046000201B49087064
:101700000BF0AAFC194909780843184908700BF036
:1017100059FD164909780843144908701DB1144849
:1017200000F090FA1CE09FED130A114880ED090AC1
:101730009FED110A80ED0A0A9FED0F0A80ED0B0A5A
:101740009FED0E0A80ED0C0A90ED0C0ADFED0C0AFD
:1017500080EE801A80ED081A9FED0A0A80ED060AD5
:101760000248007870BD000020020020E201002045
:101770005C3C0020AC38223BB016CE393F161B41F2
:10178000C3F51C410000204270B506460C461546C4
:1017900046F0800000F018F806E0552000F014F83C
:1017A0002070641C681EC5B2002DF6D170BD70B5E6
:1017B00004460D4644F0800000F006F8552000F085
:1017C00003F8287070BD000001B582B04FF47A7044
:1017D000012301AA02A900900348006803F054FD08
:1017E0009DF804000EBD00002002002070B50546E3
:1017F0000C462846FFF7E8FF2046FFF7E5FF70BDDF
:10180000D2ED020A92ED021AB6EE000A00EEC10A0B
:10181000D2ED030A92ED031A00EEC10AD0ED000AE0
:1018200020EE200AD2ED010A92ED021A60EE810A42
:1018300092ED001AD2ED031A41EE610A90ED011A01
:1018400000EE810AD2ED010A92ED031A60EE810AE0
:1018500092ED001AD2ED021A41EE210A90ED021A21
:1018600000EE810AF0EE000A20EE200A81ED000A67
:1018700092ED010AD2ED020A20EE200AD2ED000A12
:1018800092ED031A00EE810AD0ED000A60EE200A04
:1018900092ED011AD2ED011AB6EE000A01EE610ACC
:1018A000D2ED031A92ED032AB0EE401A01EEC21AED
:1018B000D0ED011AB0EE600A01EE210AD2ED020A63
:1018C00092ED031A60EE810A92ED001AD2ED011A30
:1018D00041EE610A90ED021A00EE810AF0EE000A74
:1018E00020EE200A81ED010A92ED010AD2ED030AF1
:1018F00020EE200AD2ED000A92ED021A00EEC10A93
:10190000D0ED000A20EE200AD2ED020A92ED031A71
:1019100060EE810A92ED001AD2ED011A41EE210A21
:1019200090ED011A00EE810A92ED011AD2ED011A32
:10193000F6EE000A41EE610A92ED021AD2ED021AA9
:1019400041EE610A90ED021A00EE810AF0EE000A03
:1019500020EE200A81ED020A704700BFFEE700007A
:1019600010B5024801F06AF810BD0000480D0020D3
:1019700010B5024801F062F810BD0000700D0020A3
:10198000F8B507460C4615461E464FF400700D4943
:10199000086000208860C86008200861380A0A4989
:1019A00008704F70200A8870CC70280A08714D7139
:1019B000300A8871CE716B460A460249034800F02E
:1019C0005DFEF8BD502F0020F8000020480D0020DB
:1019D000F8B507460C4615461E4640F2FF100D4965
:1019E000086000208860C86008200861380A0A4939
:1019F00008704F70200A8870CC70280A08714D71E9
:101A0000300A8871CE716B460A460249034800F0DD
:101A100035FEF8BD382F0020F0000020480D0020D2
:101A200010B52DED048B0446207855286ED16078D2
:101A300053286BD1A078012820D1E0790006A27943
:101A400040EA0240627940EA02202279104300EE27
:101A5000100AB8EEC00A10EE101A084610F0F2FF95
:101A600041EC190B9FED2B0B53EC102B10F066F98A
:101A700041EC180B0FF0DAFE28490860A078022824
:101A800020D1E0790006A27940EA0240627940EA7A
:101A900002202279104300EE100AB8EEC00A10EEC0
:101AA000101A084610F0CEFF41EC190B9FED190BF0
:101AB00053EC102B10F042F941EC180B0FF0B6FE6E
:101AC00016494860A078032820D1E0790006A27961
:101AD00040EA0240627940EA02202279104300EE97
:101AE000100AB8EEC00A10EE101A084610F0AAFF4D
:101AF00041EC190B9FED070B53EC102B10F01EF966
:101B000041EC180B0FF092FE04498860BDEC048B89
:101B100010BD00000000000000408F40682F002032
:101B200008B501788DF8001041788DF801108178A2
:101B30008DF80210C1788DF803109DED000A05495B
:101B400081ED000A4179027941EA0221014A91803E
:101B500008BD0000040100200178014A117070479F
:101B6000000100200346042B15D007DC7BB1012BBC
:101B70000ED0022B0DD0032B12D10BE0202B0BD05B
:101B8000212B0AD0222B09D0232B09D107E008E012
:101B900007E006E005E004E003E002E001E000E029
:101BA00000BF00BF002070470020704710B5002222
:101BB0000449054809F01AF90449034809F008F9ED
:101BC000002010BDAC260020CC120020AC1E00204E
:101BD00070B504460D46282221460748FFF7B0F9A4
:101BE0000EF056FE2146054809F0F2F8034809F0C8
:101BF000BFF8002070BD0000F13A0020CC12002098
:101C000010B503460C460021084610BD2DE9F041F1
:101C100004460D4600260A48D0F8BC72D7F81402D4
:101C200010B10120BDE8F0812A462146044809F0A0
:101C3000DDF8034809F072F906463046F2E7000085
:101C4000CC12002070B52DED048B88B00446002026
:101C50000690079000F05CFBFE4880ED000A00BF94
:101C600000F056FBFB48D0ED000A30EE600AF2EEC1
:101C7000040AB4EEE00AF1EE10FA14DD9FEDF60A64
:101C800084ED090A9FEDF50A84ED0A0A9FEDF30A37
:101C900084ED0B0A9FEDF20A84ED0C0A9FEDF10A28
:101CA00084ED060A55E29FEDF00A00F0EDFA9FED93
:101CB000EF0A84ED0C0A9FEDED0A84ED090A9FED11
:101CC000EB0A84ED0A0A9FEDE90A84ED0B0A00266F
:101CD00073E1FFF7B1FB9220FFF776FD062206A91C
:101CE0001220FFF751FDFFF79DFB9DF81900000240
:101CF00000B29DF8181040EA010500EE105AB8EE47
:101D0000C00ADB48D0ED000A20EE200A84ED000A6C
:101D10009DF81B00000200B29DF81A1040EA010570
:101D200000EE105AB8EEC00AD148D0ED000A20EEFD
:101D3000200A84ED010A9DF81D00000200B29DF802
:101D40001C1040EA010500EE105AB8EEC00AC8485F
:101D5000D0ED000A20EE200A84ED020AD4ED000A3C
:101D600060EEA00A94ED011AD4ED011A41EE210AA9
:101D700094ED021AD4ED021A41EE210AB0EE600A87
:101D80000BF0EEF8B0EE408A94ED0C0A30EE080A43
:101D900084ED0C0AFFF764FB082206A90020FFF778
:101DA000F3FCFFF753FB9DF818000F2850D19DF866
:101DB0001B00000200B29DF81A1040EA010500EE77
:101DC000105AB8EEC00AAB48D0ED000A20EE200A47
:101DD00084ED030A94ED090AD4ED030A30EE200ADB
:101DE00084ED090A9DF81D00000200B29DF81C1048
:101DF00040EA010500EE105AB8EEC00A9D48D0ED49
:101E0000000A20EE200A84ED040A94ED0A0AD4EDBB
:101E1000040A30EE200A84ED0A0A9DF81F00000231
:101E200000B29DF81E1040EA010500EE105AB8EE0F
:101E3000C00A9048D0ED000A20EE200A84ED050A81
:101E400094ED0B0AD4ED050A30EE200A84ED0B0A5E
:101E500006BBF0EE488AB0EE489A002017E004F185
:101E60000C0101EB800191ED000A03A901EB800157
:101E700081ED000A04F10C0101EB800191ED000AF3
:101E8000694601EB800181ED000A411CC8B20328BC
:101E9000E5DB49E0B4EEE88AF1EE10FA01DDF0EEA0
:101EA000488AB4EEC98AF1EE10FA01D2B0EE489A2F
:101EB000002037E004F10C0101EB800191ED000AF4
:101EC00003A901EB8001D1ED000AB4EEE00AF1EEC6
:101ED00010FA0ADD04F10C0101EB800191ED000A1A
:101EE00003A901EB800181ED000A04F10C0101EB73
:101EF000800191ED000A694601EB8001D1ED000AF5
:101F0000B4EEE00AF1EE10FA0AD204F10C0101EB92
:101F1000800191ED000A694601EB800181ED000A24
:101F2000411CC8B20328C5DB38EEC90A524880ED0F
:101F3000000A002012E003A901EB800191ED000AE4
:101F4000694601EB8001D1ED000A30EE600A4B4991
:101F500001EB800181ED000A411CC8B20328EADBD5
:101F6000454890ED000AF6EE000AB4EEE00AF1EE04
:101F700010FA1BDC414890ED000ADFED410AB4EE97
:101F8000E00AF1EE10FA11DC90ED010ADFED3C0AF7
:101F9000B4EEE00AF1EE10FA08DC90ED020ADFED93
:101FA000380AB4EEE00AF1EE10FA00DD0AE09FED27
:101FB000350A00F069F9701C86B233480088864201
:101FC000FFF687AE00BFD4ED0C0A2F48008800EE64
:101FD000100AB8EE400A80EE801A84ED0C1A002038
:101FE00015E004F1240101EB8001D1ED000A26493E
:101FF000098800EE101AB8EE400A80EE801A04F14B
:10200000240101EB800181ED001A411CC8B20328B4
:10201000E7DBFFF711FAA220FFF7D6FB022206A9A1
:102020002220FFF7B1FBFFF7FDF99DF81800C00073
:102030009DF8191040EA6115B5F5806F02DBA5F532
:10204000006005B200EE105AF8EEC00AB4EE001AB5
:102050001CE0000010020020AC38223BB016CE3944
:102060003F161B41000020420AD7A33B000000009E
:10207000D8010020DC010020E4010020503C0020B9
:102080009A99193E6F12033A14020020B3EE070A20
:1020900000EE810A84ED060A34480088401C00B234
:1020A00032490880324890ED000AF6EE000AB4EE9C
:1020B000E00AF1EE10FA3FF7D3AD94ED0C0ADFED34
:1020C0002D0A30EE600AB0EEC00AF6EE000AB4EE59
:1020D000E00AF1EE10FAEEDC274890ED000A5FED21
:1020E000180AB4EEE00AF1EE10FAE4DC90ED010A11
:1020F0005FED1D0AB4EEE00AF1EE10FADBDC90EDC4
:10210000020A5FED210AB4EEE00AF1EE10FAD2DC29
:1021100094ED090AB0EEC00ADFED180AB4EEE00A49
:10212000F1EE10FAC7DC94ED0A0AB0EEC00ADFED5A
:10213000130AB4EEE00AF1EE10FABCDC94ED0B0ADF
:10214000B0EEC00ADFED0D0AB4EEE00AF1EE10FACF
:10215000B1DC00BF94ED0C0ADFED090A80EE801AB5
:1021600084ED081A08B0BDEC048B70BDEA010020B4
:10217000E4010020CDCC1C41503C00200AD7233C78
:10218000C3F51C4110B5024801F0B2F810BD0000C3
:102190000C12002010B5024801F0AAF810BD000092
:1021A0006C12002001680A4BCAB2103AA3FB02323B
:1021B0001209084B9B5CC365032A04D96FF309011C
:1021C000091D816502E06FF309018165806D70472B
:1021D000ABAAAAAAB2360108014600208A6A8B6916
:1021E000002B0FD0B3F5005F1DD08AB3012A30D089
:1021F000022A2ED0032A04D1C96A11F0807F00D0B0
:10220000012070471AB1012A07D0022AF9D1C96A00
:1022100011F0807FF5D001207047C96AB1F1C07F0D
:10222000FAD1012070475AB1012A0BD0022A07D0F7
:10223000032AF7D1C96AB1F1C07FF3D101207047F9
:1022400001207047C96A11F0807FFAD001207047E1
:10225000FFE701207047000008B50848406800907B
:10226000074900980968884204D206480068401C63
:102270000449086002490098086008BD001000E0A9
:10228000C8000020C40000200C494868F0EE400A55
:1022900000BF0A494968091A01EE101AF8EE411AFE
:1022A000074991ED001AB8EE411A20EE811AF4EEBA
:1022B000C11AF1EE10FAECD370470000001000E0F4
:1022C000B800002010B52DED028B82B004460E48F8
:1022D0004068019020680199081A00EE100AF8EE93
:1022E000400A0A4890ED000AB8EE400A80EE801AD3
:1022F000B0EE418A01982060FFF7AEFFB0EE480AC9
:1023000002B0BDEC028B10BD001000E0B800002050
:1023100010B52DED028B00F059F80F4890ED000A32
:10232000B8EE400A808800EE900AF8EE600A9FED51
:102330000B1A00EE810A0848C08800EE900AF8EEF9
:10234000600A9FED071A00EE810AB0EE408AB0EEF7
:10235000480ABDEC028B10BDB00000206F12833A1A
:10236000BD3786351249096841F08071104A116005
:102370000021104A51601146096841F001011160C5
:102380000D4941430D4A1160114609684FF47A72B4
:10239000B1FBF2F10A4A116008490968064AB1FB2B
:1023A000F2F1084A11600021074A116070470000ED
:1023B000FCED00E0001000E040420F00B8000020FB
:1023C000BC000020C0000020C400002038B529480F
:1023D00040680090FFF740FF274800684FF0FF314A
:1023E000A0FB01310098181841F10001234A03C2F3
:1023F000234800232149026803C9FEF72AFD214A28
:1024000003C220480CC81E4800680024A2FB001527
:1024100003FB005002FB04021848D0E90030591AAF
:1024200060EB0200184AC2E900101648006817491C
:102430000860174800231449026803C9FEF709FD24
:1024400012498880084680881149096841430E482E
:10245000D0E90030591A60F100000E4AC2E90010BC
:102460000D4800230B49026803C9FEF7F2FC074937
:10247000C88038BD001000E0C4000020D00000205B
:10248000B8000020D8000020E0000020B0000020AC
:10249000BC000020E8000020C0000020704710B5FC
:1024A000012001F0A7F810BD10B5082001F0A2F836
:1024B00010BD10B5102001F09DF810BD10B5202002
:1024C00001F098F810BDD2ED020A92ED021AB6EEB4
:1024D000000A00EEC10AD2ED030A92ED031A00EEE3
:1024E000C10AD0ED000A20EE200AD2ED010A92EDD9
:1024F000021A60EE810A92ED001AD2ED031A41EE43
:10250000210A90ED011A00EE810AD2ED010A92ED46
:10251000031A60EE810A92ED001AD2ED021A41EE22
:10252000610A90ED021A00EE810AF0EE000A20EE38
:10253000200A81ED000A92ED010AD2ED020A20EE96
:10254000200AD2ED000A92ED031A00EEC10AD0ED86
:10255000000A60EE200A92ED011AD2ED011AB6EEE1
:10256000000A01EE610AD2ED031A92ED032AB0EEE1
:10257000401A01EEC21AD0ED011AB0EE600A01EE67
:10258000210AD2ED020A92ED031A60EE810A92ED61
:10259000001AD2ED011A41EE210A90ED021A00EE66
:1025A000810AF0EE000A20EE200A81ED010A92ED88
:1025B000010AD2ED030A20EE200AD2ED000A92EDC4
:1025C000021A00EE810AD0ED000A20EE200AD2EDB8
:1025D000020A92ED031A60EE810A92ED001AD2ED22
:1025E000011A41EE610A90ED011A00EE810A92EDA6
:1025F000011AD2ED011AF6EE000A41EE610A92EDDF
:10260000021AD2ED021A41EE610A90ED021A00EEB2
:10261000810AF0EE000A20EE200A81ED020A7047DE
:102620007047000070B50A480468001D0568001D69
:102630000668344454B108220649204605F012FBCE
:10264000042204491031284605F00CFB70BD00003F
:10265000107AFF1F6A00002090F82020012A07D07E
:10266000022A05D0416A41F480214162012070476D
:1026700000684269114341610020704770B490F8CE
:102680002040D0F800C0DCF808C0012C08D0022C93
:1026900006D0416A41F48021416270BC012070473C
:1026A0000CF080640CF000652C4302D11CF0805FBC
:1026B00055D0CCF3016C012404FA0CF41C608B6837
:1026C0004FF4C0749BB1CD6804EB0C162B434D68DE
:1026D00043EAC5030568AB514FF4C273066803EBC8
:1026E0000C130D69F550097D012909D00DE00D8805
:1026F000CB6804EB0C1643EA45530568AB51EBE796
:102700000168CD5845F48075CD501179D37955794C
:1027100041EA036193791B0443EA052319434FF40B
:10272000C675036805EB0C1559511178D37841EA49
:102730000361937852781B0443EA022211434FF459
:10274000C473026803EB0C13D150016804EB0C1046
:102750000A5842F001020A5070BC00207047416ADA
:1027600041F40011416270BC0120704790F82020B4
:10277000012A07D0022A05D0416A41F48021416232
:10278000012070474248D0F8002242F00102C0F810
:102790000022D0F8002222F47C52C0F80022D0F8A7
:1027A00000224B6A42EA0322C0F800220A7D01237C
:1027B00002F01F0203FA02F2D0F81C329343C0F871
:1027C0001C32CB69D3B9D0F80C329343C0F80C3229
:1027D000B1F80CC04B686CF31F43D1F814C000EB88
:1027E000CC0CCCF84032B1F808C00B686CF31F4336
:1027F000D1F814C000EBCC0CCCF84432CB69012BDF
:102800001AD1D0F80C321343C0F80C32B1F800C022
:102810004B686CF31F43D1F814C000EBCC0CCCF820
:102820004032B1F808C0CB686CF31F43D1F814C034
:1028300000EBCC0CCCF844328B697BB1D0F804327D
:102840001343C0F804320B6973B1D0F81432134348
:10285000C0F81432096A01290CD010E0D0F8043213
:102860009343C0F80432EEE7D0F814329343C0F833
:102870001432EFE7D0F81C121143C0F81C12D0F844
:10288000001221F00101C0F8001200207047000082
:1028900000640040704730B490F820C0BCF1010FD4
:1028A00009D0BCF1020F06D0416A41F48021416297
:1028B00030BC0120704739B1D0F800C0DCF810C03E
:1028C0001CF0030F33D006E0D0F800C0DCF80CC0D9
:1028D0001CF0030F24D04FF4D87C04680CEB011CCF
:1028E00054F80C4004F0040494603CB3046854F8B9
:1028F0000C40E4085460046854F80CC00CF0020C5E
:10290000C2F80CC04FF4DA7C04680CEB011C54F8DC
:102910000C5005F00F05082D16D30824146118E09B
:10292000416A41F40011416230BC01207047416AA4
:1029300041F40011416230BC01207047046854F832
:102940000C40640D1460D6E754F80C4004F00F04FA
:102950001461046854F80C40C4F3072494610468BB
:1029600054F80CC04FEA1C4CC2F814C04FF4DC728F
:10297000D0F800C002EB01125CF802C083F800C07E
:10298000D0F800C05CF802C04FEA1C2C83F801C0EC
:10299000D0F800C05CF802C04FEA1C4C83F802C0BB
:1029A000D0F800C05CF80220120EDA704FF4DE722C
:1029B000D0F800C002EB01125CF802C083F804C03A
:1029C000D0F800C05CF802C04FEA1C2C83F805C0A8
:1029D000D0F800C05CF802C04FEA1C4C83F806C077
:1029E000D0F800C05CF80220120EDA7139B100682C
:1029F000016941F02001016130BC0020704700688E
:102A0000C16841F02001C160F6E70246002092F85B
:102A10002010012901D002290FD111688A6812F013
:102A2000806F00D001208A6812F0006F00D0401C37
:102A3000896811F0805F00D0401C70472DE9F05F7D
:102A40000546002428684669D0F804908768D0F8C5
:102A50000CA0D0F810B0D0F8188016F0010F54D0A8
:102A600017F0010F17D00121816017F0020F03D07A
:102A7000284600F0A7FB0EE017F0040F02D04FF439
:102A8000006408E017F0080F02D04FF4805402E011
:102A9000284600F096FB17F4807F19D029684FF480
:102AA0008070886017F4007F03D0284600F08CFB0C
:102AB0000EE017F4806F02D044F4005408E017F4DD
:102AC000006F02D044F4804402E0284600F07BFB13
:102AD00017F4803F19D029684FF48030886017F4CC
:102AE000003F03D0284600F071FB0EE017F4802F62
:102AF00002D044F4004408E017F4002F02D044F45C
:102B0000803402E0284600F060FB16F0080F07D082
:102B10001AF0100F04D044F4007429681020C86023
:102B200016F0040F4FF0080707D01AF0080F04D072
:102B30002868C760284600F0FFF916F0020F07D09A
:102B40002868C06810F0030F02D0284600F0F6F99C
:102B500016F0400F07D01BF0100F04D044F480642F
:102B600029681020086116F0200F07D01BF0080F0D
:102B700004D028680761284600F0EEFA16F0100F1E
:102B800007D02868006910F0030F02D0284600F033
:102B9000E4FA16F4003F08D019F0100F05D02968A8
:102BA00010204860284600F0D9FA16F4803F07D07C
:102BB00019F0080F04D028684760284600F007FB8A
:102BC00016F4004F4AD019F0040F44D016F4807F59
:102BD00004D018F0010F01D044F0010416F4007F76
:102BE00004D018F0020F01D044F0020416F4806FF4
:102BF00004D018F0040F01D044F0040416F4006F60
:102C000029D018F0700F26D008F07000402815D099
:102C100006DC102809D020280AD0302816D10AE076
:102C200050280ED0602811D10EE044F008040DE0C9
:102C300044F010040AE044F0200407E044F04004AB
:102C400004E044F0800401E044F480742868816961
:102C500021F070018161296804204860002C05D0B2
:102C6000686A204368622846FFF714FEBDE8F09FBB
:102C700070B50446002C03D094F8200010B104E095
:102C8000012070BD204600F0A7F82068016841F0DF
:102C90000101016000F0D8FD0546206840684FF052
:102CA000050610F0010F11D100F0CEFD401B0A28DF
:102CB00007D9606A40F40030606284F82060012027
:102CC00070BD2068406810F0010FEDD020680168E9
:102CD00021F00201016000F0B7FD05462068406860
:102CE00010F0020F11D000F0AFFD401B0A2807D9E9
:102CF000606A40F40030606284F82060012070BD9A
:102D00002068406810F0020FEDD1207E01283FD0EE
:102D10002068016821F080010160607E01283DD0BB
:102D20002068016821F040010160A07E01283BD0AD
:102D30002068016821F020010160E07E012839D07F
:102D40002068016841F010010160207F012837D020
:102D50002068016821F008010160607F012835D0FA
:102D60002068016821F004010160E168A0686269DF
:102D700008432169114308436168491E08432168DB
:102D8000C86100206062012084F82000002070BD2E
:102D90002068016841F080010160BEE72068016899
:102DA00041F040010160C0E72068016841F0200166
:102DB0000160C2E72068016821F010010160C4E7EA
:102DC0002068016841F008010160C6E720680168D9
:102DD00041F004010160C8E710B586B00446142133
:102DE00001A8FEF74EF94E492068884241D14D486E
:102DF0000068401C4B4908600846006801280FD154
:102E000000BF002000904848006840F0007046492C
:102E100008600846006800F00070009000BF00BF26
:102E200000BF0020009040481038006840F00800C3
:102E30003D49103908600846006800F0080000901D
:102E400000BF00BF032001900220029000200390E9
:102E5000032004900920059001A9344800F0D6FB16
:102E600000220621142000F0ABFE142000F09AFE90
:102E700054E02F492068884250D100BF00200090C4
:102E80002948006840F080602749086008460068CB
:102E900000F08060009000BF00BF22480068401C26
:102EA000204908600846006801280FD100BF0020B3
:102EB00000901D48006840F000701B4908600846FB
:102EC000006800F00070009000BF00BF00BF00204D
:102ED000009015481038006840F00200124910397F
:102EE00008600846006800F00200009000BF00BFC4
:102EF00060200190022002900020039003200490A3
:102F00000920059001A90B4800F080FB0022062152
:102F1000402000F055FE402000F044FE06B010BDF9
:102F2000006400402800002040380240000C0240AD
:102F300000680040000402407047000010B58AB0ED
:102F4000044601AB03AA00212046FFF7A4FC7E48FB
:102F500084427DD10398B0F5017F15D009DC60284B
:102F600077D0A0F2012060B101280BD0022871D1E6
:102F700009E0A0F2062040B1012807D00228F6D1CE
:102F800005E000BF00BF00BF00BF00BF00BF039847
:102F9000401E6E4908700846007800EB80006C49BE
:102FA00031F8200000B26949097801EB8101684AD3
:102FB00002EB810108819DF805009DF8041040EAAC
:102FC00001206249097801EB810122F821009DF876
:102FD00007009DF8061040EA012000B25B4909781D
:102FE00001EB810102EB810148809DF809009DF809
:102FF000081040EA012000B25449097801EB810130
:1030000002EB810188809DF80A005049097801EBA4
:10301000810102EB810188714C48007800EB80004F
:10302000114631F820004949097801EB810102EB92
:103030008101B1F90810401AB0F5805F14DD4348F2
:10304000007800EB8000114601EB8000006902E08F
:1030500065E05EE061E0401E3C49097801EB8101DA
:1030600002EB8101086123E03848007800EB800022
:10307000374931F820003549097801EB8101344A9C
:1030800002EB8101B1F90810401A10F5805F0FDAE8
:103090002E48007800EB8000114601EB80000069AB
:1030A000401C2A49097801EB810102EB810108618A
:1030B0002649097801EB8101254A32F821104FF4A5
:1030C000B47201FB02F0C11700EBD14149131F4A52
:1030D000127802EB82021E4B03EB82021269C2EBF2
:1030E000021202EB420201EBC20100EE101AB8EE2E
:1030F000C00A1649097801EB81011A4602EB8101E9
:1031000081ED030A11490978491CC8B20BF0D2F8C5
:1031100004E001A8FEF784FC00E000BF12E00D48C7
:1031200084420FD10398052802D0062808D103E075
:1031300001A8FEF711FD04E001A8FEF7F1FC00E094
:1031400000BF00BF0AB010BD480D00200C010020D8
:10315000AC2E0020700D002070477047704770B58E
:10316000044694F82000012805D0606A40F400204D
:103170006062012070BD022084F820002068016890
:1031800021F00101016000F05FFB05462068406806
:1031900010F0010F12D000F057FB401B0A2808D98D
:1031A000606A40F400306062052084F8200001204D
:1031B00070BD2068406810F0010FECD10020606203
:1031C00070BD7047704770477047704770477047D1
:1031D00010B50446002C02D0607910B106E0012041
:1031E00010BD00202071204600F004F8012060711D
:1031F000002010BD08B50A4A016891420FD100BFF6
:10320000002100910749096841F48051054A116085
:103210001146096801F48051009100BF00BF08BD4C
:1032200000300240303802402DE9F0410446A66DDE
:1032300000F00AFB054694F835000027022806D066
:103240008020606584F834700120BDE8F08120683A
:10325000016821F0160101602068416921F08001B8
:103260004161206C08B9A06C20B12068016821F090
:10327000080101602068016821F0010101602068F7
:10328000006810F0010F12D000F0DEFA401B052894
:1032900008D920206065032084F8350084F8347054
:1032A000BDE8F0812068006810F0010FECD194F8BF
:1032B0005C003F2101FA00F0B060012084F8350085
:1032C00084F834700020BDE8F08190F835100229B0
:1032D00003D08021416501207047052180F8351019
:1032E0000068016821F001010160002070470000C2
:1032F0002DE9F84304464FF00008CDF800807648E9
:103300004FF416510068B0FBF1F7A56D2E6894F8E4
:103310005C00082101FA00F0304211D020680268F8
:1033200012F0040F0CD0026822F00402026094F83C
:103330005C0001FA00F0A860606D40F0010060657B
:1033400094F85C004FF0010909FA00F0304209D00E
:103350002168496911F0800F04D0A860606D40F0C9
:103360000200606594F85C1004208840304209D067
:103370002168096811F0020F04D0A860606D40F068
:103380000400606594F85C1010208840304224D01E
:103390002168096811F0080F1FD0A8602068016833
:1033A00011F4802F0DD0006810F4002F04D0A16C10
:1033B00099B12046884710E0216C71B120468847BA
:1033C0000BE0016811F4807F03D1016821F008014E
:1033D0000160216C09B12046884794F85C102020D8
:1033E0008840304251D02168096811F0100F4CD04C
:1033F000A86094F8350005280DD02068016811F404
:10340000802F32D0006810F4002F29D0E16B59B31F
:103410002046884739E02068016821F016010160E4
:103420002068416921F080014161206C08B9A06CDD
:1034300020B12068016821F00801016094F85C0067
:103440003F2101FA00F0A86084F8359084F83480B8
:10345000216D00293ED001B02046BDE8F043084769
:10346000616C09B1204688470FE0016811F4807F44
:1034700007D1016821F01001016084F8359084F8CB
:103480003480E16B09B120468847606D002821D067
:10349000606D10F0010F15D0052084F8350020680C
:1034A000016821F0010101600098401C0090B842C1
:1034B00004D82068006810F0010FF5D184F8359029
:1034C00084F83480E16C002904D001B02046BDE8C6
:1034D000F0430847BDE8F883980000202DE9F0414B
:1034E000044600F0B1F90546DCB1022084F835004D
:1034F000002684F834602068016821F00101016031
:103500002068006810F0010F13D000F09DF9401BF7
:10351000052809D920206065032084F83500BDE81E
:10352000F0810120BDE8F0812068006810F0010FF3
:10353000EBD121680868234A1040A3686268D4F878
:1035400010C01A43E36843EA0C031A4363691A4341
:10355000A3691A43E3691A43236A1A431043626A50
:10356000042A03D1236BE26A1A43104308602068DF
:10357000406920F00701606A40EA0105012704283C
:103580000ED1A06A0543E06A50B12046FEF724FE42
:1035900030B14020606584F835700120BDE8F081CD
:1035A000206845612046FEF7FDFD94F85C103F223F
:1035B00002FA01F18160666584F835700020BDE88B
:1035C000F08100003F8010F070B5044600F03CF937
:1035D0000546B4F1FF3F02D004480078044400F0EF
:1035E00033F9401BA042FAD370BD000088050020CB
:1035F0007047000010B504490A68024202D0086012
:10360000FFF7F6FF10BD0000143C01402DE9F84F14
:103610000022DFF818A2DFF810924FF0010E032706
:103620004FF00F08AAF1040B0EFA02FC0B6803EA34
:103630000C0363457DD10C7904F00304012C01D007
:10364000022C14D18568540007FA04F6B543CE68FD
:1036500006FA04F42C438460446824EA0C0C0C79C8
:10366000C4F30014944044EA0C0CC0F804C0D1F830
:1036700004C037EA0C0C0CD0C4684FEA420C07FABD
:103680000CF5AC438D6805FA0CFC4CEA040CC0F850
:103690000CC091F804C00CF0030CBCF1020F12D165
:1036A0004FEAD20C00EB8C04256A4FEA427C4FEAC9
:1036B000DC6C08FA0CF6B5430E6906FA0CFC4CEA11
:1036C000050CC4F820C004684FEA420C07FA0CF558
:1036D000AC430D7905F0030505FA0CFC4CEA040C2B
:1036E000C0F800C0D1F804C01CF4403F7DD0D9F828
:1036F00000C04CF4804CC9F800C0D9F800C00CF4EC
:10370000804CCDF800C022F0030C0CF1804505F58B
:103710009835D5F808C89407240F08FA04F62CEA5F
:103720000606A0F1804CBCF5003C64D0A0F1804CB2
:1037300000E05AE0BCF5013C60D0A0F1804CBCF543
:10374000023C5ED0A0F1804CBCF5033C5CD0A0F103
:10375000804CBCF5043C5AD0A0F1804CBCF5053C33
:1037600058D0A0F1804CBCF5063C56D0A0F1804C5E
:10377000BCF5073C54D04FF0080C0CFA04FC4CEAA2
:10378000060CC5F808C8DAF800C02CEA030C4C682F
:1037900014F4801F01D04CEA030CCAF800C0244C7A
:1037A000D4F800C02CEA030C4D6815F4001F01D0BA
:1037B0004CEA030CC4F800C0DBF800C02CEA030C90
:1037C0004C6814F4003F01D04CEA030CCBF800C065
:1037D000184CD4F800C02CEA030C4D6815F4803F57
:1037E00001D04CEA030CC4F800C0521C102AFFF4AC
:1037F0001BAFBDE8F88F4FF0000CBEE74FF0010C97
:10380000BBE74FF0020CB8E74FF0030CB5E74FF001
:10381000040CB2E74FF0050CAFE74FF0060CACE735
:103820004FF0070CA9E7000044380240083C014073
:103830000C3C0140003C0140002A01D081617047EE
:1038400009048161704700000148806870470000EA
:103850008805002070B50446002C04D094F83D0083
:10386000002510B106E0012070BD84F83C502046D0
:1038700000F0C6F8242084F83D002068016821F09B
:10388000010101602068016841F400410160206885
:10389000016821F40041016001F0C4F8544B6168F3
:1038A000994203D85349884203D304E052498842DD
:1038B00001D2012070BD5149B0FBF1F12268D2F86C
:1038C00004C02CF03F0C4CEA010CC2F804C0626842
:1038D0009A4201D84A1C07E04FF4967251434FF4C4
:1038E0007A72B1FBF2F14A1C2168D1F820C02CF0A9
:1038F0003F0C42EA0C020A626168994210D8490002
:10390000401EB0FBF1F2521CC2F30B02042A01D29A
:10391000042026E0B0FBF1F0401CC0F30B0020E0D7
:10392000A268002A50D001EBC10303EB0113A0F100
:10393000010CBCFBF3F35B1C43F480431B051B0D24
:103940004AD0002A4AD001EBC10202EB0111401E0D
:10395000B0FBF1F0401CC0F30B0040F4804040F499
:1039600000402168CA6922F0FF0222F44F4210434E
:10397000C861216AE06901432068026822F0C00240
:1039800011430160E168206901432068826822F0E8
:10399000FF0222F4034211438160A169606901437F
:1039A0002068C26822F0FF021143C16020680168EC
:1039B00041F0010101602564202084F83D00256369
:1039C00084F83E50002070BD01EB4103A0F1010CD2
:1039D000BCFBF3F35B1CB1E70120C2E701EB410143
:1039E000401EB0FBF1F0401CC0F30B00B7E7000035
:1039F000A086010080841E0000093D0040420F00A7
:103A000010B586B00446142101A8FDF73AFB2A49F7
:103A1000206888424DD100BF0020009027480068F0
:103A200040F00400254908600846006800F00400E2
:103A3000009000BF00BF00BF002000900846006853
:103A400040F0010008600846006800F001000090A6
:103A500000BF00BF48150190122002900120039082
:103A6000032004900420059001A91548FFF7CEFD1E
:103A70004FF48070019012200290012003900320E7
:103A800004900420059001A90E48FFF7BFFD00BF78
:103A90000020009009481030006840F400000749F9
:103AA000103108600846006800F40000009000BF74
:103AB00000BF06B010BD0000005C0040303802407E
:103AC0000008024000000240024881680278114468
:103AD000816070478805002010B50B48016841F4EB
:103AE00000710160016841F480610160016841F486
:103AF00080710160032000F097F80F2000F006F8B5
:103B000000F026F8002010BD003C024070B50446CD
:103B10000D4D4FF47A712878B1FBF0F00B4909682C
:103B2000B1FBF0F001F0BCFC08B1012070BD102C1D
:103B300007D200222146501E00F042F86C6000209F
:103B400070BD012070BD0000880500209800002095
:103B500008B500BF002000901148006840F4804084
:103B60000F4908600846006800F48040009000BFDC
:103B700000BF00BF00200090081F006840F0805088
:103B8000091F08600846006800F08050009000BFE0
:103B900000BF00220F21901E00F012F808BD0000A7
:103BA0004438024000280ADB00F01F01012202FA1B
:103BB00001F14009800000F1E020C0F800117047D9
:103BC00010B4184B1B68C3F30223C3F1070CBCF1FC
:103BD000040F01D94FF0040C1C1D072C01D2002347
:103BE00000E0DB1E012404FA0CFCACF1010C0CEA31
:103BF0000101994004FA03F35B1E1A4011430028A7
:103C000006DB00F1E020090180F8001410BC7047C9
:103C100000F00F0000F1E020090180F8141D10BC35
:103C2000704700000CED00E000F00700064A116844
:103C30004FF6FF03194041EA002040F0FD7040F0CC
:103C400080601060704700000CED00E07047006875
:103C500041620020704730B40368586A00291BD0C5
:103C6000D3F828C000EB1C4C00200129A1F1010170
:103C70004FF4827408D004EB80055D590CEB154CB1
:103C8000401CC0B28842F6D304EB81014CEA0240EA
:103C9000585030BC0020704740EA02409862F8E774
:103CA00010B50446D4F8E00407F0F1FC10BD70B57F
:103CB00004460D4605EBC50304F1140101EB830135
:103CC000CA682946D4F8E00407F008FC70BD70B556
:103CD00004460D4605EBC50304F5157101EB8301A0
:103CE000CA682946D4F8E00407F069FC70BD10B535
:103CF0000446D4F8E00407F0CCFC10BD11F0800FAE
:103D000001F00F0101EBC10100EB810101D0143181
:103D100001E001F51571006808F0D5BC70B50446E6
:103D200011F0800F01F00F0000EBC00104EB8101E6
:103D30004FF001024FF0000502D014314A7002E04A
:103D400001F515714D70087094F89404012808D09D
:103D500084F89424206808F099F984F89454002099
:103D600070BD022070BD70B5044601F00F022079CD
:103D7000824201D9012070BD01F00F0000EBC000AC
:103D800011F0800F04EB80004FF001034FF00005AD
:103D900003D000F114014B7002E000F515714D7075
:103DA0008D700A7094F89404012808D084F8943433
:103DB000206808F0E7FA84F89454002070BD0220CF
:103DC00070BD01F00F0101EBC10100EB8100D0F8E3
:103DD0006802704770B5044611F0800F01F00F00C3
:103DE00000EBC00104EB81014FF0010C4FF0000526
:103DF00003D0143181F801C002E001F515714D7056
:103E00000870C2F30A028A600B714A7802B14883D3
:103E1000022B00D14D7194F89404012808D084F845
:103E200094C4206808F064F8284684F8945470BD5F
:103E3000022070BD10B501F00F0C0CEBCC0100EBB3
:103E4000810101F51571CA600B6100234B614B7054
:103E500081F800C08379012B00D1CA6182790068A2
:103E600008F0EBFA002010BD70B504460D4621792C
:103E700005F00F00884201D9012070BD15F0800FB8
:103E80004FF000064FF0010206D000EBC00104EB3A
:103E9000810114314A7006E005EBC50104EB810194
:103EA00001F515714E708A70087094F89404012819
:103EB00008D084F89424206808F090FA15F00F0FC9
:103EC00002D007E0022070BDA17904F29C42206874
:103ED00008F028FA84F89464002070BD10B501F051
:103EE0000F0C0CEBCC0100EB81010A624B6200234A
:103EF0008B6201234B7501F814CF8379012B00D11C
:103F0000CA618279006808F098FA002010BD2DE996
:103F1000F05F04462568284608F091FC00287ED111
:103F2000206808F0B8FC002879D0D5F80808C0F35C
:103F30000D20C4F8D404206808F0ADFC10F0020F86
:103F400004D02068416901F002014161206808F055
:103F5000A2FC10F0100F36D02068816921F010010A
:103F600081612F6A07F00F0000EBC00004EB8000B6
:103F700000F51576C7F34340022802D0062812D078
:103F80001CE047F6F070074218D0C7F30A12174634
:103F90002846F16808F083FCF0683844F0607069E6
:103FA000384470610AE0082204F29C41284608F077
:103FB00076FC7069C7F30A11084470612068816952
:103FC00041F010018161206808F065FC10F4002FB9
:103FD0004FF0100B4FF0000A4FF0010967D0002698
:103FE000206808F037FC80465FEA08005FD018F0D0
:103FF000010F56D0F1B2206808F045FC074617F0D3
:10400000010F07D005EB4610C0F8089B314620464B
:1040100005F0D2FA17F0080F0AD0082000E01EE2DF
:1040200005EB4611C1F8080B3146204605F0A0FA11
:1040300017F0100F03D005EB4610C0F808BB17F0BF
:10404000020F1DD0686910F0800F05D0D5F8040864
:1040500040F48061C5F8041806EBC60004EB80004C
:1040600000F51570C178012905D180F803A0F1B2DF
:10407000204600F006FA05EB46110220C1F8080BB5
:1040800017F0200F04D005EB46112020C1F8080BD3
:1040900017F4005F05D005EB46114FF40050C1F84E
:1040A000080B761C4FEA5808B8F1000F9FD1206822
:1040B00008F0F1FB10F4802F74D0206808F0C3FBE7
:1040C00007460026002F6DD04FF0020B17F0010FAE
:1040D00064D0F1B2206808F0C4FB804618F0010FEC
:1040E00024D006F00F0009FA00F0D5F83418814307
:1040F000C5F8341805EB4610C0F80899A0790128D6
:1041000010D106EBC60004EB8000C269016A1144BD
:1041100001623EB9606A28B904F29C42012120681C
:1041200008F000F9F1B22046FFF7C1FD18F0080FC2
:1041300004D005EB46110820C1F8080918F0100F4B
:1041400004D005EB46111020C1F8080918F0400F03
:1041500004D005EB46114020C1F8080918F0020F01
:1041600015D03146284608F033FB06EBC60004EBB9
:1041700080001430C178012905D180F803A0F1B284
:10418000204600F075F905EB4610C0F808B918F0A4
:10419000800F03D03146204605F082FA761C7F0856
:1041A000002F93D1206808F076FB10F0004F11D05B
:1041B000D5F8040820F00101C5F8041894F8CC04DF
:1041C000012861D0204600F045FA2068416901F0DD
:1041D00000414161206808F05EFB10F4006F0CD0D4
:1041E000D5F8080810F0010F02D0204600F07EFA42
:1041F0002068416901F400614161206808F04BFBCF
:1042000010F4805F65D0D5F8040820F00101C5F8EE
:1042100004181021206808F0DBFA0021207900281A
:104220001DD94FF67F3205EB4110C0F80829D0F8B0
:10423000003923F40013C0F80039C0F8082BD0F877
:10424000003B23F40013C0F8003BD0F8003B43F0E0
:104250000063C0F8003B491C20798842E3D8D5F8B8
:104260001C0840F00111C5F81C18E07B98B1D5F886
:10427000840840F00B01C5F88418D5F8440840F0D4
:104280000B01C5F8441813E084F8CCA400212046A3
:10429000FFF7DCFC99E7D5F8140842F22B01014343
:1042A000C5F81418D5F8100840F00B01C5F810181F
:1042B000D5F8000820F4FE61C5F80018A17904F2D1
:1042C0009C42206808F02EF82068416901F4805172
:1042D0004161206808F0DFFA10F4005F16D0206812
:1042E00007F054FE206808F09AFAE07100F094FBA1
:1042F00023680146E279184608F03EFB204600F0AC
:1043000091F92068416901F400514161206808F089
:10431000C2FA10F0080F07D0204600F0A2F920687A
:10432000416901F008014161206808F0B4FA10F019
:10433000800F17D0A86920F08001A961012620799B
:1043400001280FD906EBC60004EB800090F8570255
:10435000012803D1F1B22046FFF7D0FC761C20796A
:10436000B042EFD8206808F096FA10F4801F22D0EF
:1043700001262079012819D905EB4610D0F800193B
:1043800006EBC60004EB8000027E012A0AD111F080
:10439000004F07D080F81790F0B240F0800120461F
:1043A000FFF7ACFC761C2079B042E5D82068416963
:1043B00001F480114161206808F06DFA10F4001FCB
:1043C0002DD001202179012924D905EB4011D1F804
:1043D000001B00EBC00204EB820292F85832012B62
:1043E00014D111F0004F11D094F8D434C1F300412E
:1043F00003F001038B4209D182F85792A96941F079
:104400008002AA61696911F0800F2AD0401C2179CD
:104410008142DAD82068416901F4001141612068C5
:1044200008F039FA10F0804F07D02046FFF738FC2B
:104430002068416901F080414161206808F02BFA51
:1044400010F0040F0BD02068456815F0040F02D05F
:104450002046FFF74CFC2068416829434160BDE8D5
:10446000F09FD5F8040840F40070C5F80408D1E7BF
:1044700070B504460D462946D4F8E00407F072F9F9
:1044800070BD70B504460D462946D4F8E00407F027
:104490007EF970BDF8B50446002C05D0266894F866
:1044A0009504002510B106E00120F8BD84F894546D
:1044B000204600F063F8032084F89504B6F1A04F7D
:1044C00000D1A571206807F027FF207C8DF800003F
:1044D00094E80F0007F068FD022618B184F895648F
:1044E0000120F8BD0021206808F0FDF918B184F81A
:1044F00095640120F8BD00212079012700280FD9FB
:1045000001EBC10004EB800047750175C18505769C
:10451000C56105624562481CC1B220798842EFD866
:1045200000212079002814D901EBC10004EB8000A0
:1045300080F8555280F8541280F85852C0F85C52F6
:10454000C0F86052C0F86452481CC1B22079884259
:10455000EAD8207C8DF8000094E80F0007F020FED8
:1045600018B184F895640120F8BD657484F89574D9
:10457000206807F007FE0020F8BD000010B586B0E7
:104580000446142101A8FCF77CFD2068B0F1A04F7F
:1045900042D100BF002000902048006840F0010098
:1045A0001E4908600846006800F00100009000BF46
:1045B00000BF4FF4C05001900220029000200390F1
:1045C000032004900A20059001A91548FFF71EF862
:1045D00000BF1248001D006840F080000F49091D0F
:1045E000086000BF002000900C481430006840F4C0
:1045F00080400A49143108600846006800F4804091
:10460000009000BF00BF00BF002205214320FFF73C
:10461000D7FA4320FFF7C6FA06B010BD3038024083
:104620000000024070B504460125E07908B9002574
:1046300006E0E079022801D1012501E0FDF7F0FF55
:104640002946D4F8E00407F02FF9D4F8E00407F085
:10465000E3F870BD10B50446D4F8E00407F00DF996
:1046600010BD10B50446D4F8E00407F010F910BDF1
:1046700010B5044694F8940401280AD0012084F867
:1046800094046174206808F05EF9002084F89404B2
:1046900010BD022010BD10B5044604F29C41D4F8B0
:1046A000E00407F017F910BD10B50446206894F82F
:1046B000941401290AD0012184F89414C16811F0DE
:1046C000400F09D0617B012902D005E0022010BD16
:1046D000816B41F480318163206808F04EF82068D6
:1046E00007F042FD002084F8940410BD10B5044684
:1046F000D4F8E00407F042F92068D0F8000E40F04A
:1047000001002168C1F8000EE07A28B10348006872
:1047100040F006000149086010BD000010ED00E007
:104720002DE9F84304464FF0010820784FF00007C8
:1047300010F0050F33D0DFF84491C9F86870FFF727
:1047400083F806464E4D286810F0006F0BD0FFF737
:104750007BF8801B022802D90320BDE8F883286873
:1047600010F0006FF3D16068217A800140EA017097
:1047700044490860C9F86880FFF766F8064628686B
:1047800010F0006F0BD1FFF75FF8801B022802D9F1
:104790000320BDE8F883286810F0006FF3D020787C
:1047A00010F0020F5CD03848016841F08051016080
:1047B000006800F080500090344D286840F480700C
:1047C0002860FFF741F80646286810F4807F0BD177
:1047D000FFF73AF8801B022802D90320BDE8F883CE
:1047E000286810F4807FF3D0294D286800F44070C9
:1047F00028B3A18901F44071814220D0286820F4B7
:1048000040702449C1F800800F602860286810F0CB
:10481000010F14D0FFF718F80646286810F0020FB1
:104820000DD141F28837FFF70FF8801BB84202D94B
:104830000320BDE8F883286810F0020FF3D0E06889
:104840004FF4407131EA000213490CD0086820F49B
:10485000F81008602868A189C1F30B01084328609B
:104860000020BDE8F8830A6820F4407022F4F812B2
:1048700020F0704010430860ECE700000000474261
:104880000038024084380240403802400070004046
:1048900070380240400E4742083802402DE9F04788
:1048A00004460D46002C13D0DFF85491D9F80000CF
:1048B000EFB200F00700A8420DD289F80070D9F8D5
:1048C000000000F00700A84205D00120BDE8F087F5
:1048D0000120BDE8F08720684A4E10F0020F14D086
:1048E00010F0040F03D0306840F4E05030602078BE
:1048F00010F0080F03D0306840F46040306030683A
:10490000A16820F0F00008433060207810F0010F1B
:104910003ED060683C49012808D002280DD0032809
:104920000BD0096811F0020F28D00AE0096811F4D1
:10493000003F06D10120BDE8F087096811F0007F33
:1049400019D0316821F0030108433060FEF77CFF85
:1049500080463068616800F00C00B0EB810F17D022
:1049600041F2883AFEF770FFA0EB0800504508D9E5
:104970000320BDE8F0870120BDE8F0870120BDE8F5
:10498000F0873068616800F00C00B0EB810FE9D16E
:10499000D9F8000000F00700A8420AD989F8007091
:1049A000D9F8000000F00700A84202D00120BDE8BD
:1049B000F087207810F0040F05D03068E16820F40B
:1049C000E05008433060207810F0080F06D03068BF
:1049D000216920F4604040EAC100306000F042F8F4
:1049E00031680A4AC1F30311515CC84008490860A4
:1049F00008480068FFF78AF80020BDE8F08700004B
:104A0000003C02400838024000380240E82F01080C
:104A1000980000208C0500200148006870470000C5
:104A20009800002000B5FFF7F7FF04490968044A21
:104A3000C1F38221515CC84000BD0000083802402B
:104A4000F82F010800B5FFF7E7FF04490968044A99
:104A5000C1F34231515CC84000BD0000083802403B
:104A6000F82F010810B51748006810F00C0116481F
:104A700016D0164B042912D0082911D1144C2168E4
:104A800001F03F02216811F4800F0AD02068C0F3C2
:104A90008810A0FB03010023FCF7DBF909E01846AE
:104AA00010BD21680023C1F38811A1FB0001FCF7B0
:104AB000D0F92168C1F30141491C4900B0FBF1F074
:104AC00010BD0000083802400024F400001BB700AD
:104AD000043802402DE9F84F0446002C12D020780B
:104AE000FB4E10F0010FA6F1040563D0301D0168E4
:104AF00001F00C0104290CD0006800F00C0008281B
:104B000003D010E00120BDE8F88F306810F4800F6A
:104B100009D0286810F4003F4CD06068002849D1C3
:104B20000120BDE8F88F6068B0F5803F14D0B0F583
:104B3000A02F16D0286820F480302860286820F440
:104B400080202860606810B3FEF77EFE0746286864
:104B500010F4003F0ED02DE0286840F4803028602B
:104B6000F0E7286840F480202860286840F480300E
:104B70002860E7E7FEF768FEC01B642802D903201F
:104B8000BDE8F88F286810F4003FF3D012E0FEF77C
:104B90005BFE0746286810F4003F0BD0FEF754FE7A
:104BA000C01B642802D90320BDE8F88F286810F4E0
:104BB000003FF3D12078C74F10F0020F4FF00009EB
:104BC00057D0C548016811F00C0F14D0006800F0F0
:104BD0000C00082803D1306810F4800F0BD0E06877
:104BE00080B301203860FEF72FFE8046286810F061
:104BF000020F12D01EE0286810F0020F05D0E06806
:104C0000012802D00120BDE8F88F2868216920F032
:104C1000F80040EAC10028602BE0FEF715FEA0EB8B
:104C20000800022802D90320BDE8F88F286810F098
:104C3000020FF2D02868216920F0F80040EAC10094
:104C4000286016E0FFE7C7F80090FEF7FDFD8046FC
:104C5000286810F0020F0CD0FEF7F6FDA0EB08005C
:104C6000022802D90320BDE8F88F286810F0020F4F
:104C7000F2D1207810F0080F35D09848DFF860A204
:104C80006169C1B101210160FEF7DEFD8046DAF8FD
:104C9000000010F0020F26D1FEF7D6FDA0EB0800B1
:104CA000022802D90320BDE8F88FDAF8000010F0DE
:104CB000020FF1D017E0C0F80090FEF7C5FD804666
:104CC000DAF8000010F0020F0DD0FEF7BDFDA0EBEA
:104CD0000800022802D90320BDE8F88FDAF80000A6
:104CE00010F0020FF1D1207810F0040F71D04FF0C6
:104CF00000087C48006810F0805F0AD1794801689C
:104D000041F080510160006800F0805000904FF049
:104D10000108DFF8D4B1DBF8000010F4807F1BD16C
:104D2000DBF8000040F48070CBF80000FEF78CFD4B
:104D30008246DBF8000010F4807F0DD1FEF784FD81
:104D4000A0EB0A00022802D90320BDE8F88FDBF8A7
:104D5000000010F4807FF1D0A068DFF890B1012846
:104D600018D005281DD0DBF8000020F00100CBF89A
:104D70000000DBF8000020F00400CBF80000A06881
:104D800040B3FEF761FD8246DBF8000010F0020F31
:104D900014D03EE0DBF8000040F00100CBF800004A
:104DA000EDE7DBF8000040F00400CBF80000DBF892
:104DB000000040F00100CBF80000E0E7FEF744FD02
:104DC000A0EB0A0141F28830814204D90320BDE8FA
:104DD000F88F26E005E0DBF8000010F0020FEDD0C0
:104DE00017E0FEF731FD8246DBF8000010F0020FFD
:104DF0000FD0FEF729FDA0EB0A0141F28830814275
:104E000002D90320BDE8F88FDBF8000010F0020F94
:104E1000EFD1B8F1010F04D13248016821F080517F
:104E20000160A069F0B32C4909684FF0FF3801F028
:104E30000C01082966D0022810D0C7F86090FEF750
:104E400003FD0446286810F0007F2BD0FEF7FCFC21
:104E5000001B022851D90320BDE8F88FC7F86090E5
:104E6000FEF7F2FC8146286810F0007F0CD0FEF7B8
:104E7000EBFCA0EB0900022802D90320BDE8F88F63
:104E8000286810F0007FF2D1216AE069A26A084325
:104E9000616A08EB5202890141EA0241084394F831
:104EA0002C1000E055E040EA0160306001203866D7
:104EB000FEF7CAFC0446286810F0007F49D1FEF7CF
:104EC000C3FC001B022813D90320BDE8F88F0000A3
:104ED000043802400000474208380240800E474232
:104EE0007438024040380240007000407038024080
:104EF000286810F0007FE2D02BE0286810F0007FD7
:104F0000A4D126E0012822D03068E26900F48001B3
:104F100091421AD1226A00F03F01914215D147F621
:104F2000C071626A0140B1EB821F0ED1A26A00F427
:104F3000403108EB5202B1EB024F06D194F82C102D
:104F400000F07060B0EB016F03D00120BDE70120DD
:104F5000BBE70020B9E710B50446002C02D0607F03
:104F600010B106E0012010BD00202077204600F09F
:104F700041F8022060772068C16811F0100F05D059
:104F800000200028EFD10121617710BDCA214162C4
:104F9000216853204862204604F010FFD8B92068E9
:104FA000816821F0400121F4E0018160206881687E
:104FB00062686369114322691A4311438160216861
:104FC000E068086120680169228941EA02410161C3
:104FD000204604F017FF48B921680A6C22F48022A9
:104FE0000A6421680A6CA3691A430A642268FF21D3
:104FF0005162C6E71FB50446002000900190029060
:1050000003900949206888420CD10220009007488B
:1050100003906846FFF784FB08B1FDF701FB012010
:10502000034908601FBD00000028004000031E0067
:105030003C0E474270B504460C482168C860FEF734
:1050400003FC05462068C06810F0200F0CD1FEF765
:10505000FBFB401BB0F57A7F01D9032070BD2068AF
:10506000C06810F0200FF2D0002070BD5F7F0100FB
:1050700070B50446002C09D0606A002540B1256156
:105080006561A56294F8510040B10CE0012070BD4B
:105090006068B0F5827FF4D0E561F2E784F85050A3
:1050A000204600F045F8022084F85100206801688D
:1050B00021F040010160A088218900F4827001F490
:1050C00004410843A18901F400610843217C01F0F7
:1050D00002010843217D01F001010843218B01F405
:1050E00000710843217F01F03801084394F8201033
:1050F00001F080010843218D01F40051084321682B
:105100000860A169042000EA114094F8241001F01D
:1051100010010143206841602068C16921F40061E9
:10512000C1616565012084F85100002070BD000058
:1051300010B586B00446142101A8FBF7A2FF4B4925
:10514000206888427ED100BF002000904848006857
:1051500040F48050464908600846006800F48050DA
:10516000009000BF00BF00BF0020009040481438EE
:10517000006840F002003E491439086008460068A3
:1051800000F00200009000BF00BF00BF00200090B0
:105190000846006840F0010008600846006800F01A
:1051A0000100009000BF00BF182001900220029073
:1051B00001200390032004900520059001A92D48AB
:1051C000FEF724FA80200190022002900120039033
:1051D000032004900520059001A92748FEF716FA40
:1051E0002648274908604FF0C060486000212448E5
:1051F0008160C1604FF48061016100214161816182
:10520000C1614FF44031016200214162FEF766F94D
:1052100008B1FDF705FA00BF1948E064846300BFD8
:1052200016481830174908604FF0C06048604021A8
:10523000144881600021C1604FF480610161002148
:10524000416100E010E08161C1614FF40031016211
:1052500000214162FEF742F908B1FDF7E1F900BF14
:105260000848A064846300BF06B010BD0030014050
:105270004438024000040240000002404064024002
:10528000640E0020C40E00202DE9F84F04460A9E4B
:105290008A4693461F460125FEF7D6FA804694F8C3
:1052A00051006168012809D0B1F5827F03D1A1685E
:1052B00009B9042802D00220BDE8F88FBAF1000F26
:1052C00028D0BBF1000F25D0380023D094F850002F
:1052D000012822D0012084F8500094F851000428BD
:1052E00002D0052084F851004FF00009C4F8549012
:1052F000C4F838B0E787A787C4F830A0E786A78648
:10530000C4F84090C4F844902068016811F0400F40
:1053100006D009E00120BDE8F88F0220BDE8F88F33
:10532000016841F040010160E068B0F5006F05D010
:10533000606800284DD0012F4BD083E0606808B131
:10534000012F3FD1206B21680088C860206B801C32
:105350002063E08E401EE08634E02068816811F012
:10536000020F0DD0E18E59B1012D09D1216B0988B1
:10537000C160206B801C2063E08E401EE08600250B
:105380002068816811F0010F0BD0E18F49B1C0682E
:10539000A16B0880A06B801CA063E08F401EE0879B
:1053A0000125FEF751FAA0EB0800B0420AD3B6F18E
:1053B000FF3F07D0012084F8510084F8509003206B
:1053C000BDE8F88FE08E0028C7D1E08F0028C4D157
:1053D0003EE0206B216800780873206B401C20633E
:1053E000E08E401EE0862DE02068816811F0020FFB
:1053F0000DD0E18E59B1012D09D1216B09780173CE
:10540000206B401C2063E08E401EE0860025206853
:10541000816811F0010F0BD0E18F49B1C068A16B19
:105420000870A06B401CA063E08F401EE087012540
:10543000FEF70AFAA0EB0800B04202D3B6F1FF3F34
:1054400013D196B1E08E0028CED1E08F0028CBD1C9
:1054500042463146204604F0EBFC70B120206065E6
:1054600084F850900120BDE8F88F012084F85100A5
:1054700084F850900320BDE8F88FA06818B9206820
:10548000C16880680090012084F8510084F8509031
:10549000606D10B10120BDE8F88F0020BDE8F88FE5
:1054A000401EB0F1807F01D3012070474FF0E02112
:1054B0004861044AF02010700020886107200861CC
:1054C0000020704723ED00E072B600BFBFF34F8F9E
:1054D0000748006800F4E06006490843001D0449DD
:1054E0000860BFF34F8F00BF00BF00BFFDE70000A3
:1054F0000CED00E00000FA0590F83C20012A2CD0C9
:10550000012280F83C20CA680023D1F808C022F4A8
:10551000407242EA0C02D1F804C022F4806242EAEE
:105520000C02D1F800C022F4006242EA0C02D1F869
:1055300010C022F4805242EA0C02D1F814C022F4C6
:10554000005242EA0C02C96922F480421143026807
:10555000516480F83C30002070470220704730B41E
:1055600090F83C20012A44D0012480F83C400222DB
:1055700080F83D200268D2F804C093682CF0700CCB
:105580000D6845EA0C0CC2F804C00268A2F1804C18
:10559000BCF5803C20D0B2F1804F1DD0A2F1804CF0
:1055A000BCF5806C18D0A2F1804CBCF5006C13D017
:1055B000A2F1804CBCF5406C0ED0A2F1804CBCF541
:1055C000823C09D0A2F1804CBCF5A03C04D0A2F1F1
:1055D000804CBCF5C05C04D123F0800349681943BA
:1055E000916080F83D40002180F83C1030BC0020E4
:1055F000704730BC0220704710B50446002C03D021
:1056000094F83D0010B107E0012010BD002084F89F
:105610003C00204600F01EF8022084F83D00211DC9
:10562000206804F085FD012084F8460084F83E00DF
:1056300084F83F0084F8400084F8410084F8420078
:1056400084F8430084F8440084F8450084F83D0061
:10565000002010BD08B53F4A016891420FD100BF3C
:10566000002100913C49096841F001013A4A11606A
:105670001146096801F00101009100BF69E0374A55
:105680000168914211D100BF002100913249091FE8
:10569000096841F00201304A121F11601146096881
:1056A00001F00201009100BF53E02D4A01689142D0
:1056B00011D100BF002100912749091F096841F05D
:1056C0000401254A121F11601146096801F0040106
:1056D000009100BF3DE0234A0168914211D100BF13
:1056E000002100911C49091F096841F008011A4A6C
:1056F000121F11601146096801F00801009100BFF6
:1057000027E0194A016891420FD100BF00210091A2
:105710001149096841F002010F4A116011460968F8
:1057200001F00201009100BF13E0104A01689142AC
:105730000FD100BF002100910749096841F40031F1
:10574000054A11601146096801F40031009100BF5B
:1057500000BF08BD00000140443802400004004082
:1057600000080040000C00400004014000440140DB
:1057700090F83D10012901D001207047022180F8E6
:105780003D100068A0F18041B1F5803126D0B0F124
:10579000804F23D0A0F18041B1F580611ED0A0F1EF
:1057A0008041B1F5006119D0A0F18041B1F54061AF
:1057B00014D0A0F18041B1F582310FD0A0F1804129
:1057C000B1F5A0310AD0A0F18041B1F5C05105D0AA
:1057D000016841F00101016000207047816801F01B
:1057E00007010629F8D0016841F001010160F3E7E3
:1057F00070B50446002594F83C00012818D0012615
:1058000084F83C60022084F83D002068826822F021
:10581000770222F47F4282600868502839D00EDC7B
:10582000202854D006DC002851D0102811D14EE099
:10583000022070BD30284AD040280AD13DE06028BF
:1058400031D070280DD0B0F5805F03D0B0F5005F87
:1058500013D0012584F83D60002084F83C002846E0
:1058600070BDCB684A688968206804F0DAFC20685B
:10587000816841F077018160ECE7CB684A6889680C
:10588000206804F0CEFC2068816841F4804181608A
:10589000E0E7CA684968206804F00BFE50212068E0
:1058A00004F0CAFCD6E7CA684968206804F014FE10
:1058B0006021206804F0C0FCCCE7CA684968206811
:1058C00004F0F7FD4021206804F0B6FCC2E722682E
:1058D0000146104604F0B0FCBCE7000010B586B0ED
:1058E0000446142101A8FBF7CCFB874920688842B5
:1058F00032D100BF002000908448006840F01000C2
:10590000824908600846006800F01000009000BF5F
:1059100000BF4FF4D4400190022002900120039078
:10592000022004900120059001A97948FDF76EFE40
:105930007848FFF71DFF0021764800F0A3F9042105
:10594000744800F09FF90821724800F09BF90C217F
:10595000704800F097F9D5E06F492068884224D15B
:1059600000BF002000906948006840F004006749CB
:1059700008600846006800F00400009000BF00BF07
:1059800088150190022002900120039002200490CB
:10599000059001A96148FDF739FE6148FFF7E8FE6F
:1059A00008215F4800F06EF9ACE05E49206888424B
:1059B00034D15D48FFF7DCFE08215B4800F062F956
:1059C00000BF002000905148006840F080004F491F
:1059D00008600846006800F08000009000BF00BF2B
:1059E0004FF4E05001900220029001200390022029
:1059F0000490059001A94D48FDF708FE4C48FFF7BB
:105A0000B7FE00214A4800F03DF90421484800F063
:105A100039F90821464800F035F973E04549206816
:105A2000884246D100BF002000903848006840F40A
:105A30008070364908600846006800F48070009065
:105A400000BF00BF00BF002000900846006840F083
:105A5000040008600846006800F00400009000BFE1
:105A600000BF4020019002200290012003900220FC
:105A700004900320059001A92F48FDF7C7FD4020A1
:105A80000190022002900120039002200490032044
:105A9000059001A92148FDF7B9FD2848FFF768FEE8
:105AA0000021264800F0EEF80421244800F0EAF82E
:105AB00028E023492068884224D100BF00200090BC
:105AC0001248006840F0200010490860084600684D
:105AD00000F02000009000BF00BF40200190022095
