:020000040800F2
:10000000F0BF002031030008897C0008BD500008C3
:10001000857C00085B1900083D9100080000000085
:100020000000000000000000000000007102000855
:100030006522000800000000CD020008F7860008D5
:100040004B0300084B0300084B0300084B03000858
:100050004B0300084B030008672200084B0300080D
:100060004B030008712200087B2200084B030008A4
:100070004B0300084B0300084B0300084B03000828
:100080004B0300084B0300084B0300084B03000818
:10009000611900084B0300084B0300088522000883
:1000A0004B0300084B0300084B0300084B030008F8
:1000B0004B0300084B0300084B0300084B030008E8
:1000C0004B0300084B0300084B0300084B030008D8
:1000D0004B030008FD8F00084B0300080D9000083B
:1000E0004B0300084B0300084B0300084B030008B8
:1000F0004B0300084B0300084B0300084B030008A8
:100100004B0300084B0300084B0300084B03000897
:100110004B0300084B0300084B0300084B03000887
:100120004B0300084B0300084B0300084B03000877
:100130004B0300084B0300084B0300084B03000867
:10014000711900084B0300084B0300084B0300081B
:100150004B0300084B0300084B0300084B03000847
:100160004B0300084B0300084B0300084B03000837
:100170004B0300084B0300084B030008000000007D
:100180004B0300084B03000800F002F800F060F891
:100190000AA090E8000C82448344AAF10107DA45E2
:1001A00001D100F055F8AFF2090EBAE80F0013F0D4
:1001B000010F18BFFB1A43F001031847BCF50000FC
:1001C000DCF500000A444FF0000C10F8013B13F07E
:1001D000070408BF10F8014B1D1108BF10F8015BA0
:1001E000641E05D010F8016B641E01F8016BF9D193
:1001F00013F0080F1EBF10F8014BAD1C0C1B09D1EA
:100200006D1E58BF01F801CBFAD505E014F8016B5B
:1002100001F8016B6D1EF9D59142D6D370470000ED
:100220000023002400250026103A28BF78C1FBD8FF
:10023000520728BF30C148BF0B6070471FB50EF092
:10024000A5F99DE8030000F063FF1FBD10B510BDC8
:1002500001F008F81146FFF7F1FF0BF091F801F0FB
:1002600026F803B4FFF7F2FF03BC01F05DF80000CD
:100270002C4B19680868B0E8F04F80F30988BFF389
:100280006F8F4FF0000080F311887047000000006E
:1002900008480068006880F308884FF0000080F389
:1002A000148862B661B6BFF34F8FBFF36F8F00DF64
:1002B00000BF00BF08ED00E0DFF80C00016841F46A
:1002C00070010160704700BF88ED00E0EFF3098026
:1002D000BFF36F8F134B1A681EF0100F08BF20ED8D
:1002E000108A20E9F04F106009B44FF0500080F3FD
:1002F0001188BFF34F8FBFF36F8F0CF0D7F94FF01A
:10030000000080F3118809BC19680868B0E8F04F54
:100310001EF0100F08BFB0EC108A80F30988BFF3FD
:100320006F8F70470C050020EFF3058070470000C9
:100330000948804709480047FEE7FEE7FEE7FEE779
:10034000FEE7FEE7FEE7FEE7FEE7FEE704480549B5
:10035000054A064B70470000C18700088901000864
:10036000F07F0020F0BF0020F09F0020F09F0020D1
:100370009FED1A1AF5EE000A40EE010ABDEEE00A02
:10038000F5EEC00A10EE100AF1EE10FA38BF401E6A
:1003900000EE100A1349F7EE001AB8EEC00A30EE6C
:1003A000C00ADFED0F0A20EE200AFCEEC00A10EEB4
:1003B000900AC0F3080000EE900A01EB8000F8EE0E
:1003C000600A90ED011A70EE600A90ED000A71EE7D
:1003D000E01A21EE800A00EE810A704783F9223E7E
:1003E0000000004440EF0008DFED190AB5EEC00A36
:1003F00060EE200ABDEEE01A11EE100AF1EE10FADE
:1004000038BF401E00EE100A1349F7EE001AB8EE8E
:10041000C00A30EEC00ADFED0F0A60EE200ABCEE23
:10042000E00A10EE100AC0F3080000EE100A01EB1B
:100430008000B8EE400A90ED011A70EEC00A90ED0F
:10044000000A71EEE01A21EE800A00EE810A704780
:1004500083F9223E0000004440EF000870B4058894
:100460000E884468D1F804C05368B54208D140886A
:100470004988884201BF11888D425188884203D043
:1004800070BC6FF00200704705FB00F1880827D0B0
:1004900094ED001ADCED000A94ED010ADCED011A7E
:1004A00031EE201AD4ED020A70EE211A9CED020AF8
:1004B00083ED001AC3ED011A94ED031ADCED031A63
:1004C00030EE800A401E71EE210A83ED020A04F12B
:1004D0001004C3ED030A03F110030CF1100CD7D183
:1004E00011F0030030D0B0F1004F30D200282BDDE6
:1004F000211F1B1FACF1040210F0010F0AD091ED77
:10050000010AD2ED010A091D121D30EE200A83ED09
:10051000010A1B1D400817D091ED010AD2ED010A16
:10052000401E30EE200A83ED010A91ED020AD2ED61
:10053000020A01F1080102F1080230EE200A83EDFF
:10054000020A03F10803E7D170BC00207047B4EC45
:10055000010A401EFCEC010A30EE200AA3EC010A5D
:10056000F5D1F1E701804280436070472DE9F34FF8
:1005700084B0049840680090486801900498B0F8EE
:1005800000E04588DFEDFE0A00200290B0EE600A30
:10059000AE4506D108884988884204BF7146864521
:1005A00004D06FF0020006B0BDE8F08F01985FEA5A
:1005B000010C18BFB7EE001A3DD000BFBEEB0C0116
:1005C00017D0B1F1004F80F01F82002911DD021F0A
:1005D00011F0010F1CBFC2ED010A121D4B1006D015
:1005E000C2ED010AC2ED020A08325B1EF8D100EB2F
:1005F0008100BCF10102A0EC011A19D0B2F1004F48
:1006000080F00882002A13DD031F12F0010F1CBFC7
:10061000C3ED010A1B1D511008D000BFC3ED010A34
:10062000C3ED020A491E03F10803F7D100EB820073
:10063000BCF1010CC2D14FF000080395002D14BF8E
:10064000B0EE602A002000F0BF8100BF009908FBD7
:1006500005F001EB800B0199DBED002A01EB800036
:100660000346F0EE421AC64552D9AEEB0802ABEB98
:10067000850112F0010F17D001EB850191ED000A01
:10068000B5EEC00AF1EE10FA07DDB4EEE10AF1EEC4
:1006900010FA09DDF0EE401A06E0B1EE400AF4EE81
:1006A000C01AF1EE10FAF5D3521031D001EB850CDF
:1006B0009CED000AB5EEC00AF1EE10FA05DDB4EECD
:1006C000E10AF1EE10FA09DD06E0B1EE400AF4EEBF
:1006D000C01AF1EE10FA01D2F0EE401A01EBC5019A
:1006E00091ED000AB5EEC00AF1EE10FA05DDB4EEA8
:1006F000E10AF1EE10FA09DD06E0B1EE400AF4EE8F
:10070000C01AF1EE10FA01D2F0EE401A521ECDD10D
:10071000F5EEC01AF1EE10FA00F07381F5EEC02A82
:100720000126F1EE10FA0099D4BFB1EE620AB0EEE4
:10073000620AB4EE610AF1EE10FA1CBFAEEB0802D9
:10074000B2F1010C47D005FB08F201EB820292EDF9
:10075000001A00BFB0EE410A05FB06F4B5EEC00A70
:1007600000EB8404F1EE10FACCBFF0EE400AF1EE9B
:10077000400AF4EE610AF1EE10FA28D1B5EB080C4C
:1007800011D0BCF1004F7DD2BCF1000F0BDD00BFDA
:1007900092ED000AD1ED000ABCF1010CE2EC010A75
:1007A000A1EC010AF4D129000ED0B1F1004F6AD2B8
:1007B000002909DD94ED000AD0ED000A491EE4ECA1
:1007C000010AA0EC010AF5D1012002900BE0761C91
:1007D000BCF1010CBED10298012804D0F5EEC02A6C
:1007E000F1EE10FA7ED09BED000AB5EB08009A46B8
:1007F0005946064622D0B0F1004F74D200281DDDC4
:10080000091F10F0010F06D0F0EE400A80EEA01A8A
:1008100081ED011A091D401010D000BFD1ED010A71
:10082000401E80EE801A81ED011A91ED021AC1EE90
:10083000000AC1ED020A01F10801EFD1280026D01B
:10084000B0F1004F7ED2002821DDAAF1040110F0A2
:10085000010F06D0D1ED010A80EE801A81ED011A58
:10086000091D401013D000BFD1ED010A401E80EEDB
:10087000801A81ED011AD1ED020A80EE801A81ED15
:10088000021A01E0CBE0D6E001F10801ECD1DDE98C
:1008900000124FF000095FEA0E0773D0C14504BF94
:1008A00001EB860102EB850274D091ED000ADC4673
:1008B0005046330035D01C46B6F1004F7ED2002C96
:1008C0002FDD0B1FABF1040C16F0010F0FD0F0EE73
:1008D000400ADCED011AB0EE601A00EEE11A83ED79
:1008E000011A01E08DE0B1E01B1D0CF1040C741045
:1008F00015D000BFD3ED010A9CED011A40EE410A6C
:10090000C3ED010AD3ED020A9CED021A0CF1080CAA
:1009100040EE410AC3ED020A0833641EEAD101EB3E
:1009200086012B0036D0B3F1004F72D2002B31DD9F
:10093000A2F1040CAAF1040013F0010F0CD0DCEDBD
:10094000010A00E08BE090ED011A001D40EE410A23
:10095000CCED010A0CF1040C5C1019D0DCED010A9D
:1009600090ED011A40EE410ACCED010ADCED020ADD
:1009700090ED021A083040EE410ACCED020A03E085
:10098000000000000DE005E0641E0CF1080CE5D14C
:1009900002EB830201EB88017F1E09F101097FF45C
:1009A0007DAF009808F10108001D00900398401EDB
:1009B00003907FF44BAE0299012900E058E004BF98
:1009C00006B0BDE8F08F00BFB5EEC00AF1EE10FA38
:1009D0007FF4E9AD04990EFB05F3002B4A684FF054
:1009E00000010BD902EB810C9CED000AB5EEC00AA8
:1009F000F1EE10FA02D1491C8B42F3D88B427FF4FE
:100A0000D2AD6FF00400CEE5E0EC010A491EFBD147
:100A1000EFE538E0E0EC010A521EFBD108E692ED6A
:100A2000000AD1ED000ABCF1010CE2EC010AA1ECD4
:100A3000010AF4D1B7E694ED000AD0ED000A491E90
:100A4000E4EC010AA0EC010AF5D1BDE6D1ED000A03
:100A5000401E80EE801AA1EC011AF7D1EEE6D3ED2C
:100A6000000A401E80EE801AA3EC011AF7D10EE7AF
:100A7000BCEC011AD1ED000A5B1E40EE410AE1EC2C
:100A8000010AF5D14DE7B0EC011AD2ED000A5B1E68
:100A900040EE410AE2EC010AF5D17BE72DE9F04F87
:100AA00082B0466853680193058847884B880020C8
:100AB00000900888874201BFB2F800C0654552889F
:100AC00093421EBF6FF0020002B0BDE8F08F9FEDB1
:100AD000412A4FEA970EC7F3400B00BFDDE9000241
:100AE00002EB800A4A6898464FF00009B0EE420ACD
:100AF000B4465FEA0E0025D092ED001ADCED001A34
:100B000002EB8302DCED010A01EE810A92ED001A8C
:100B100002EB8302401ED2ED001A02EB830200EECC
:100B2000810A9CED021ADCED030A00040CF1100CA2
:100B3000000C01EE210A92ED001A02EB830200EE96
:100B4000810AD9D117F0030026D0ACF10404A2EB3E
:100B5000830210F0010F08D002EB8302D4ED010AEA
:100B600092ED001A241D00EE810A5FEA0B0013D0FB
:100B700002EB830CD4ED010A9CED001A02EBC302D8
:100B8000401E00EE810AD4ED020A92ED001A04F133
:100B9000080400EE810AEBD109F10100AAEC010A78
:100BA0001FFA80F9486800EB8902A8F101001FFADA
:100BB00080F8B8F1000F99D1009806EB8706184429
:100BC00080B20090681E05042D0C87D102B0002071
:100BD000BDE8F08F0000000070B405880E884468FE
:100BE000D1F804C05368B54208D14088498888428A
:100BF00001BF11888D425188884203D070BC6FF0CC
:100C00000200704705FB00F1880827D094ED001A18
:100C1000DCED000A94ED010ADCED011A31EE601AF8
:100C2000D4ED020A70EE611A9CED020A83ED001AFF
:100C3000C3ED011A94ED031ADCED031A30EEC00A7D
:100C4000401E71EE610A83ED020A04F11004C3ED47
:100C5000030A03F110030CF1100CD7D111F00300BB
:100C600030D0B0F1004F30D200282BDD211F1B1FE8
:100C7000ACF1040210F0010F0AD091ED010AD2ED9F
:100C8000010A091D121D30EE600A83ED010A1B1DC9
:100C9000400817D091ED010AD2ED010A401E30EE56
:100CA000600A83ED010A91ED020AD2ED020A01F118
:100CB000080102F1080230EE600A83ED020A03F136
:100CC0000803E7D170BC00207047B4EC010A401E55
:100CD000FCEC010A30EE600AA3EC010AF5D1F1E761
:100CE0002DE9F04F02884768B0F802804888D1F8B3
:100CF000049082B04FF0000A1646824207BF09886E
:100D000088456FF0020002B018BFBDE8F08F4FEACF
:100D1000980B02EB42000190C8F34000CDF80000B0
:100D200009EB8A01BBF1000F33D0019801EB820C73
:100D300001EB80043B46E64601EBC2054FEA0B009F
:100D400093ED000A401E81ED000A93ED010A01EBCC
:100D500002118CED000A93ED020A0CEB021C85EDEA
:100D6000000A93ED030A05EB021584ED000A04EB7B
:100D7000021403F11003E3D10EEB820000EB8200BA
:100D800000EB8201ABF10100504307EB0B1701EBC5
:100D9000001118F0030C21D03B1FA1EB82011CF0C5
:100DA000010F06D093ED010A01EB82011B1D81EDBD
:100DB000000A009880B100BF93ED010A01EB8204A4
:100DC00001EBC20184ED000A93ED020A401E81EDA1
:100DD000000A03F10803EFD107EB8C070AF10100C9
:100DE0001FFA80FA701E0604360C99D102B000205A
:100DF000BDE8F08F70B5064600F06EF9056806F1A3
:100E00000B0020F00704B4429CBF002070BD2B46AD
:100E10006A68BAB11068A04210D304F10801884290
:100E20003CBF5068586007D3516810194160116881
:100E3000091B016058601460101D70BD1346526894
:100E4000002AE7D12146284600F04EF90028DED1DD
:100E500070BD53EA020C00F069802DE9F04B4FF0B1
:100E60000006002B1FBFB3FA83F503FA05F424FA3A
:100E700005F65E4012BF1643B2FA82F502FA05F497
:100E8000C5F120051EBF22FA05FC44EA0C042035FA
:100E900056EA044C4FEA144418BF641C4FF0000893
:100EA0004FF00009904271EB030C39D3002919BFB0
:100EB000B1FA81F701FA07F6B0FA80F700FA07F6FF
:100EC000C7F120071EBF20FA07FC46EA0C062037B0
:100ED000B6FBF4FCA7EB0507103F07F01F0BCBF1A7
:100EE00020060CFA0BFB2CFA06F644BFB34600268C
:100EF000202FA4BF5E464FF0000B5BEA060C08BF34
:100F00004FF0010B19EB0B09ABFB027C48EB060819
:100F1000C01B06FB02CC0BFB03CC71EB0C01C1E741
:100F20000B46024641464846BDE8F08B13B54FF0EC
:100F300000004FF00001AFF30080BDE81C40704797
:100F4000032A40F2308010F0030C00F0158011F8F5
:100F5000013BBCF1020F624498BF11F801CB00F8CD
:100F6000013B38BF11F8013BA2F1040298BF00F821
:100F700001CB38BF00F8013B11F0030300F02580DE
:100F8000083AC0F0088051F8043B083A51F804CB05
:100F9000A0E80810F5E7121D5CBF51F8043B40F8CB
:100FA000043BAFF30080D20724BF11F8013B11F8D6
:100FB00001CB48BF11F8012B24BF00F8013B00F81A
:100FC00001CB48BF00F8012B704710B5203AC0F0A4
:100FD0000B80B1E81850203AA0E81850B1E818503A
:100FE000A0E81850BFF4F5AF5FEA027C24BFB1E877
:100FF0001850A0E8185044BF18C918C0BDE81040E8
:101000005FEA827C24BF51F8043B40F8043B08BFF0
:101010007047D20728BF31F8023B48BF11F8012BB7
:1010200028BF20F8023B48BF00F8012B704702F0B0
:10103000FF0343EA032242EA024200F002B84FF003
:1010400000020429C0F0128010F0030C00F01B8095
:10105000CCF1040CBCF1020F18BF00F8012BA8BFA3
:1010600020F8022BA1EB0C0100F00DB85FEAC17C67
:1010700024BF00F8012B00F8012B48BF00F8012B1A
:1010800070474FF0000200B513469446964620394B
:1010900022BFA0E80C50A0E80C50B1F12001BFF431
:1010A000F7AF090728BFA0E80C5048BF0CC05DF897
:1010B00004EB890028BF40F8042B08BF704748BFE5
:1010C00020F8022B11F0804F18BF00F8012B704759
:1010D000704770477047000000487047987F0020B5
:1010E000704770477047704738B504460A4600207D
:1010F0006946AFF30080002808BF38BD024600995A
:10110000204600F075F8012038BD012000F0A2B89B
:10111000F8B5AFF30080054600200C46102000BF54
:101120000646A819A0420DD9324669460020AFF301
:101130000080070008BF00F08DF80098A04218BF9B
:101140000546C419FFF7C8FF05600746F01D20F0EB
:1011500007004619284600F00AF8B44208BFF8BD57
:10116000A21B31463868BDE8F84000F041B80021C4
:101170000160C0E9011070471020704770B5044647
:10118000051FFFF7A9FF0068002C14BF446870BD5D
:10119000002C18BFAC423CBF20466468F8D30168FD
:1011A0000A18AA4218BF456003D12A6805461144AF
:1011B000016028684119A1421CBF6C6070BD616864
:1011C000696021680844286070BD10B500F00CF813
:1011D000006810BD10B5044600F006F8046010BDAC
:1011E00000487047907F002000487047907F0020A3
:1011F000034640688C46002818BF88423CBF03461F
:101200004068F8D318681844884207D00CF10300EE
:1012100020F00700001D411A521A0146081D0A60FD
:10122000FFF7ACBF1FB584B000200A9C06AB04AA30
:1012300002A90094AFF3008018B1DDE9020108B003
:1012400010BD0348204000F040F800200146F6E7BA
:101250000000207C10B500F03FF8BDE8104000F021
:101260002FB870477546FFF7BBFFAE4605006946CD
:10127000534620F00700854618B020B5FFF766F802
:10128000BDE820404FF000064FF000074FF0000887
:101290004FF0000B21F00701AC46ACE8C009ACE808
:1012A000C009ACE8C009ACE8C0098D46704710B56C
:1012B0000446AFF300802046BDE81040FEF7D1BFE2
:1012C000002801D000F030B8704710B500F04CF89D
:1012D000BDE81040FFF7F4BF10B5012805D000218C
:1012E00003A000F027F8012010BD09A1F8E70000D5
:1012F00053494752544D454D3A204F7574206F66FF
:101300002068656170206D656D6F72790000000066
:101310003A2048656170206D656D6F727920636F4A
:10132000727275707465640001491820ABBEFEE7E7
:101330002600020070B505460C460A2000E06D1C30
:1013400000F068F835B128780028F8D102E0641C74
:1013500000F060F814B120780028F8D1BDE87040A2
:101360000A2000F057B8000010B5022803D0410150
:1013700003D50DA112E0002010BD010101D50FA180
:101380000CE0C10001D511A108E0810001D512A136
:1013900004E0400001D513A100E0002115A0FFF7F3
:1013A000C9FF012010BD0000496E76616C696420A0
:1013B0004F7065726174696F6E00000044697669F0
:1013C0006465204279205A65726F00004F7665721D
:1013D000666C6F7700000000556E646572666C6F16
:1013E00077000000496E65786163742052657375FB
:1013F0006C7400005349474650453A204172697465
:10140000686D6574696320657863657074696F6E73
:101410003A20000008B569468DF800000320ABBEF5
:1014200008BD000010B501221021024801F06EFF36
:1014300010BD00000000024010B50022102102483B
:1014400001F064FF10BD00000000024010B5012251
:101450001146024801F05AFF10BD0000000402408E
:1014600010B500220121024801F050FF10BD00001C
:101470000004024010B50446FFF7DEFF922000F0A2
:10148000A3F906229549122000F07EF9FFF7CAFF62
:1014900092484078000200B2904909780843904988
:1014A00008800846B0F9000000EE100AB8EEC00A45
:1014B0008C48D0ED000A20EE200AD4ED080A20EE78
:1014C000200A84ED000A8548C078000200B28349F2
:1014D00089780843824908800846B0F9000000EE88
:1014E000100AB8EEC00A7F48D0ED000A20EE200AAC
:1014F000D4ED080A20EE200A84ED010A77484079ED
:10150000000200B275490979084375490880084608
:10151000B0F9000000EE100AB8EEC00A7148D0ED34
:10152000000A20EE200AD4ED080A20EE200A84EDFD
:10153000020AFFF795FF08226849002000F024F90D
:10154000FFF784FF654800780F284FD16648007880
:10155000F0B36248C078000200B26049897808435D
:101560005F49088094ED090A0846B0F9000000EED2
:10157000900AF8EEE00A5D4890ED001A10EE810A3C
:1015800084ED030A55484079000200B253490979B5
:1015900008435349088094ED0A0A0846B0F9000050
:1015A00000EE900AF8EEE00A504890ED001A10EEB6
:1015B000810A84ED040A4948C079000200B2474913
:1015C000897908434649088094ED0B0A084600E0F3
:1015D0000DE0B0F9000000EE900AF8EEE00A434892
:1015E00090ED001A10EE810A84ED050A44E03B48B4
:1015F000C078000200B23949897808433849088028
:101600000846B0F9000000EE100AB8EEC00A3748EC
:10161000D0ED000A20EE200A84ED030A2F4840791D
:10162000000200B22D49097908432D490880084677
:10163000B0F9000000EE100AB8EEC00A2B48D0ED59
:10164000000A20EE200A84ED040A2448C079000232
:1016500000B2224989790843214908800846B0F937
:10166000000000EE100AB8EEC00A2048D0ED000AD3
:1016700020EE200A84ED050AFFF7DEFEA22000F02E
:10168000A3F802221549222000F07EF8FFF7CAFED7
:1016900012480078C0001149497840EA61101049A9
:1016A00008800846B0F90000B0F5806F05DB0846F9
:1016B0000088A0F5006000B208800948B0F9000079
:1016C00000EE100AF8EEC00AB4EE001AB3EE070AF4
:1016D00000EE810A84ED070A10BD00008E01002093
:1016E00096010020500100206001002054010020DC
:1016F00070B504460D461C48046000201B49087064
:1017000007F0E4FF1949097808431849087008F000
:1017100093F8164909780843144908701DB1144814
:1017200000F084F91CE09FED130A114880ED090ACE
:101730009FED110A80ED0A0A9FED0F0A80ED0B0A5A
:101740009FED0E0A80ED0C0A90ED0C0ADFED0C0AFD
:1017500080EE801A80ED081A9FED0A0A80ED060AD5
:101760000248007870BD0000980100205A01002056
:10177000B41A0020AC38223BB016CE393F161B41BC
:10178000C3F51C410000204270B506460C461546C4
:1017900046F0800000F018F806E0552000F014F83C
:1017A0002070641C681EC5B2002DF6D170BD70B5E6
:1017B00004460D4644F0800000F006F8552000F085
:1017C00003F8287070BD000001B582B04FF47A7044
:1017D000012301AA02A900900348006802F010FD4D
:1017E0009DF804000EBD00009801002070B505466C
:1017F0000C462846FFF7E8FF2046FFF7E5FF70BDDF
:10180000D2ED020A92ED021AB6EE000A00EEC10A0B
:10181000D2ED030A92ED031A00EEC10AD0ED000AE0
:1018200020EE200AD2ED010A92ED021A60EE810A42
:1018300092ED001AD2ED031A41EE610A90ED011A01
:1018400000EE810AD2ED010A92ED031A60EE810AE0
:1018500092ED001AD2ED021A41EE210A90ED021A21
:1018600000EE810AF0EE000A20EE200A81ED000A67
:1018700092ED010AD2ED020A20EE200AD2ED000A12
:1018800092ED031A00EE810AD0ED000A60EE200A04
:1018900092ED011AD2ED011AB6EE000A01EE610ACC
:1018A000D2ED031A92ED032AB0EE401A01EEC21AED
:1018B000D0ED011AB0EE600A01EE210AD2ED020A63
:1018C00092ED031A60EE810A92ED001AD2ED011A30
:1018D00041EE610A90ED021A00EE810AF0EE000A74
:1018E00020EE200A81ED010A92ED010AD2ED030AF1
:1018F00020EE200AD2ED000A92ED021A00EEC10A93
:10190000D0ED000A20EE200AD2ED020A92ED031A71
:1019100060EE810A92ED001AD2ED011A41EE210A21
:1019200090ED011A00EE810A92ED011AD2ED011A32
:10193000F6EE000A41EE610A92ED021AD2ED021AA9
:1019400041EE610A90ED021A00EE810AF0EE000A03
:1019500020EE200A81ED020A704700BFFEE700007A
:1019600010B5024800F03AFF10BD0000280C00201E
:1019700010B5024800F032FF10BD0000500C0020EE
:10198000F8B507460C4615461E464FF400700D4943
:10199000086000208860C86008200861380A0A4989
:1019A00008704F70200A8870CC70280A08714D7139
:1019B000300A8871CE716B460A460249034800F02E
:1019C00026FDF8BD0811002080000020280C002012
:1019D000F8B507460C4615461E4640F2FF100D4965
:1019E000086000208860C86008200861380A0A4939
:1019F00008704F70200A8870CC70280A08714D71E9
:101A0000300A8871CE716B460A460249034800F0DD
:101A1000FEFCF8BDF010002078000020280C00200B
:101A20000178014A117070478800002070B52DEDD3
:101A3000048B88B0044600200690079000F04CFB11
:101A4000FE4880ED000A00BF00F046FBFB48D0EDE9
:101A5000000A30EE600AF2EE040AB4EEE00AF1EE9B
:101A600010FA14DD9FEDF60A84ED090A9FEDF50AE0
:101A700084ED0A0A9FEDF30A84ED0B0A9FEDF20A4A
:101A800084ED0C0A9FEDF10A84ED060A55E29FED04
:101A9000F00A00F0DDFA9FEDEF0A84ED0C0A9FEDED
:101AA000ED0A84ED090A9FEDEB0A84ED0A0A9FED29
:101AB000E90A84ED0B0A002673E1FFF7BDFC9220D2
:101AC000FFF782FE062206A91220FFF75DFEFFF750
:101AD000A9FC9DF81900000200B29DF8181040EA18
:101AE000010500EE105AB8EEC00ADB48D0ED000A3E
:101AF00020EE200A84ED000A9DF81B00000200B2CF
:101B00009DF81A1040EA010500EE105AB8EEC00A1E
:101B1000D148D0ED000A20EE200A84ED010A9DF89C
:101B20001D00000200B29DF81C1040EA010500EE05
:101B3000105AB8EEC00AC848D0ED000A20EE200ABC
:101B400084ED020AD4ED000A60EEA00A94ED011AB9
:101B5000D4ED011A41EE210A94ED021AD4ED021AD5
:101B600041EE210AB0EE600A07F048FDB0EE408A6F
:101B700094ED0C0A30EE080A84ED0C0AFFF770FCB5
:101B8000082206A90020FFF7FFFDFFF75FFC9DF884
:101B900018000F2850D19DF81B00000200B29DF8DC
:101BA0001A1040EA010500EE105AB8EEC00AAB4820
:101BB000D0ED000A20EE200A84ED030A94ED090A14
:101BC000D4ED030A30EE200A84ED090A9DF81D00C9
:101BD000000200B29DF81C1040EA010500EE105A08
:101BE000B8EEC00A9D48D0ED000A20EE200A84ED30
:101BF000040A94ED0A0AD4ED040A30EE200A84EDBA
:101C00000A0A9DF81F00000200B29DF81E1040EA6B
:101C1000010500EE105AB8EEC00A9048D0ED000A57
:101C200020EE200A84ED050A94ED0B0AD4ED050A96
:101C300030EE200A84ED0B0A06BBF0EE488AB0EEC7
:101C4000489A002017E004F10C0101EB800191EDAE
:101C5000000A03A901EB800181ED000A04F10C01E7
:101C600001EB800191ED000A694601EB800181EDF5
:101C7000000A411CC8B20328E5DB49E0B4EEE88A5B
:101C8000F1EE10FA01DDF0EE488AB4EEC98AF1EE09
:101C900010FA01D2B0EE489A002037E004F10C01AE
:101CA00001EB800191ED000A03A901EB8001D1ED68
:101CB000000AB4EEE00AF1EE10FA0ADD04F10C01BC
:101CC00001EB800191ED000A03A901EB800181ED98
:101CD000000A04F10C0101EB800191ED000A694654
:101CE00001EB8001D1ED000AB4EEE00AF1EE10FA4A
:101CF0000AD204F10C0101EB800191ED000A694662
:101D000001EB800181ED000A411CC8B20328C5DB4C
:101D100038EEC90A524880ED000A002012E003A9FB
:101D200001EB800191ED000A694601EB8001D1EDE4
:101D3000000A30EE600A4B4901EB800181ED000A98
:101D4000411CC8B20328EADB454890ED000AF6EED4
:101D5000000AB4EEE00AF1EE10FA1BDC414890ED07
:101D6000000ADFED410AB4EEE00AF1EE10FA11DCF0
:101D700090ED010ADFED3C0AB4EEE00AF1EE10FA54
:101D800008DC90ED020ADFED380AB4EEE00AF1EE6D
:101D900010FA00DD0AE09FED350A00F059F9701CD9
:101DA00086B2334800888642FFF687AE00BFD4ED86
:101DB0000C0A2F48008800EE100AB8EE400A80EEA8
:101DC000801A84ED0C1A002015E004F1240101EBC7
:101DD0008001D1ED000A2649098800EE101AB8EEFC
:101DE000400A80EE801A04F1240101EB800181EDAC
:101DF000001A411CC8B20328E7DBFFF71DFBA22035
:101E0000FFF7E2FC022206A92220FFF7BDFCFFF744
:101E100009FB9DF81800C0009DF8191040EA6115F3
:101E2000B5F5806F02DBA5F5006005B200EE105A33
:101E3000F8EEC00AB4EE001A1CE000008801002091
:101E4000AC38223BB016CE393F161B410000204271
:101E50000AD7A33B000000005001002054010020DD
:101E60005C010020A81A00209A99193E6F12033ACB
:101E70008C010020B3EE070A00EE810A84ED060A09
:101E800034480088401C00B232490880324890ED46
:101E9000000AF6EE000AB4EEE00AF1EE10FA3FF79F
:101EA000D3AD94ED0C0ADFED2D0A30EE600AB0EEF2
:101EB000C00AF6EE000AB4EEE00AF1EE10FAEEDC2B
:101EC000274890ED000A5FED180AB4EEE00AF1EE43
:101ED00010FAE4DC90ED010A5FED1D0AB4EEE00AB1
:101EE000F1EE10FADBDC90ED020A5FED210AB4EEB0
:101EF000E00AF1EE10FAD2DC94ED090AB0EEC00A65
:101F0000DFED180AB4EEE00AF1EE10FAC7DC94ED4A
:101F10000A0AB0EEC00ADFED130AB4EEE00AF1EEF1
:101F200010FABCDC94ED0B0AB0EEC00ADFED0D0A2E
:101F3000B4EEE00AF1EE10FAB1DC00BF94ED0C0A49
:101F4000DFED090A80EE801A84ED081A08B0BDECB6
:101F5000048B70BD620100205C010020CDCC1C41CF
:101F6000A81A00200AD7233CC3F51C4101680A4B7C
:101F7000CAB2103AA3FB02321209084B9B5CC3653C
:101F8000032A04D96FF30901091D816502E06FF38B
:101F900009018165806D7047ABAAAAAA36EF0008D7
:101FA000014600208A6A8B69002B0FD0B3F5005FD1
:101FB0001DD08AB3012A30D0022A2ED0032A04D1A0
:101FC000C96A11F0807F00D0012070471AB1012A40
:101FD00007D0022AF9D1C96A11F0807FF5D001201B
:101FE0007047C96AB1F1C07FFAD1012070475AB178
:101FF000012A0BD0022A07D0032AF7D1C96AB1F10E
:10200000C07FF3D10120704701207047C96A11F0E9
:10201000807FFAD001207047FFE701207047000061
:1020200008B5084840680090074900980968884248
:1020300004D206480068401C044908600249009820
:10204000086008BD001000E0500000204C00002097
:102050000C494868F0EE400A00BF0A494968091A6D
:1020600001EE101AF8EE411A074991ED001AB8EE88
:10207000411A20EE811AF4EEC11AF1EE10FAECD3F7
:1020800070470000001000E04000002010B52DED6A
:10209000028B82B004460E48406801902068019986
:1020A000081A00EE100AF8EE400A0A4890ED000AFD
:1020B000B8EE400A80EE801AB0EE418A01982060A6
:1020C000FFF7AEFFB0EE480A02B0BDEC028B10BDC8
:1020D000001000E04000002010B52DED028B00F054
:1020E00059F80F4890ED000AB8EE400A808800EEDB
:1020F000900AF8EE600A9FED0B1A00EE810A08487C
:10210000C08800EE900AF8EE600A9FED071A00EE14
:10211000810AB0EE408AB0EE480ABDEC028B10BDD9
:10212000380000206F12833ABD378635124909689E
:1021300041F08071104A11600021104A516011462F
:10214000096841F0010111600D4941430D4A1160D8
:10215000114609684FF47A72B1FBF2F10A4A116034
:1021600008490968064AB1FBF2F1084A11600021EA
:10217000074A116070470000FCED00E0001000E02D
:1021800040420F0040000020440000204800002092
:102190004C00002038B5294840680090FFF740FF08
:1021A000274800684FF0FF31A0FB01310098181854
:1021B00041F10001234A03C2234800232149026858
:1021C00003C9FEF746FE214A03C220480CC81E4838
:1021D00000680024A2FB001503FB005002FB040270
:1021E0001848D0E90030591A60EB0200184AC2E9D9
:1021F0000010164800681749086017480023144962
:10220000026803C9FEF725FE1249888008468088C7
:102210001149096841430E48D0E90030591A60F16C
:1022200000000E4AC2E900100D4800230B49026865
:1022300003C9FEF70EFE0749C88038BD001000E054
:102240004C000020580000204000002060000020CA
:1022500068000020380000204400002070000020AA
:1022600048000020704710B5012000F035FF10BD78
:1022700010B5082000F030FF10BD10B5102000F0A0
:102280002BFF10BD10B5202000F026FF10BDD2EDB1
:10229000020A92ED021AB6EE000A00EEC10AD2ED71
:1022A000030A92ED031A00EEC10AD0ED000A20EEF7
:1022B000200AD2ED010A92ED021A60EE810A92ED37
:1022C000001AD2ED031A41EE210A90ED011A00EE38
:1022D000810AD2ED010A92ED031A60EE810A92EDB5
:1022E000001AD2ED021A41EE610A90ED021A00EED8
:1022F000810AF0EE000A20EE200A81ED000A92ED3C
:10230000010AD2ED020A20EE200AD2ED000A92ED77
:10231000031A00EEC10AD0ED000A60EE200A92ED29
:10232000011AD2ED011AB6EE000A01EE610AD2EDF1
:10233000031A92ED032AB0EE401A01EEC21AD0ED54
:10234000011AB0EE600A01EE210AD2ED020A92ED06
:10235000031A60EE810A92ED001AD2ED011A41EEE5
:10236000210A90ED021A00EE810AF0EE000A20EE3A
:10237000200A81ED010A92ED010AD2ED030A20EE56
:10238000200AD2ED000A92ED021A00EE810AD0ED89
:10239000000A20EE200AD2ED020A92ED031A60EE46
:1023A000810A92ED001AD2ED011A41EE610A90ED18
:1023B000011A00EE810A92ED011AD2ED011AF6EE31
:1023C000000A41EE610A92ED021AD2ED021A41EEC4
:1023D000610A90ED021A00EE810AF0EE000A20EE8A
:1023E000200A81ED020A7047704790F82020012AE8
:1023F00007D0022A05D0416A41F4802141620120C0
:10240000704700684269114341610020704770B411
:1024100090F82040D0F800C0DCF808C0012C08D0AB
:10242000022C06D0416A41F48021416270BC012037
:1024300070470CF080640CF000652C4302D11CF056
:10244000805F5FD0CCF3016CBCF1020F06D9416A0A
:1024500041F40001416270BC01207047012404FA7C
:102460000CF41C608B684FF4C0749BB1CD6804EB16
:102470000C162B434D6843EAC5030568AB514FF476
:10248000C273066803EB0C130D69F550097D012931
:1024900009D00DE00D88CB6804EB0C1643EA4553D8
:1024A0000568AB51EBE70168CD5845F48075CD5018
:1024B0001179D379557941EA036193791B0443EA91
:1024C000052319434FF4C675036805EB0C155951E4
:1024D0001178D37841EA0361937852781B0443EA78
:1024E000022211434FF4C473026803EB0C13D15062
:1024F000016804EB0C100A5842F001020A5070BC4B
:1025000000207047416A41F40011416270BC012013
:102510007047000090F82020012A07D0022A05D039
:10252000416A41F480214162012070474248D0F85D
:10253000002242F00102C0F80022D0F8002222F46A
:102540007C52C0F80022D0F800224B6A42EA0322F3
:10255000C0F800220A7D012302F01F0203FA02F2F2
:10256000D0F81C329343C0F81C32CB69D3B9D0F8F1
:102570000C329343C0F80C32B1F80CC04B686CF3CA
:102580001F43D1F814C000EBCC0CCCF84032B1F8AA
:1025900008C00B686CF31F43D1F814C000EBCC0CDF
:1025A000CCF84432CB69012B1AD1D0F80C3213434A
:1025B000C0F80C32B1F800C04B686CF31F43D1F87F
:1025C00014C000EBCC0CCCF84032B1F808C0CB689A
:1025D0006CF31F43D1F814C000EBCC0CCCF84432A0
:1025E0008B697BB1D0F804321343C0F804320B6915
:1025F00073B1D0F814321343C0F81432096A0129B8
:102600000CD010E0D0F804329343C0F80432EEE767
:10261000D0F814329343C0F81432EFE7D0F81C120C
:102620001143C0F81C12D0F8001221F00101C0F8CB
:10263000001200207047000000640040704710B492
:1026400090F820C0BCF1010F09D0BCF1020F06D0F8
:10265000416A41F48021416210BC0120704739B1C8
:10266000D0F800C0DCF810C01CF0030F7DD006E0ED
:10267000D0F800C0DCF80CC01CF0030F7BD04FF486
:10268000D87C04680CEB011C54F80C4004F00404E2
:102690009460002C7DD0046854F80C40E408546029
:1026A000046854F80CC0CCF3400CC2F80CC04FF4D2
:1026B000DA7C04680CEB011C54F80C4004F00F04A5
:1026C0001461046854F80C40C4F30724946104684E
:1026D00054F80CC04FEA1C4CC2F814C04FF4DC7222
:1026E000D0F800C002EB01125CF802C083F800C011
:1026F000D0F800C05CF802C04FEA1C2C83F801C07F
:10270000D0F800C05CF802C04FEA1C4C83F802C04D
:10271000D0F800C05CF80220120EDA704FF4DE72BE
:10272000D0F800C002EB01125CF802C083F804C0CC
:10273000D0F800C05CF802C04FEA1C2C83F805C03A
:10274000D0F800C05CF802C04FEA1C4C83F806C009
:10275000D0F800C05CF80220120EDA71F9B10068FE
:10276000016941F02001016102E00BE003E010E0AB
:1027700010BC00207047416A41F40011416210BC56
:1027800001207047416A41F40011416210BC0120F0
:102790007047046854F80C40640D146080E70068CA
:1027A000C16841F02001C160DEE70246002092F8D6
:1027B0002010012901D002290FD111688A6812F076
:1027C000806F00D001208A6812F0006F00D0401C9A
:1027D000896811F0805F00D0401C70472DE9F05FE0
:1027E0000546002428684669D0F804908768D0F828
:1027F0000CA0D0F810B0D0F8188016F0010F54D00B
:1028000017F0010F17D00121816017F0020F03D0DC
:10281000284600F08FFB0EE017F0040F02D04FF4B3
:10282000006408E017F0080F02D04FF4805402E073
:10283000284600F07EFB17F4807F19D029684FF4FA
:102840008070886017F4007F03D0284600F074FB86
:102850000EE017F4806F02D044F4005408E017F43F
:10286000006F02D044F4804402E0284600F063FB8D
:1028700017F4803F19D029684FF48030886017F42E
:10288000003F03D0284600F059FB0EE017F4802FDC
:1028900002D044F4004408E017F4002F02D044F4BE
:1028A000803402E0284600F048FB16F0080F07D0FD
:1028B0001AF0100F04D044F4007429681020C86086
:1028C00016F0040F4FF0080707D01AF0080F04D0D5
:1028D0002868C760284600F0FFF916F0020F07D0FD
:1028E0002868C06810F0030F02D0284600F0F6F9FF
:1028F00016F0400F07D01BF0100F04D044F4806492
:1029000029681020086116F0200F07D01BF0080F6F
:1029100004D028680761284600F0D6FA16F0100F98
:1029200007D02868006910F0030F02D0284600F095
:10293000CCFA16F4003F08D019F0100F05D0296822
:1029400010204860284600F0C1FA16F4803F07D0F6
:1029500019F0080F04D028684760284600F0EFFA05
:1029600016F4004F4AD019F0040F44D016F4807FBB
:1029700004D018F0010F01D044F0010416F4007FD8
:1029800004D018F0020F01D044F0020416F4806F56
:1029900004D018F0040F01D044F0040416F4006FC2
:1029A00029D018F0700F26D008F07000402815D0FC
:1029B00006DC102809D020280AD0302816D10AE0D9
:1029C00050280ED0602811D10EE044F008040DE02C
:1029D00044F010040AE044F0200407E044F040040E
:1029E00004E044F0800401E044F4807428688169C4
:1029F00021F070018161296804204860002C05D015
:102A0000686A204368622846FFF718FEBDE8F09F19
:102A100070B50446002C03D094F8200010B104E0F7
:102A2000012070BD204600F0A7F82068016821F061
:102A30000201016000F072FC0546206840684FF01A
:102A4000050610F0020F11D000F068FC401B0A28A8
:102A500007D9606A40F40030606284F82060012089
:102A600070BD2068406810F0020FEDD12068016849
:102A700041F00101016000F051FC0546206840680A
:102A800010F0010F11D100F049FC401B0A2807D9B2
:102A9000606A40F40030606284F82060012070BDFC
:102AA0002068406810F0010FEDD0207E01283FD053
:102AB0002068016821F080010160607E01283DD01E
:102AC0002068016821F040010160A07E01283BD010
:102AD0002068016821F020010160E07E012839D0E2
:102AE0002068016841F010010160207F012837D083
:102AF0002068016821F008010160607F012835D05D
:102B00002068016821F004010160E168A068626941
:102B100008432169114308436168491E084321683D
:102B2000C86100206062012084F82000002070BD90
:102B30002068016841F080010160BEE720680168FB
:102B400041F040010160C0E72068016841F02001C8
:102B50000160C2E72068016821F010010160C4E74C
:102B60002068016841F008010160C6E7206801683B
:102B700041F004010160C8E710B586B00446142195
:102B800001A8FEF77EFA4E492068884241D14D489F
:102B90000068401C4B4908600846006801280FD1B6
:102BA00000BF002000904848006840F0007046498F
:102BB00008600846006800F00070009000BF00BF89
:102BC00000BF0020009040481038006840F0080026
:102BD0003D49103908600846006800F00800009080
:102BE00000BF00BF0320019002200290002003904C
:102BF000032004900920059001A9344800F078FAD8
:102C000000220621142000F03BFD142000F02AFDD4
:102C100054E02F492068884250D100BF0020009026
:102C20002948006840F0806027490860084600682D
:102C300000F08060009000BF00BF22480068401C88
:102C4000204908600846006801280FD100BF002015
:102C500000901D48006840F000701B49086008465D
:102C6000006800F00070009000BF00BF00BF0020AF
:102C7000009015481038006840F0020012491039E1
:102C800008600846006800F00200009000BF00BF26
:102C90006020019002200290002003900320049005
:102CA0000920059001A90B4800F022FA0022062114
:102CB000402000F0E5FC402000F0D4FC06B010BD40
:102CC000006400401800002040380240000C024020
:102CD00000680040000402407047000010B58AB050
:102CE000044601AB03AA00212046FFF7A8FC724866
:102CF000844279D10398A0F20120082875D2DFE838
:102D000000F004050607CA08090A00BF00BF00BF9B
:102D100000BF00BF00BF0398401E68490870084606
:102D2000007800EB8000664931F8200000B263496A
:102D3000097801EB8101624A02EB810108819DF86B
:102D400005009DF8041040EA01205C49097801EB78
:102D5000810122F821009DF807009DF8061040EA45
:102D6000012000B25549097801EB810102EB810194
:102D700048809DF809009DF8081040EA012000B243
:102D80004E49097801EB810102EB810188809DF8B1
:102D90000A004A49097801EB810102EB810188713F
:102DA0004648007800EB8000114631F82000434986
:102DB000097801EB810102EB8101B1F90810401A99
:102DC000B0F5805F12DD3D48007800EB80001146D1
:102DD00001EB80000069401E3849097801EB810150
:102DE00002EB8101086125E057E054E033480078A8
:102DF00000EB8000324931F820003049097801EBBE
:102E000081012F4A02EB8101B1F90810401A10F537
:102E1000805F0FDA2948007800EB8000114601EB53
:102E200080000069401C2549097801EB810102EB13
:102E3000810108612149097801EB8101204A32F8BA
:102E400021104FF4B47201FB02F0C11700EBD14125
:102E500049131A4A127802EB8202194B03EB8202E1
:102E60001269C2EB021202EB420201EBC20100EE58
:102E7000101AB8EEC00A1149097801EB81011A460F
:102E800002EB810181ED030A0C490978491CC8B2A3
:102E900007F0A2F800E000BF0BE00A48844208D126
:102EA0000398052803D101A8FEF7BAFD00E000BF92
:102EB00000BF0AB010BD0000280C002089000020CF
:102EC00064100020500C002070477047704770B5A8
:102ED000044694F82000012805D0606A40F40020E0
:102EE0006062012070BD022084F820002068016823
:102EF00021F00101016000F011FA054620684068E8
:102F000010F0010F12D000F009FA401B0A2808D96E
:102F1000606A40F400306062052084F820000120DF
:102F200070BD2068406810F0010FECD10020606295
:102F300070BD704770477047704770477047704763
:102F400010B50446002C02D0607910B106E00120D3
:102F500010BD00202071204600F006F802206071AC
:102F600001206071002010BD08B50A4A0168914235
:102F70000FD100BF002100910749096841F4805139
:102F8000054A11601146096801F48051009100BFA3
:102F900000BF08BD003002403038024090F83510C4
:102FA000022903D08021416501207047052180F866
:102FB00035100068016821F00101016000207047B0
:102FC0002DE9F041044600F0A9F90546DCB10026E0
:102FD00084F83460022084F835002068016821F00C
:102FE000010101602068006810F0010F13D000F0AB
:102FF00095F9401B052809D920206065032084F835
:103000003500BDE8F0810120BDE8F081206800684E
:1030100010F0010FEBD121680868234A1040A36823
:103020006268D4F810C01A43E36843EA0C031A43F9
:1030300063691A43A3691A43E3691A43236A1A436B
:103040001043626A042A03D1236BE26A1A431043D5
:1030500008602068406920F00701606A40EA0105C5
:10306000012704280ED1A06A0543E06A50B120462A
:10307000FEF796FF30B14020606584F8357001207E
:10308000BDE8F081206845612046FEF76FFF94F8A7
:103090005C103F2202FA01F18160666584F83570A8
:1030A0000020BDE8F08100003F8010F070B50446BC
:1030B00000F034F90546B4F1FF3F02D0044800782F
:1030C000044400F02BF9401BA042FAD370BD00006D
:1030D000000500207047000010B504490A6802424C
:1030E00002D00860FFF7F6FF10BD0000143C01405D
:1030F0002DE9F84F0022DFF80082DFF80092DFF8B8
:1031000000A24FF0030E0F27012303FA02F50B680C
:103110002B40AB427DD1D1F804C0BCF1020F02D0EC
:10312000BCF1120F12D14FEAD20C00EB8C0CDCF880
:1031300020605407E40E07FA04FB26EA0B06D1F8D8
:1031400010B00BFA04F43443CCF8204006684FEA80
:10315000420C0EFA0CF4A64391F804B00BF0030BEA
:103160000BFA0CFB4BEA060606604E68012E05D0F2
:10317000022E03D0112E01D0122E11D18668A64343
:10318000D1F80CB00BFA0CFB4BEA060686604668D9
:1031900026EA05050E79C6F30016964035434560CC
:1031A000C56825EA04048D6805FA0CFC4CEA040C99
:1031B000C0F80CC0D1F804C01CF0805F7DD0D8F8F6
:1031C00000C04CF4804CC8F800C0D8F800C00CF423
:1031D000804CCDF800C022F0030C0CF1804404F5C3
:1031E0009834D4F808C895072D0F07FA05F62CEA8D
:1031F0000606A0F1804CBCF5003C64D0A0F1804CE8
:10320000BCF5013C62D0A0F1804CBCF5023C60D022
:1032100000E052E0A0F1804CBCF5033C5CD0A0F192
:10322000804CBCF5043C5AD0A0F1804CBCF5053C68
:1032300058D0A0F1804CBCF5063C56D0A0F1804C93
:10324000BCF5073C54D04FF0080C0CFA05FC4CEAD6
:10325000060CC4F808C8D9F800C02CEA030C4C6866
:1032600014F4803F01D04CEA030CC9F800C0254C8F
:10327000D4F800C02CEA030C4D6815F4003F01D0CF
:103280004CEA030CC4F800C0DAF800C02CEA030CC6
:103290004C6814F4801F01D04CEA030CCAF800C03B
:1032A000194CD4F800C02CEA030C4D6815F4001F2B
:1032B00001D04CEA030CC4F800C0521C102AFFF4E1
:1032C00023AFBDE8F88F4FF0000CBEE74FF0010CC4
:1032D000BBE74FF0020CB8E74FF0030CB5E74FF037
:1032E000040CB2E74FF0050CAFE74FF0060CACE76B
:1032F0004FF0070CA9E7000044380240003C0140B1
:10330000083C0140043C01400C3C0140002A01D033
:10331000816170470904816170470000014880683D
:10332000704700000005002070B50446002C04D052
:1033300094F83D00002510B106E0012070BD84F82E
:103340003C50204600F0BCF8242084F83D00206862
:10335000016821F00101016000F056FB544B6168E7
:10336000994203D85349884203D304E05249884222
:1033700001D2012070BD5149B0FBF1F12268D2F8B1
:1033800004C02CF03F0C4CEA010CC2F804C0626887
:103390009A4201D84A1C07E04FF4967251434FF409
:1033A0007A72B1FBF2F14A1C2168D1F820C02CF0EE
:1033B0003F0C42EA0C020A626168994210D8490047
:1033C000401EB0FBF1F2521CC2F30B02042A01D2E0
:1033D000042026E0B0FBF1F0401CC0F30B0020E01D
:1033E000A268002A50D001EBC10303EB0113A0F146
:1033F000010CBCFBF3F35B1C43F480431B051B0D6A
:103400004AD0002A4AD001EBC10202EB0111401E52
:10341000B0FBF1F0401CC0F30B0040F4804040F4DE
:1034200000402168CA6922F0FF0222F44F42104393
:10343000C861216AE06901432068026822F0C00285
:1034400011430160E168206901432068826822F02D
:10345000FF0222F4034211438160A16960690143C4
:103460002068C26822F0FF021143C1602068016831
:1034700041F0010101602564202084F83D002563AE
:1034800084F83E50002070BD01EB4103A0F1010C17
:10349000BCFBF3F35B1CB1E70120C2E701EB410188
:1034A000401EB0FBF1F0401CC0F30B00B7E700007A
:1034B000A086010080841E0000093D0040420F00EC
:1034C00010B586B00446142101A8FDF7DAFD2A499B
:1034D000206888424DD100BF002000902748006836
:1034E00040F00400254908600846006800F0040028
:1034F000009000BF00BF00BF002000900846006899
:1035000040F0010008600846006800F001000090EB
:1035100000BF00BF481501901220029001200390C7
:10352000032004900420059001A91548FFF7E0FD51
:103530004FF480700190122002900120039003202C
:1035400004900420059001A90E48FFF7D1FD00BFAB
:103550000020009009481030006840F4000007493E
:10356000103108600846006800F40000009000BFB9
:1035700000BF06B010BD0000005C004030380240C3
:1035800000080240000002400248816802781144AD
:10359000816070470005002010B50B48016841F4B8
:1035A00000710160016841F480610160016841F4CB
:1035B00080710160032000F097F80F2000F006F8FA
:1035C00000F026F8002010BD003C024070B5044613
:1035D0000D4D4FF47A712878B1FBF0F00B49096872
:1035E000B1FBF0F000F008FF08B1012070BD102C15
:1035F00007D200222146501E00F042F86C600020E5
:1036000070BD012070BD00000005002024000020D6
:1036100008B500BF002000901148006840F48040C9
:103620000F4908600846006800F48040009000BF21
:1036300000BF00BF00200090081F006840F08050CD
:10364000091F08600846006800F08050009000BF25
:1036500000BF00220F21901E00F012F808BD0000EC
:103660004438024000280ADB00F01F01012202FA60
:1036700001F14009800000F1E020C0F8001170471E
:1036800010B4184B1B68C3F30223C3F1070CBCF141
:10369000040F01D94FF0040C1C1D072C01D200238C
:1036A00000E0DB1E012404FA0CFCACF1010C0CEA76
:1036B0000101994004FA03F35B1E1A4011430028EC
:1036C00006DB00F1E020090180F8001410BC70470F
:1036D00000F00F0000F1E020090180F8141D10BC7B
:1036E000704700000CED00E000F00700064A11688A
:1036F0004FF6FF03194041EA002040F0FD7040F012
:1037000080601060704700000CED00E02DE9F84388
:1037100004464FF0010820784FF0000710F0050F25
:1037200033D0DFF84491C9F86870FFF7F7FD06461B
:103730004E4D286810F0006F0BD0FFF7EFFD801B97
:10374000022802D90320BDE8F883286810F0006F32
:10375000F3D16068217A800140EA01704449086031
:10376000C9F86880FFF7DAFD0646286810F0006F98
:103770000BD1FFF7D3FD801B022802D90320BDE83F
:10378000F883286810F0006FF3D0207810F0020F53
:103790005CD03848016841F080510160006800F059
:1037A00080500090344D286840F480702860FFF706
:1037B000B5FD0646286810F4807F0BD1FFF7AEFDFB
:1037C000801B022802D90320BDE8F883286810F482
:1037D000807FF3D0294D286800F4407028B3A18978
:1037E00001F44071814220D0286820F440702449BF
:1037F000C1F800800F602860286810F0010F14D015
:10380000FFF78CFD0646286810F0020F0DD141F23B
:103810008837FFF783FD801BB84202D90320BDE83B
:10382000F883286810F0020FF3D0E0684FF440717D
:1038300031EA000213490CD0086820F4F81008603F
:103840002868A189C1F30B01084328600020BDE866
:10385000F8830A6820F4407022F4F81220F07040D7
:1038600010430860ECE700000000474200380240C7
:1038700084380240403802400070004070380240F6
:10388000400E4742083802402DE9F04704460D46F5
:10389000002C13D0DFF85091D9F80000EFB200F0FF
:1038A0000F00A8420DD289F80070D9F8000000F08E
:1038B0000F00A84205D00120BDE8F0870120BDE837
:1038C000F0872068494E10F0020F14D010F0040F5A
:1038D00003D0306840F4E0503060207810F0080FDA
:1038E00003D0306840F4604030603068A16820F058
:1038F000F00008433060207810F0010F3ED060687F
:103900003B49012808D002280DD003280BD00968B4
:1039100011F0020F28D00AE0096811F4003F06D127
:103920000120BDE8F087096811F0007F19D03168E7
:1039300021F0030108433060FFF7F0FC8046306857
:10394000616800F00C00B0EB810F17D041F2883AAB
:10395000FFF7E4FCA0EB0800504508D90320BDE8C0
:10396000F0870120BDE8F0870120BDE8F0873068CE
:10397000616800F00C00B0EB810FE9D1D9F80000CC
:1039800000F00F00A8420AD989F80070D9F80000A9
:1039900000F00F00A84202D00120BDE8F087207897
:1039A00010F0040F05D03068E16820F4E0500843BF
:1039B0003060207810F0080F06D03068216920F4BC
:1039C000604040EAC100306000F03EF83168094ACA
:1039D000C1F30311515CC840074908600F20FFF78D
:1039E000F5FD0020BDE8F087003C024008380240A9
:1039F00000380240B4E800082400002001480068B4
:103A0000704700002400002000B5FFF7F7FF0449CD
:103A10000968044AC1F38221515CC84000BD00001E
:103A200008380240C4E8000800B5FFF7E7FF044982
:103A30000968044AC1F34231515CC84000BD00002E
:103A400008380240C4E8000810B51748006810F0B4
:103A50000C01164816D0164B042912D0082911D192
:103A6000144C216801F03F02216811F4800F0AD044
:103A70002068C0F38810A0FB03010023FDF7E9F9DB
:103A800009E0184610BD21680023C1F38811A1FB8D
:103A90000001FDF7DEF92168C1F30141491C49002D
:103AA000B0FBF1F010BD0000083802400024F40023
:103AB000001BB700043802402DE9F84F0446002CE3
:103AC00010D02078FA4D10F0010F64D0F948016849
:103AD00001F00C0104290DD0006800F00C0008284A
:103AE00003D011E00120BDE8F88FF348006810F41E
:103AF000800F09D0286810F4003F4CD0606800287F
:103B000049D10120BDE8F88F6068B0F5803F14D03E
:103B1000B0F5A02F16D0286820F4803028602868DF
:103B200020F480202860606810B3FFF7F7FB06469A
:103B3000286810F4003F0ED02DE0286840F4803053
:103B40002860F0E7286840F480202860286840F466
:103B500080302860E7E7FFF7E1FB801B642802D98B
:103B60000320BDE8F88F286810F4003FF3D012E07E
:103B7000FFF7D4FB0646286810F4003F0BD0FFF790
:103B8000CDFB801B642802D90320BDE8F88F28688C
:103B900010F4003FF3D12078C84F10F0020F4FF01F
:103BA000000856D0C348016811F00C0F15D000680A
:103BB00000F00C00082804D1BF48006810F4800F02
:103BC0000BD0E06878B301203860FFF7A7FB06460A
:103BD000286810F0020F12D01DE0286810F0020FC4
:103BE00005D0E068012802D00120BDE8F88F2868E0
:103BF000216920F0F80040EAC100286029E0FFF7C1
:103C00008DFB801B022802D90320BDE8F88F2868AD
:103C100010F0020FF3D02868216920F0F80040EA84
:103C2000C100286015E0FFE7C7F80080FFF776FBCA
:103C30000646286810F0020F0BD0FFF76FFB801BC1
:103C4000022802D90320BDE8F88F286810F0020F7F
:103C5000F3D1207810F0080F33D09948DFF8649240
:103C60006169B9B101210160FFF758FB0646D9F837
:103C7000000010F0020F24D1FFF750FB801B022838
:103C800002D90320BDE8F88FD9F8000010F0020F28
:103C9000F2D016E0C0F80080FFF740FB0646D9F8E6
:103CA000000010F0020F0CD0FFF738FB801B022839
:103CB00002D90320BDE8F88FD9F8000010F0020FF8
:103CC000F2D1207810F0040F73D04FF00009DFF824
:103CD000F8A1DAF8000010F0805F0CD1DAF80000EB
:103CE00040F08050CAF80000DAF8000000F0805080
:103CF00000904FF00109DFF8D4B1DBF8000010F4B8
:103D0000807F1AD1DBF8000040F48070CBF800000F
:103D1000FFF704FB0646DBF8000010F4807F0CD1AF
:103D2000FFF7FCFA801B022802D90320BDE8F88FB8
:103D3000DBF8000010F4807FF2D0A068DFF890B1CB
:103D4000012818D005281DD0DBF8000020F0010064
:103D5000CBF80000DBF8000020F00400CBF80000F6
:103D6000A06838B3FFF7DAFA0646DBF8000010F077
:103D7000020F14D03CE0DBF8000040F00100CBF86B
:103D80000000EDE7DBF8000040F00400CBF8000095
:103D9000DBF8000040F00100CBF80000E0E7FFF79F
:103DA000BDFA811B41F28830814204D90320BDE86D
:103DB000F88F26E005E0DBF8000010F0020FEED0EF
:103DC00016E0FFF7ABFA0646DBF8000010F0020F32
:103DD0000ED0FFF7A3FA811B41F28830814202D94D
:103DE0000320BDE8F88FDBF8000010F0020FF0D1DF
:103DF000B9F1010F05D1DAF8000020F08050CAF8BF
:103E00000000A069E8B32B49096801F00C010829FA
:103E10006BD0022810D0C7F86080FFF77FFA044605
:103E2000286810F0007F5ED0FFF778FA001B0228A8
:103E300055D90320BDE8F88FC7F86080FFF76EFA08
:103E40000646286810F0007F0BD0FFF767FA801B4A
:103E5000022802D90320BDE8F88F286810F0007FFF
:103E6000F3D1216AE069A26A0843616A4FF0FF3327
:103E7000890103EB520241EA0241084394F82C10F5
:103E800000E030E040EA01610B4801600120386643
:103E9000FFF744FA0446286810F0007F23D1FFF7AB
:103EA0003DFA001B022815D90320BDE8F88F1CE05D
:103EB00000380240083802400438024000004742FF
:103EC000800E474274380240403802400070004083
:103ED00070380240286810F0007FE0D003E02868C6
:103EE00010F0007FA0D10020DFE70120DDE770B5F2
:103EF0000446002C02D0607F10B106E0012070BDA6
:103F000000202077204600F04FF8022060772168DB
:103F1000CA204862216853204862204604F044FBCE
:103F2000FF25042620B1206845626677012070BD18
:103F30002068816821F0400121F4E001816020685F
:103F4000816862686369114322691A431143816081
:103F50002168E068086120680169228941EA02411C
:103F600001612068C16821F08001C160206880681B
:103F700010F0200F08D1204600F036F820B120685C
:103F800045626677012070BD2068016C21F48021B4
:103F900001642068016CA2691143016420684562D4
:103FA00001206077002070BD1FB5044600200090FE
:103FB0000190029003900949206888420CD10220A8
:103FC0000090074803906846FFF7A0FB08B1FEF792
:103FD0000BFA0120034908601FBD000000280040C3
:103FE00000031E003C0E474270B504462068C168BD
:103FF00021F0A001C160FFF791F905462068C06873
:1040000010F0200F0CD1FFF789F9401BB0F57A7F33
:1040100001D9032070BD2068C06810F0200FF2D0D5
:10402000002070BD70B50446002C05D00025A562A7
:1040300094F8510010B106E0012070BD84F8505092
:10404000204600F031F8022084F851002068016811
:1040500021F040010160A168606822690843E168BD
:104060001143084361690843218B01F4007108433F
:10407000E1690843216A0843A16A0843216808608E
:10408000A069042101EA1040616A08432168486080
:104090002068C16921F40061C1616565012084F86F
:1040A0005100002070BD000010B586B004461421F8
:1040B00001A8FCF7E6FF4B49206888427ED100BF8B
:1040C000002000904848006840F48050464908604D
:1040D0000846006800F48050009000BF00BF00BF99
:1040E0000020009040481438006840F002003E492B
:1040F000143908600846006800F00200009000BF14
:1041000000BF00BF002000900846006840F001009A
:1041100008600846006800F00100009000BF00BF82
:1041200018200190022002900120039003200490A7
:104130000520059001A92D48FEF7DAFF80200190A7
:104140000220029001200390032004900520059096
:1041500001A92748FEF7CCFF2648274908604FF001
:10416000C0604860002124488160C1604FF48061D4
:104170000161002141618161C1614FF440310162FF
:1041800000214162FEF71CFF08B1FEF72DF900BFC8
:104190001948E064846300BF164818301749086066
:1041A0004FF0C06048604021144881600021C16028
:1041B0004FF4806101610021416100E010E0816104
:1041C000C1614FF40031016200214162FEF7F8FE47
:1041D00008B1FEF709F900BF0848A064846300BF76
:1041E00006B010BD003001404438024000040240D7
:1041F0000000024040640240440D0020A40D002055
:104200002DE9F84F04460A9E8A4693461F4601252B
:104210004FF0000894F8500001280ED0012084F8D7
:104220005000FFF77BF8814694F85100616801283F
:104230000ED0B1F5827F07D102E00220BDE8F88FF1
:10424000A16809B9042803D04FF0020800F0CBB8E8
:10425000BAF1000F1DD0BBF1000F1AD0380018D0F2
:1042600094F85100042802D0052084F85100002061
:104270006065C4F838B0E787A787C4F830A0E78640
:10428000A786206460642068016811F0400F03D0A5
:1042900006E04FF00108A6E0016841F0400101602E
:1042A000E068B0F5006F05D06068002848D0012FA5
:1042B00046D07EE0606808B1012F3AD1206B2168BA
:1042C0000088C860206B801C2063E08E401EE08662
:1042D0002FE02068816811F0020F0DD0E18E59B1F6
:1042E000012D09D1216B0988C160206B801C2063DE
:1042F000E08E401EE08600252068816811F0010FE5
:104300000BD0E18F49B1C068A16B0880A06B801C05
:10431000A063E08F401EE0870125FEF7FFFFA0EBC2
:104320000900B04205D3B6F1FF3F02D04FF00308B9
:1043300059E0E08E0028CCD1E08F0028C9D13EE0C2
:10434000206B216800780873206B401C2063E08E8E
:10435000401EE0862DE02068816811F0020F0DD02C
:10436000E18E59B1012D09D1216B09780173206BC0
:10437000401C2063E08E401EE08600252068816896
:1043800011F0010F0BD0E18F49B1C068A16B08702B
:10439000A06B401CA063E08F401EE0870125FEF764
:1043A000BDFFA0EB0900B04202D3B6F1FF3F11D12F
:1043B00086B1E08E0028CED1E08F0028CBD14A46CE
:1043C0003146204604F012F938B14FF001082020A0
:1043D000606508E04FF0030805E0A06818B92068A0
:1043E000C16880680090012084F85100002084F8A2
:1043F00050004046BDE8F88F401EB0F1807F01D3E9
:10440000012070474FF0E0214861044AF02010700D
:1044100000208861072008610020704723ED00E03C
:1044200090F83C20012A2CD0012280F83C20CA6858
:104430000023D1F808C022F4407242EA0C02D1F8FD
:1044400004C022F4806242EA0C02D1F800C022F4D7
:10445000006242EA0C02D1F810C022F4805242EA13
:104460000C02D1F814C022F4005242EA0C02C969CD
:1044700022F4804211430268516480F83C300020ED
:1044800070470220704730B490F83C20012A1ED0BB
:10449000012480F83C40022280F83D200268D2F8D6
:1044A00004C093682CF0700C0D6845EA0C0C23F0E6
:1044B000800349681943C2F804C00268916080F81B
:1044C0003D40002180F83C1030BC0020704730BCDB
:1044D0000220704710B50446002C03D094F83D002C
:1044E00010B107E0012010BD002084F83C002046F8
:1044F00000F00CF8022084F83D00211D206804F033
:1045000091F9012084F83D00002010BD08B53F4A14
:10451000016891420FD100BF002100913C49096818
:1045200041F001013A4A11601146096801F00101A8
:10453000009100BF69E0374A0168914211D100BF84
:10454000002100913249091F096841F00201304AF7
:10455000121F11601146096801F00201009100BFAD
:1045600053E02D4A0168914211D100BF0021009112
:104570002749091F096841F00401254A121F1160EB
:104580001146096801F00401009100BF3DE0234A93
:104590000168914211D100BF002100911C49091FFF
:1045A000096841F008011A4A121F11601146096892
:1045B00001F00801009100BF27E0194A016891420B
:1045C0000FD100BF002100911149096841F002019B
:1045D0000F4A11601146096801F00201009100BF05
:1045E00013E0104A016891420FD100BF00210091F1
:1045F0000749096841F40031054A1160114609680C
:1046000001F40031009100BF00BF08BD000001406F
:10461000443802400004004000080040000C004004
:104620000004014000440140022180F83D1001686F
:104630008A6802F00702062A03D00A6842F00102E3
:104640000A60012180F83D100020704770B50446D3
:1046500094F83C00012818D0012584F83C50022031
:1046600084F83D002068826822F0770222F47F42BD
:1046700082600868502832D00EDC20284DD006DC3D
:1046800000284AD010284DD147E0022070BD3028C4
:1046900043D0402846D136E060282AD0702806D082
:1046A000B0F5805F3ED0B0F5005F3BD10BE0CB684A
:1046B0004A688968206804F02AF92068816841F016
:1046C000770181602EE0CB684A688968206804F031
:1046D0001EF92068816841F48041816022E0CA6847
:1046E0004968206804F01FFA5021206804F01AF984
:1046F00018E0CA684968206804F028FA6021206838
:1047000004F010F90EE0CA684968206804F00BFA5A
:104710004021206804F006F904E0226801461046B2
:1047200004F000F984F83D50002084F83C0070BD8E
:1047300010B586B00446142101A8FCF7A2FC8749F5
:104740002068884232D100BF002000908448006871
:1047500040F01000824908600846006800F0100030
:10476000009000BF00BF4FF4D4400190022002909F
:1047700001200390022004900120059001A97948AE
:10478000FEF7B6FC7848FFF74FFF0021764800F0AF
:1047900092F90421744800F08EF90821724800F063
:1047A0008AF90C21704800F086F9D5E06F4920683D
:1047B000884224D100BF002000906948006840F082
:1047C0000400674908600846006800F00400009093
:1047D00000BF00BF881501900220029001200390C5
:1047E00002200490059001A96148FEF781FC614810
:1047F000FFF71AFF08215F4800F05DF9ACE05E4961
:104800002068884234D15D48FFF70EFF08215B48DD
:1048100000F051F900BF002000905148006840F0BE
:1048200080004F4908600846006800F08000009052
:1048300000BF00BF4FF4E050019002200290012021
:10484000039002200490059001A94D48FEF750FC0A
:104850004C48FFF7E9FE00214A4800F02CF90421FA
:10486000484800F028F90821464800F024F973E090
:1048700045492068884246D100BF00200090384852
:10488000006840F48070364908600846006800F40B
:104890008070009000BF00BF00BF0020009008465D
:1048A000006840F0040008600846006800F004005A
:1048B000009000BF00BF4020019002200290012024
:1048C0000390022004900320059001A92F48FEF7D1
:1048D0000FFC402001900220029001200390022052
:1048E00004900320059001A92148FEF701FC284807
:1048F000FFF79AFE0021264800F0DDF80421244845
:1049000000F0D9F828E023492068884224D100BF6C
:10491000002000901248006840F020001049086014
:104920000846006800F02000009000BF00BF402053
:1049300001900220029001200390022004900320A5
:10494000059001A91448FEF7D3FB1448FFF76CFE4D
:104950000021124800F0AFF806B010BD0000014081
:104960003038024000100240040E002000040040D5
:1049700000080240440E0020000C0040840E00207D
:10498000001C0240C40E0020000401400020024030
:10499000040F00200044014000140240440F002096
:1049A00070B504460D4694F83C0001280DD0012650
:1049B00084F83C60022084F83D0042B1042A1AD0F9
:1049C000082A2DD00C2A53D13EE0022070BD294682
:1049D000206803F0AFFF2068816941F00801816120
:1049E0002068816921F004018161206881692A6958
:1049F000114381613CE02946206803F0D3FF206821
:104A0000816941F4006181612068816921F48061DC
:104A10008161206881692A6941EA0221816127E078
:104A20002946206803F0FAFF2068C16941F00801B7
:104A3000C1612068C16921F00401C1612068C169B8
:104A40002A691143C16113E02946206804F022F865
:104A50002068C16941F40061C1612068C16921F425
:104A60008061C1612068C1692A6941EA0221C1618E
:104A700084F83D60002084F83C0070BD10B5044609
:104A8000002C03D094F83D0010B107E0012010BDC8
:104A9000002084F83C00204600F00CF8022084F846
:104AA0003D00211D206803F0BDFE012084F83D007B
:104AB000002010BD704710B504460122206803F0A5
:104AC00017FF2168A1F18040B0F5803004D0A1F13A
:104AD0008040B0F5823003D1486C40F40040486417
:104AE0002068816801F00701062903D0016841F0C0
:104AF00001010160002010BD7047000010B50446A0
:104B000022681068D168526900F00F03002B0AD1A7
:104B100010F0200F07D011F0200F04D02046BDE880
:104B2000104004F048B8002B6BD002F0010301F4F0
:104B3000907C53EA0C0364D010F0010F06D011F4FE
:104B4000807F03D0E36B43F00103E36310F0040FB5
:104B500006D012F0010F03D0E36B43F00203E363CE
:104B600010F0020F06D012F0010F03D0E36B43F0F8
:104B70000403E36310F0080F06D012F0010F03D016
:104B8000E26B42F00802E263E26B002A2ED010F0E2
:104B9000200F05D011F0200F02D0204604F00BF8B2
:104BA00020684069C0F38010E16B11F0080F00D15C
:104BB00008B3204603F0E4FF2068416911F0400F7C
:104BC00015D0416921F040014161606B58B118492D
:104BD0000165606BFEF7E2F9002807D0606B016D9C
:104BE000BDE8104008472046FFF786FF10BD20466D
:104BF000FFF782FF10BD2046FFF77EFF0020E06335
:104C000010BD10F0800F07D011F0800F04D02046A7
:104C1000BDE8104004F0BEB910F0400FF0D011F024
:104C2000400FEDD02046BDE8104003F0B7BF0000B4
:104C3000718B000870B50446002C04D094F839003C
:104C4000002510B106E0012070BD84F838502046E0
:104C500000F022F8242084F839002068C16821F48B
:104C60000051C160204603F0F5FF2068016921F47E
:104C7000904101612068416921F02A014161206869
:104C8000C16841F40051C160E563202084F8390017
:104C900084F83A00002070BD10B586B00446142197
:104CA00001A8FCF7EEF95E492068884256D100BFA2
:104CB000002000905B48006840F0100059490860EF
:104CC0000846006800F01000009000BF00BF00BF61
:104CD0000020009053481438006840F00200514909
:104CE000143908600846006800F00200009000BF18
:104CF00000BF00BF002000900846006840F001009F
:104D000008600846006800F00100009000BF00BF86
:104D10008020019002200290002003900320049044
:104D20000720059001A94048FEF7E2F94FF4007012
:104D3000019002200290002003900320049007209D
:104D4000059001A93948FEF7D3F900220521252055
:104D5000FEF796FC2520FEF785FC5EE034492068CE
:104D600088425AD100BF002000902E48001F0068E2
:104D700040F480202B49091F08600846006800F4B1
:104D80008020009000BF00BF00BF00200090254899
:104D90001438006840F004002249143908600846BD
:104DA000006800F00400009000BF00BF4FF44060B6
:104DB000019002200290002003900320049007201D
:104DC000059001A91B48FEF793F91B481B49086091
:104DD0004FF000604860002118488160C1604FF4C6
:104DE00080610161002141618161C1614FF4003145
:104DF000016200214162FEF7E3F808B1FDF7F4FA21
:104E000000BF0E486063846300BF00220421272096
:104E1000FEF736FC2720FEF725FC06B010BD00008B
:104E200000100140443802400004024000000240EB
:104E300000480040000802402860024004100020A2
:104E400090F83A30202B01D002207047F9B1F2B12E
:104E500090F83830012B1CD081628285C2850021F8
:104E6000C163222280F83A2080F838100168CA68AD
:104E700042F48072CA6001684A6942F001024A61E4
:104E80000068C16841F02001C16000207047012026
:104E9000704702207047000070B505463349286806
:104EA000884262D1324804783248007888B9A52C0B
:104EB0000BD1314801880088401C2F4A10802F48B0
:104EC000445401202B49087049E000202A490880F9
:104ED00045E02848007801281BD127480188008830
:104EE000401C254A1080254844541046008802285A
:104EF00035D122480178A52905D1417819B9022177
:104F00001C4A117004E000211B4A1180194A1170DB
:104F100025E018480078022821D117480188008828
:104F2000401C154A108015484454104600880E282D
:104F300015D1124E0C360E21104807F0E7FB40B198
:104F40000F49A6F10A0002680A6042684A600089B7
:104F500008810020084908800649087000BF012226
:104F600003490848FFF76CFF00BF70BD0010014007
:104F70004001002044010020420100207C1A002052
:104F80008A1A0020840F00207047000070B5044684
:104F900000202074A37B484D2D8803FB05F2616837
:104FA000D4F8F400FCF711F8A27B434B1B8802FBFA
:104FB00003F16068FCF765F8A27B3F4B1B885A43FE
:104FC000A37B02FB03F1D4F81801FCF75AF8227B0B
:104FD000394B1B885A43A37B02FB03F1D4F80C0125
:104FE000FCF74FF8002031E0D4F8F41001EB800119
:104FF00091ED000AB5EEC00AF1EE10FA24D0D4F813
:10500000F41001EB800191ED000A227CD4F8F41039
:1050100001EB820181ED000A227C616A8854A1695A
:1050200001EB800191ED000A6169095C227B237C20
:1050300012FB0311491ED4F80C2102EB810181ED12
:10504000000A217C491C2174411CC8B2A17B814209
:10505000CADC002011E0626A125CE16901EB8201A6
:1050600091ED000A227C00FB0202D4F8181101EB3A
:10507000820181ED000A411CC8B2217C8142EADC38
:10508000207CA4F87800217B7A200153207BA4F8AF
:105090008000217C82200153207CA4F89000217C98
:1050A00092200153207BA4F89800217C9A20015380
:1050B000207CA4F8480070BD9C01002000BFFEE7E2
:1050C00070B52DED088B86B004460D46164694ED5E
:1050D000040ACA48D0ED000A30EE600AB0EEC00AF9
:1050E000DFEDC70AB4EEE00AF1EE10FA22DC94ED2F
:1050F000050AC448D0ED000A30EE600AB0EEC00ADE
:10510000DFEDBF0AB4EEE00AF1EE10FA12DC94ED26
:10511000060ABD48D0ED000A30EE600AB0EEC00AC3
:10512000DFEDB70AB4EEE00AF1EE10FA02DC207807
:1051300000287DD094ED040ADFEDB40A80EE201A39
:10514000B0EE41BAB0EE4B0AFBF712F9F0EE408A2E
:1051500094ED050ADFEDAD0A80EE201AB0EE41BAFB
:10516000B0EE4B0AFBF704F9F0EE40AA94ED060A04
:10517000DFEDA60A80EE201AB0EE41BAB0EE4B0A7F
:10518000FBF7F6F8B0EE409A94ED040ADFED9F0AC3
:1051900080EE201AB0EE41BAB0EE4B0AFBF724F9CC
:1051A000B0EE40AA94ED050ADFED980A80EE201AD1
:1051B000B0EE41BAB0EE4B0AFBF716F9F0EE409AAA
:1051C00094ED060ADFED910A80EE201AB0EE41BAA6
:1051D000B0EE4B0AFBF708F9B0EE408A68EE890A98
:1051E0002AEE291AB0EE480A41EE000A8848C0EDBE
:1051F000000A2AEE8A0A874880ED000AB0EE480AC3
:1052000028EE800A69EE0A0A00EEE90A824880ED7B
:10521000000A68EEA90AB0EE480A20EE800A09EEFC
:105220004A0A7E4880ED000A28EEAA0A7C4800E07F
:1052300021E080ED000AF1EE4A0AB0EE480A20EEC5
:10524000800A68EE890A00EEE90A764880ED000AD5
:10525000F1EE6A0AB0EE480A20EE800A724880ED4C
:10526000000A7248C0ED009A2AEE890A704880ED63
:10527000000A00202070002011E005EB800191ED74
:10528000000A211D01EB8001D1ED000A20EE200A69
:1052900003A901EB800181ED000A411CC8B203287B
:1052A000EBDB9DED030A5A48D0ED000A20EE200A00
:1052B000DDED040A574890ED001A01EE200ADDEDFD
:1052C000050A554890ED001A01EE200A85ED000A06
:1052D0009DED030A5148D0ED000A20EE200ADDEDD5
:1052E000040A4F4890ED001A01EE200ADDED050A90
:1052F0004C4890ED001A01EE200A85ED010A9DED63
:10530000030A4948D0ED000A20EE200ADDED040A28
:10531000464890ED001A01EE200ADDED050A4448EA
:1053200090ED001A01EE200A85ED020A00200AE045
:1053300006EB800191ED000A694601EB800181EDE9
:10534000000A411CC8B20328F2DB9DED000A304878
:10535000D0ED000A20EE200ADDED010A2D4890ED87
:10536000001A01EE200ADDED020A2B4890ED001A2A
:1053700001EE200A86ED000A9DED000A2748D0EDD7
:10538000000A20EE200ADDED010A254890ED001A02
:1053900001EE200ADDED020A224890ED001A01EE2E
:1053A000200A86ED010A9DED000A1F48D0ED000A93
:1053B00020EE200ADDED010A1C4890ED001A01EEF6
:1053C000200ADDED020A1A4890ED001A01EE200ACB
:1053D00086ED020A94ED040A084880ED000A94ED77
:1053E000050A084880ED000A94ED060A064880ED9B
:1053F000000A06B0BDEC088B70BD0000E400002080
:105400006F12833AE8000020EC000020E12E654294
:10541000F0000020F4000020F8000020FC00002034
:105420000001002004010020080100200C010020E0
:105430001001002010B5044654F8EC0F90ED000A5E
:10544000834880ED000A206890ED010A814880EDD4
:10545000000A206890ED020A7F4880ED000A54F8A7
:10546000EC0990ED030A7D4880ED000A7848D0ED04
:10547000000A60EEA00A774890ED001AD0ED001AFD
:1054800041EE210A744890ED001AD0ED001A41EE69
:10549000210A724890ED001AD0ED001A41EE210A5F
:1054A000B0EE600A05F066FE6D4880ED000A00204F
:1054B00012E0D4F8EC1001EB800191ED000A68498C
:1054C000D1ED000A20EE200AD4F8EC1001EB8001A7
:1054D00081ED000A411CC8B20428EADB614890ED66
:1054E0006F0A5C48D0ED000A20EE200AF0EE000AB8
:1054F00080EE201AF834A06880ED041A594890ED27
:105500006F0A5548D0ED000A20EE200AF0EE000A9E
:1055100080EE201AA06880ED051A524890ED6F0ABF
:105520004B48D0ED000AF1EE600A20EE200AF0EEC2
:10553000000A80EE201AA06880ED0A1A494890ED12
:105540006F0A4648D0ED000A20EE200AF0EE000A6D
:1055500080EE201AA06880ED0B1A424890ED6F0A89
:105560003E48D0ED000AF1EE600A20EE200AF0EE8F
:10557000000A80EE201AA06880ED101A394890EDDC
:105580006F0A3348D0ED000AF1EE600A20EE200ADF
:10559000F0EE000A80EE201AA06880ED111A314862
:1055A00090ED6F0A2C48D0ED000A20EE200AF0EEB4
:1055B000000A80EE201AA06880ED161A294890EDA6
:1055C0006F0A2448D0ED000AF1EE600A20EE200AAE
:1055D000F0EE000A80EE201AA06880ED171A20680D
:1055E00090ED1C0A1F48D0ED720A80EE201A206848
:1055F00080ED1C1A206890ED230A1A48D0ED720A3B
:1056000080EE201A206880ED231A54F8F80990EDF6
:105610001C0ADFED150AB4EEE00AF1EE10FA05DD22
:105620009FED110AD4F8F80080ED1C0AD4F8F800B8
:1056300090ED230ADFED0C0AB4EEE00AF1EE10FA69
:1056400005DD9FED090AD4F8F80080ED230A10BDAE
:105650004002002044020020480200204C020020AA
:1056600050020020E81A002000401C4610B52DED25
:10567000068BF0EE408AB0EE609AB0EE41AAB0EE32
:10568000618AF0EE429A0120374908700846C0ED61
:105690006C8A80ED6D9A80ED6EAA9FED340A80EDE4
:1056A000710A002081F8380100212F4AC2F8401108
:1056B000C2F84411C2F84811C2F84C11B7EE000A02
:1056C000B4EEC08AF1EE10FA03DDB7EE000AB0EED8
:1056D000408A254880ED728AC0ED649A0323002237
:1056E0000621001D01F092F8B7EE000A1E48D0F81E
:1056F000EC0080ED000A9FED1E0A1B48D0F8EC007C
:1057000080ED010A9FED1A0A1748D0F8EC0080EDF1
:10571000020A9FED170A1448D0F8EC0080ED030A46
:1057200014491148C0F8D0101349C0F8D4101349D7
:10573000C0F8D8101249C0F8DC10012180F82E10F2
:1057400080F82F1001469022D1F804010D49FBF793
:105750003CFC05499022D1F8FC000B49FBF735FCD5
:10576000BDEC068B10BD0000E81A0020CDCCCC3D6E
:10577000000000008D57000835540008C15700088C
:105780001D5F0008A4E90008A001002010B5044630
:1057900054F8F81F90220748FBF717FC48220648E8
:1057A000616AFBF712FC6169F83C48220348FBF789
:1057B0000CFC10BDA0010020C01C0020081D002012
:1057C00010B5044654F8EC0F90ED000AF0EE000A14
:1057D00020EE200A3F4880ED000A206890ED010A83
:1057E000F0EE000A20EE200A3B4880ED000A206817
:1057F00090ED020AF0EE000A20EE200A374880ED14
:10580000000A206890ED030AF0EE000A20EE200A5C
:10581000334880ED000A14F8DE2C324B1B885A43C3
:1058200014F8E03C02FB03F1206AFBF72AFC2B484A
:1058300090ED000AB1EE400A206A80ED000A284887
:1058400090ED000A206A80ED010A224890ED000ADE
:10585000B1EE400A206A80ED020A1F4890ED000A6E
:10586000206A80ED030A1C4890ED000A206A80ED52
:10587000060A184890ED000A206A80ED070A1848C9
:1058800090ED000A206A80ED080A144890ED000AA5
:10589000206A80ED090A0F4890ED000A206A80ED29
:1058A0000C0A0D4890ED000AB1EE400A206A80ED26
:1058B0000D0A0A4890ED000AB1EE400A206A80ED18
:1058C0000E0A074890ED000A206AEC3C80ED0F0AB2
:1058D00010BD000054020020580200205C0200208D
:1058E000600200209C01002010B52DED088BB0EE69
:1058F00040AAF0EE60AAB0EE41BAF0EE618AB0EED6
:10590000429AF0EE629AB0EE438AFE48007858B9A7
:105910009FEDFD2AF7EE001A9FEDFC1ADFEDFC0A61
:10592000B2EE040AFFF7A2FEF64880ED6F8A90ED12
:10593000580A3AEE400A80ED5B0A90ED590A3AEEB9
:10594000C00A80ED5C0A90ED5A0A3BEE400A80EDF9
:105950005D0A90ED5B0AF6EE000A20EE200A20EECA
:10596000080AEC4880ED000AE64890ED5C0AF6EE85
:10597000000A20EE200A20EE080AE74880ED000A1F
:10598000E04890ED5D0AF6EE000A20EE200A20EED7
:10599000080AE24880ED000ADA499022D1F80401B1
:1059A000DF49FBF712FBDB4890ED000AB1EE400A3D
:1059B000D448D0F8040180ED010AD74890ED000AE0
:1059C000B1EE400ACF48D0F8040180ED020AD34876
:1059D00090ED000AB1EE400ACA48D0F8040180ED0B
:1059E000030ACC4890ED000AC648D0F8040180EDC7
:1059F000060ACA4890ED000AC248D0F8040180EDBA
:105A0000080AC54890ED000AB1EE400ABD48D0F83A
:105A1000040180ED090AC04890ED000AB948D0F8A9
:105A2000040180ED0C0ABD4890ED000AB1EE400A79
:105A3000B448D0F8040180ED0D0AB64890ED000A94
:105A4000B048D0F8040180ED0F0AB44890ED000A88
:105A5000AC48D0F8040180ED120AAF4890ED000A7E
:105A6000A848D0F8040180ED130AAA4890ED000A76
:105A7000B1EE400AA348D0F8040180ED140AA14811
:105A8000D0F84811D0F84C01002359405840014348
:105A900006D19C48C0ED5E8A80ED5F9AC0ED609AA9
:105AA000984890ED5E0AD0ED640A60EE200A90ED11
:105AB0006F0A90ED641A30EE011A80EE810AD0ED83
:105AC0006F0A90ED641A70EE810A90ED6F1A21EE64
:105AD000281AC1EE201A30EE210A80ED5E0A90ED00
