:020000040800F2
:1000000038CA00202903000863610008D5500008A1
:1000100061610008C3100008058B000800000000A3
:10002000000000000000000000000000690200085D
:10003000CB18000800000000C50200082D81000850
:100040004303000843030008430300084303000878
:100050004303000843030008CD18000843030008C9
:1000600043030008D3180008D91800084303000808
:100070004303000843030008430300084303000848
:100080004303000843030008430300084303000838
:10009000C51000084303000843030008DF180008E8
:1000A000430300082D8200084303000843030008AF
:1000B0004303000843030008430300084303000808
:1000C00043030008430300084303000843030008F8
:1000D000430300086589000843030008718900088C
:1000E00043030008430300084303000843030008D8
:1000F00043030008430300084303000843030008C8
:100100004303000843030008398200084303000842
:1001100043030008430300084303000843030008A7
:10012000430300082913000835130008430300089F
:100130004303000843030008430300084303000887
:10014000D1100008430300084303000843030008DC
:1001500043030008011800080D180008418A000830
:100160004303000843030008430300084303000857
:100170004303000843030008430300080000000095
:10018000430300084303000800F002F800F05CF8A5
:100190000AA090E8000C82448344AAF10107DA45E2
:1001A00001D100F051F8AFF2090EBAE80F0013F0D8
:1001B000010F18BFFB1A43F001031847C81E0100C6
:1001C000E81E01000A444FF0000C10F8013B13F048
:1001D000070408BF10F8014B1D1108BF10F8015BA0
:1001E000641E05D010F8016B641E01F8016BF9D193
:1001F00013F0080F1EBF10F8014BAD1C0C1B09D1EA
:100200006D1E58BF01F801CBFAD505E014F8016B5B
:1002100001F8016B6D1EF9D59142D6D370470000ED
:100220000023002400250026103A28BF78C1FBD8FF
:10023000520728BF30C148BF0B6070471FB510F090
:10024000DFFC1FBD10B510BD00F0B5FA1146FFF779
:10025000F5FF0CF07AFE00F0D3FA03B4FFF7F2FFDB
:1002600003BC00F0E3FA00002C4B19680868B0E802
:10027000F04F80F30988BFF36F8F4FF0000080F3D9
:10028000118870470000000008480068006880F38B
:1002900008884FF0000080F3148862B661B6BFF39F
:1002A0004F8FBFF36F8F00DF00BF00BF08ED00E08E
:1002B000DFF80C00016841F470010160704700BF75
:1002C00088ED00E0EFF30980BFF36F8F134B1A68DE
:1002D0001EF0100F08BF20ED108A20E9F04F1060CB
:1002E00009B44FF0500080F31188BFF34F8FBFF374
:1002F0006F8F0EF0FDFB4FF0000080F3118809BCFA
:1003000019680868B0E8F04F1EF0100F08BFB0EC95
:10031000108A80F30988BFF36F8F70476002002056
:10032000EFF30580704700000948804709480047FF
:10033000FEE7FEE7FEE7FEE7FEE7FEE7FEE7FEE795
:10034000FEE7FEE704480549054A064B70470000F2
:10035000D981000889010008388A002038CA0020A5
:1003600038AA002038AA00209FED1A1AF5EE000ADC
:1003700040EE010ABDEEE00AF5EEC00A10EE100AEA
:10038000F1EE10FA38BF401E00EE100A1349F7EEE6
:10039000001AB8EEC00A30EEC00ADFED0F0A20EEF8
:1003A000200AFCEEC00A10EE900AC0F3080000EE2E
:1003B000900A01EB8000F8EE600A90ED011A70EEF1
:1003C000600A90ED000A71EEE01A21EE800A00EE5C
:1003D000810A704783F9223E00000044E8160108B4
:1003E000DFED190AB5EEC00A60EE200ABDEEE01A94
:1003F00011EE100AF1EE10FA38BF401E00EE100A9E
:100400001349F7EE001AB8EEC00A30EEC00ADFED6D
:100410000F0A60EE200ABCEEE00A10EE100AC0F3EC
:10042000080000EE100A01EB8000B8EE400A90EDE3
:10043000011A70EEC00A90ED000A71EEE01A21EE8A
:10044000800A00EE810A704783F9223E00000044D2
:10045000E816010853EA020C00F069802DE9F04B20
:100460004FF00006002B1FBFB3FA83F503FA05F423
:1004700024FA05F65E4012BF1643B2FA82F502FA7C
:1004800005F4C5F120051EBF22FA05FC44EA0C0460
:10049000203556EA044C4FEA144418BF641C4FF050
:1004A00000084FF00009904271EB030C39D300298A
:1004B00019BFB1FA81F701FA07F6B0FA80F700FA2E
:1004C00007F6C7F120071EBF20FA07FC46EA0C0614
:1004D0002037B6FBF4FCA7EB0507103F07F01F0B16
:1004E000CBF120060CFA0BFB2CFA06F644BFB34600
:1004F0000026202FA4BF5E464FF0000B5BEA060CDF
:1005000008BF4FF0010B19EB0B09ABFB027C48EB6A
:100510000608C01B06FB02CC0BFB03CC71EB0C01E5
:10052000C1E70B46024641464846BDE8F08B13B58D
:100530004FF000004FF00001AFF30080BDE81C4019
:10054000704740EA0103024630B59B0710D14FF0D7
:10055000013400E008C208C91D1B9D4315EAC41FF1
:10056000F8D013F0FF0102F8011B0DD01B0AF8E7C9
:1005700011F8013B002B02F8013B05D011F8013BBB
:10058000002B02F8013BF3D130BD10B5431C02E053
:1005900010F8011B71B18107FAD14FF0013202C886
:1005A0008C1A8C4314EAC211F9D0C01A0A0603D07F
:1005B000C01E10BDC01A10BD0A0401D0801E10BD9F
:1005C0000902FCD0401E10BD032A40F2308010F01A
:1005D000030C00F0158011F8013BBCF1020F6244DE
:1005E00098BF11F801CB00F8013B38BF11F8013B6F
:1005F000A2F1040298BF00F801CB38BF00F8013B1C
:1006000011F0030300F02580083AC0F0088051F88B
:10061000043B083A51F804CBA0E80810F5E7121D96
:100620005CBF51F8043B40F8043BAFF30080D207B5
:1006300024BF11F8013B11F801CB48BF11F8012B81
:1006400024BF00F8013B00F801CB48BF00F8012BA4
:10065000704710B5203AC0F00B80B1E81850203A2E
:10066000A0E81850B1E81850A0E81850BFF4F5AF52
:100670005FEA027C24BFB1E81850A0E8185044BFDC
:1006800018C918C0BDE810405FEA827C24BF51F849
:10069000043B40F8043B08BF7047D20728BF31F83D
:1006A000023B48BF11F8012B28BF20F8023B48BF8E
:1006B00000F8012B704702F0FF0343EA032242EAED
:1006C000024200F002B84FF000020429C0F012808C
:1006D00010F0030C00F01B80CCF1040CBCF1020FF5
:1006E00018BF00F8012BA8BF20F8022BA1EB0C01CA
:1006F00000F00DB85FEAC17C24BF00F8012B00F8C0
:10070000012B48BF00F8012B70474FF0000200B5E5
:10071000134694469646203922BFA0E80C50A0E824
:100720000C50B1F12001BFF4F7AF090728BFA0E8D2
:100730000C5048BF0CC05DF804EB890028BF40F89E
:10074000042B08BF704748BF20F8022B11F0804FE0
:1007500018BF00F8012B704770477047704710B5FD
:1007600000F00CF8006810BD10B5044600F006F863
:10077000046010BD00487047D489002000487047CD
:10078000D48900201FB584B000200A9C06AB04AABF
:1007900002A90094AFF3008018B1DDE9020108B0AE
:1007A00010BD0348204000F039F800200146F6E76C
:1007B0000000207C70477546FFF7DCFFAE46050061
:1007C0006946534620F00700854618B020B5FFF76C
:1007D000B9FDBDE820404FF000064FF000074FF094
:1007E00000084FF0000B21F00701AC46ACE8C0094F
:1007F000ACE8C009ACE8C009ACE8C0098D46704758
:1008000010B50446AFF300802046BDE81040FFF766
:1008100024BD002801D000F009B8704710B500F0E1
:1008200025F8BDE81040FFF7F4BF0000014918208B
:10083000ABBEFEE72600020070B505460C460A2056
:1008400000E06D1C00F068F835B128780028F8D178
:1008500002E0641C00F060F814B120780028F8D1A0
:10086000BDE870400A2000F057B8000010B502281B
:1008700003D0410103D50DA112E0002010BD0101FC
:1008800001D50FA10CE0C10001D511A108E0810044
:1008900001D512A104E0400001D513A100E0002120
:1008A00015A0FFF7C9FF012010BD0000496E766159
:1008B0006C6964204F7065726174696F6E0000002E
:1008C000446976696465204279205A65726F000038
:1008D0004F766572666C6F7700000000556E646538
:1008E00072666C6F77000000496E657861637420F2
:1008F000526573756C7400005349474650453A2061
:1009000041726974686D65746963206578636570A8
:1009100074696F6E3A20000008B569468DF80000D2
:100920000320ABBE08BD08F02BB908F0BFB9FFF734
:100930001BBDF0EE400AF5EEC00AF1EE10FA02DD42
:10094000B0EE600A7047B1EE600AFBE7002803D002
:100950009FED020A80ED000A7047000000000000D1
:10096000002803D0B3EE060A80ED000A70470000AD
:1009700070B52DED0C8B84B006460C4615469FEDE8
:10098000990AF0EE408A9FED970AB0EE409A9FEDEB
:10099000950AF0EE40BA9FED930AF0EE409A9FED73
:1009A000910AB0EE40AA0EB104B11DB904B0BDEC7D
:1009B0000C8B70BD8C48FFF7C9FF8C48FFF7D0FF48
:1009C0008A48D0ED000A9FED8A1A60EE810AB0EEE7
:1009D000600A00F025F9F0EE408A28EEA80AF0EE51
:1009E000408A8248D0ED000AB0EE001A60EE810A1B
:1009F0009FED7F1A60EE810AB0EE600A00F010F9F8
:100A0000B0EE409A29EE090AB0EE409ADFED790A7D
:100A1000B7EE000A00EEA80ADFED770A00EEC90A79
:100A2000DFED760A20EE200A754880ED000A6E4858
:100A300090ED000ADFED730A80EE201AB7EE000A8F
:100A400031EE000A20EE000A6D48D0ED000A80EE7B
:100A5000801A6D4880ED001A94ED000AB5EEC00AC8
:100A6000F1EE10FA0DD194ED010AB5EEC00AF1EEE7
:100A700010FA06D194ED020AB5EEC00AF1EE10FAB2
:100A800046D09FED580AB0EE408A002001900290B7
:100A90000390D4ED000A60EEA00A94ED011AD4EDA3
:100AA000011A41EE210A94ED021AD4ED021A41EE28
:100AB000210AB0EE600A00F0A9F8B0EE408A94ED89
:100AC000000A20EE080A8DED010A94ED010A20EEDD
:100AD000080A8DED020A94ED020A20EE080A8DED57
:100AE000030ADDED010AF1EE600AB0EE600AFFF7DD
:100AF0001AFFF0EE409A9DED031AF0EE410A9DEDCB
:100B0000021AB0EE410AFFF710FFB0EE40AA07E06C
:100B10009FED340AF0EE409A9FED320AB0EE40AA03
:100B200095ED000AB5EEC00AF1EE10FA0DD195ED83
:100B3000010AB5EEC00AF1EE10FA06D195ED020AEF
:100B4000B5EEC00AF1EE10FA3CD0B0EE690A00F042
:100B500067F8B0EE408AB0EE690AFFF7E8FEB0EE43
:100B600040DAB0EE4A0A00F05BF8F0EE40AAB0EED0
:100B70004A0AFFF7DCFEB0EE40BA28EE2A0AD5EDAD
:100B8000010A20EE200AD5ED000A0DEE200A68EEDB
:100B90000B0A95ED021A00EE810AB0EE40CA95EDFF
:100BA000010A20EE0B0AD5ED020A0AEEE00AF0EE89
:100BB00040CAF0EE6C0AB0EE4C0AFFF7B6FEF0EE5B
:100BC00040BA03E09FED070AF0EE40BAB0EE4A1AD1
:100BD000F0EE690AB0EE6B0A304609F099FD00BFED
:100BE000E4E6000000000000280300202C030020A1
:100BF00035FA8E3CC1BFAD3B9DF8C5362F7C1C41FC
:100C000030030020506CC24A3403002010B508F0B5
:100C10004BFAB7EE001AC1EE000AB0EE600A10BD42
:100C2000FFF7DEBB2DE9F0412DED028B9AB00546B2
:100C3000B0EE408A0E46174698460020179018904E
:100C400019901490159016904DB146B13FB1B8F17E
:100C5000000F04D0B5EEC08AF1EE10FA05D10020E5
:100C60001AB0BDEC028BBDE8F08196ED000A8DED67
:100C7000170A96ED010A8DED180A96ED020A8DED20
:100C8000190A97ED000A8DED140A97ED010A8DED12
:100C9000150A97ED020A8DED160A17AA14A928461F
:100CA00009F04CFB402104A8FFF72FFD0020009025
:100CB000019002900390002417A904A80DF00CFCE9
:100CC00000BF30E004A800EB041090ED000AD5ED61
:100CD000000A20EE200A04A800EB0410D0ED010A5F
:100CE00095ED011A00EE810A04A800EB0410D0ED86
:100CF000020A95ED021A00EE810A04A800EB041026
:100D0000D0ED030A95ED031A00EE810A20EE080AE1
:100D1000F0EE000A80EE201A684600EB840080EDB9
:100D2000001A601CC4B2042CCCDB002410E005EBDC
:100D3000840090ED000A684600EB8400D0ED000AC4
:100D400030EE200A05EB840080ED000A601CC4B27E
:100D5000042CECDB28460CF07DFE012080E700002F
:100D600001221021014802F009B8000000000240F1
:100D700000221021014802F001B8000000000240EA
:100D80007047000001221146014801F0F7BF000042
:100D90000004024000220121014801F0EFBF0000E1
:100DA0000004024030B5437804781B021BB2234391
:100DB00000EE103A1B4CB8EEC00AD4ED000A20EE4B
:100DC000200A81ED000AC37885781B021BB22B43F1
:100DD00000EE103AF8EEC00A94ED000A60EE800AC8
:100DE000C1ED010A437904791B021BB2234300EED3
:100DF000903AF8EEE00A20EE800A81ED020A017ACC
:100E0000C3790904807941EA0321014300EE101AF5
:100E1000DFED050AB8EE400A20EE200A82ED000A56
:100E200030BD00002402002000401C4270470CF03E
:100E3000C1B80BF091B8000010B5427803781202E7
:100E400012B21A4300EE102A124BB8EEC00AD3EDCC
:100E5000010A20EE200A81ED000AC278847812028D
:100E600012B2224300EE102AF8EEC00A93ED010AF6
:100E700060EE800AC1ED010A42790079120212B2D5
:100E8000024300EE902AF8EEE00A20EE800A81ED9F
:100E9000020A10BD2402002010B5FFF771FFFFF712
:100EA000C5FF09F079FD08B1802402E009F0E6FCF5
:100EB000044609F037FF10B144F0400010BD09F0BE
:100EC000C3FE204310BD00002DE9FC4104460D4641
:100ED0001646002000900190FFF74AFF922000F094
:100EE000BFF806226946122000F09CF8FFF738FF91
:100EF0009DF801009DF80010000200B2084300EECA
:100F0000100A474FB8EEC00AD7ED000A20EE200ABB
:100F100085ED000A9DF803009DF80210000200B262
:100F2000084300EE100AF8EEC00A97ED000A60EEE2
:100F3000800AC5ED010A9DF805009DF80410000225
:100F400000B2084300EE900AF8EEE00A20EE800AB4
:100F500085ED020AFFF71EFF08226946002000F017
:100F600061F8FFF70FFF9DF800000F2830D19DF8C2
:100F700003009DF80210000200B2084300EE100AC0
:100F8000D7ED010AB8EEC00A20EE200A84ED000A6F
:100F90009DF805009DF80410000200B2084300EE21
:100FA000100AF8EEC00A97ED010A60EE800AC4ED5F
:100FB000010A9DF807009DF80610000200B20843E0
:100FC00000EE900AF8EEE00A20EE800A84ED020AB4
:100FD000FFF7CEFEA22000F043F80222694622204D
:100FE00000F020F8FFF7BCFE9DF800009DF801100E
:100FF000C00040EA5110B0F5806F02DBA0F5006040
:1010000000B200EE100AB4EE001AF8EEC00AB3EE19
:10101000070A00EE810A86ED000ABDE8FC810000A7
:101020002402002070B50D46144640F0800000F008
:1010300017F806E0552000F013F805F8010B641EC0
:10104000E4B2002CF6D170BD10B50C4640F0800023
:1010500000F006F8552000F003F8207010BD0000E5
:1010600001B582B04FF47A700090012301AA02A961
:10107000024803F017F89DF804000EBDA40A0020F2
:1010800002784078D20042EA5010B0F5806F02DB5F
:10109000A0F5006000B200EE100AB4EE001AF8EEFF
:1010A000C00AB3EE070A00EE810A81ED000A70471C
:1010B00010B50C46FFF7D4FF2046BDE81040FFF7FF
:1010C000CFBFFEE7014800F031BF0000E00900207B
:1010D000014800F02BBF0000080A002038B50E4C74
:1010E0004FF4007525600025A560E56008252561A1
:1010F0000A4C050A25706070080AA070E170100A99
:1011000020716271180AA071E3716B462246024990
:10111000034800F02AFD38BD60110020B200002015
:10112000E009002008B50C494FF4E0600860002099
:101130008860C86008220A61084908704870887091
:10114000C870087148718871C8710A466B460249B7
:10115000034800F00AFD08BD60110020B200002025
:10116000080A002038B50E4C40F2FF152560002516
:10117000A560E560082525610A4C050A25706070A8
:10118000080AA070E170100A20716271180AA0713B
:10119000E3716B4622460249034800F0E6FC38BD85
:1011A00048110020AA000020E009002008B50849E5
:1011B00005220A6000228A60CA6001220A6105498C
:1011C00008700A466B460249034800F0CEFC08BD91
:1011D00078110020A9000020080A00200CB5017831
:1011E0008DF8001041788DF8011081788DF802108B
:1011F000C1788DF8031001798DF8041041798DF8CC
:10120000051081798DF80610C0798DF80700054822
:101210009DED000A80ED000A9DED010A80ED010AB6
:101220000CBD0000201100200CB501788DF80010D5
:1012300041788DF8011081788DF80210C1788DF811
:10124000031001798DF8041041798DF8051081792A
:101250008DF80610C0798DF8070005489DED000A4D
:1012600080ED020A9DED010A80ED030A0CBD00002D
:101270002011002008B501798DF8001041798DF812
:10128000011081798DF80210C1798DF80310417831
:10129000027841EA022206490A83C278807842EA4B
:1012A000002048839DED000A81ED040A08BD00007E
:1012B0002011002008B501788DF8001041788DF8D4
:1012C000011081788DF80210C1788DF8031008495B
:1012D0009DED000A81ED050A4279037942EA032275
:1012E0008A77827981F82020C079C87708BD00000C
:1012F0002011002004494A8C8A844278007842EA0E
:1013000000204884704700002011002008B50BF031
:10131000C5F969460CF036FD9DF80000FFF746FF61
:101320000A200BF047FEF2E7014801F07FB9000008
:10133000BC0E00202DE9F05FFA48FB4AFA4DC06C64
:10134000FA4EF94F0068DFF8E4C3DFF8DC83DFF81A
:10135000DC93DFF8D4A3DFF8D4B3DFF8CCE3F34CAD
:10136000483D60361837D1140CF1180CA8F130083C
:1013700009F178090AF1300A0BF1300BAEF1180EC1
:1013800090423ED9E84A543A1368A04201D1202243
:1013900035E0A84201D1202231E0B04201D1202223
:1013A0002DE0B84201D1202229E0604501D10A4652
:1013B00025E0404501D10A4621E0484501D10A46D1
:1013C0001DE0504501D10A4619E0584502D14FF4BD
:1013D000001214E0704502D14FF400120FE0D34A1E
:1013E0009032904202D14FF4001208E0CE4A4832C7
:1013F000904202D14FF4001201E04FF0006213401E
:10140000C3E0CA4AA83290423ED9C74A583A136844
:10141000A04201D1202235E0A84201D1202231E0B2
:10142000B04201D120222DE0B84201D1202229E092
:10143000604501D10A4625E0404501D10A4621E038
:10144000484501D10A461DE0504501D10A4619E040
:10145000584502D14FF4001214E0704502D14FF408
:1014600000120FE0B14A9032904202D14FF40012C4
:1014700008E0AD4A4832904202D14FF4001201E038
:101480004FF00062134080E0A84A483290423ED9B3
:10149000A64A103A5368A04201D1202235E0A84262
:1014A00001D1202231E0B04201D120222DE0B8420A
:1014B00001D1202229E0604501D10A4625E04045BE
:1014C00001D10A4621E0484501D10A461DE05045B8
:1014D00001D10A4619E0584502D14FF4001214E038
:1014E000704502D14FF400120FE0904A90329042C2
:1014F00002D14FF4001208E08B4A4832904202D1E8
:101500004FF4001201E04FF0006213403DE0874AC3
:10151000103A1368A04201D1202235E0A84201D13F
:10152000202231E0B04201D120222DE0B84201D189
:10153000202229E0604501D10A4625E0404501D13D
:101540000A4621E0484501D10A461DE0504501D137
:101550000A4619E0584502D14FF4001214E07045D4
:1015600002D14FF400120FE0704A9032904202D143
:101570004FF4001208E06C4A4832904202D14FF416
:10158000001201E04FF000621340002B72D0664A57
:10159000904235D9A04201D120212DE0A84201D1AD
:1015A000202129E0B04201D1202125E0B84201D11B
:1015B000202121E060451FD040451DD048451BD06B
:1015C000504519D0584502D14FF4001114E0704530
:1015D00002D14FF400110FE054499031884202D1FA
:1015E0004FF4001108E050494831884202D14FF4CD
:1015F000001101E04FF000614B484C380160ADE054
:101600004A4AA832904236D9A04201D120212DE089
:10161000A84201D1202129E0B04201D1202125E0BA
:10162000B84201D1202121E060451FD040451DD0A6
:1016300048451BD0504519D0584502D14FF40011F0
:1016400014E0704502D14FF400110FE0374990319A
:10165000884202D14FF4001108E0334948318842F2
:1016600002D14FF4001101E04FF000612E485038D4
:10167000016073E0B6E02D4A4832904235D9A0426D
:1016800001D120212DE0A84201D1202129E0B04242
:1016900001D1202125E0B84201D1202121E060457F
:1016A0001FD040451DD048451BD0504519D0584546
:1016B00002D14FF4001114E0704502D14FF4001133
:1016C0000FE01A499031884202D14FF4001108E02E
:1016D00015494831884202D14FF4001101E04FF022
:1016E000006112481038C16038E0A04201D12021C9
:1016F00031E0A84201D120212DE0B04201D12021CA
:1017000029E0B84201D1202125E0604523D04045A1
:1017100021D048451FD050451DD0584508D14FF421
:10172000001118E0A40A0020586402401060024032
:10173000704502D14FF400110DE02B49884202D1CF
:101740004FF4001107E02949884202D14FF40011FB
:1017500001E04FF000612448A0388160244C2078DB
:1017600080070CD5207820F002002070207840F00F
:1017700004002070012211461E4801F0FFFA607833
:101780001D4D80070CD5607820F0020060706078F5
:1017900040F00400607001221021284601F0EEFAAA
:1017A000A07880070CD5A07820F00200A070A07867
:1017B00040F00400A07001221021284601F0DEFA5A
:1017C0000BF074F9207840070CD5207820F0040045
:1017D0002070207840F0080020700848016841F02F
:1017E00001010160BDE8F09FA0600240A0640240DA
:1017F000E00000200004024000000240103C0140D4
:10180000014800F013BF00001C0F0020014800F049
:101810000DBF0000FC0D002001680A4BCAB2103A4F
:10182000A3FB02321209084B9B5CC365032A04D94F
:101830006FF30901091D816502E06FF309018165FC
:10184000806D7047ABAAAAAAD213010801460020F6
:101850008A6A8B69002B0FD0B3F5005F1DD08AB365
:10186000012A30D0022A2ED0032A04D1C96A11F0ED
:10187000807F00D0012070471AB1012A07D0022AC8
:10188000F9D1C96A11F0807FF5D001207047C96A8B
:10189000B1F1C07FFAD1012070475AB1012A0BD0B3
:1018A000022A07D0032AF7D1C96AB1F1C07FF3D168
:1018B0000120704701207047C96A11F0807FFAD07B
:1018C00001207047FFE7012070477047012001F0B9
:1018D00033B9082001F030B9102001F02DB92020D3
:1018E00001F02AB9704700000022002905D0012923
:1018F0001AD002291BD04FF440720E490B6823F412
:1019000040730B600B681A430A600A6822F0F80201
:101910000A600A68022343EAC000104308600868AE
:1019200040F48030086070474FF48072E5E74FF470
:101930000072E2E7103C02401448016811F4007F95
:101940000FD0016821F400710160016841F4006169
:101950000160016821F400610160016841F40071D7
:101960000160016811F4806F0FD0016821F480617B
:101970000160016841F480510160016821F48051E7
:101980000160016841F4806101607047003C0240E1
:1019900008490A6822F440720A600A6842F00402A8
:1019A0000A600A684FF4803343EA0020104308605D
:1019B00070470000103C0240064A136823F440734D
:1019C000136013681360136843F001031360017020
:1019D00070470000103C02400B49D1F800C02CF4C5
:1019E000407CC1F800C0D1F800C04CF4407CC1F884
:1019F00000C0D1F800C04CF0010CC1F800C002607A
:101A0000BFF36F8F43607047103C0240074A136872
:101A100023F440731360136843F4807313601368F6
:101A200043F001031360018070470000103C024046
:101A3000074A136823F440731360136843F4007378
:101A40001360136843F001031360016070470000E6
:101A5000103C02401A49086810F0100F194805D0D0
:101A6000C26942F01002C26110220A600A6812F0D4
:101A7000200F05D0C26942F00802C26120220A602C
:101A80000A6812F0400F05D0C26942F00402C26138
:101A900040220A600A6812F0800F05D0C26942F045
:101AA0000202C26180220A600A6812F0020F05D0A9
:101AB000C26942F02002C261022008607047000043
:101AC0000C3C02407425002070B5044614490020E7
:101AD000C86101F05BF90646124D286810F4803F9A
:101AE0000ED0B4F1FF3F07D024B101F04FF9801BB5
:101AF000A04201D9032070BD286810F4803FF0D1C6
:101B0000286810F0010F01D001202860286810F02B
:101B1000F20F03D0FFF79EFF012070BD002070BDC3
:101B2000742500200C3C0240D0ED000AC0ED010AF3
:101B300080ED000A30EE600AD0ED030A20EE200AA4
:101B400080ED020A704790F82020012A07D0022A6F
:101B500005D0416A41F4802141620120704700684C
:101B60004269114341610020704770B490F82040F1
:101B7000D0F800C0DCF808C0012C08D0022C06D038
:101B8000416A41F48021416270BC012070470CF031
:101B900080640CF000652C4302D11CF0805F55D0AE
:101BA000CCF3016C012404FA0CF41C608B684FF434
:101BB000C0749BB1CD6804EB0C162B434D6843EA0F
:101BC000C5030568AB514FF4C273066803EB0C13F1
:101BD0000D69F550097D012909D00DE00D88CB680C
:101BE00004EB0C1643EA45530568AB51EBE701687B
:101BF000CD5845F48075CD501179D379557941EAA6
:101C0000036193791B0443EA052319434FF4C67516
:101C1000036805EB0C1559511178D37841EA03613B
:101C2000937852781B0443EA022211434FF4C473A1
:101C3000026803EB0C13D150016804EB0C100A5836
:101C400042F001020A5070BC00207047416A41F422
:101C50000011416270BC01207047000090F8202004
:101C6000012A07D0022A05D0416A41F4802141624D
:101C7000012070474248D0F8002242F00102C0F82B
:101C80000022D0F8002222F47C52C0F80022D0F8C2
:101C900000224B6A42EA0322C0F800220A7D012397
:101CA00002F01F0203FA02F2D0F81C329343C0F88C
:101CB0001C32CB69D3B9D0F80C329343C0F80C3244
:101CC000B1F80CC04B686CF31F43D1F814C000EBA3
:101CD000CC0CCCF84032B1F808C00B686CF31F4351
:101CE000D1F814C000EBCC0CCCF84432CB69012BFA
:101CF0001AD1D0F80C321343C0F80C32B1F800C03E
:101D00004B686CF31F43D1F814C000EBCC0CCCF83B
:101D10004032B1F808C0CB686CF31F43D1F814C04F
:101D200000EBCC0CCCF844328B697BB1D0F8043298
:101D30001343C0F804320B6973B1D0F81432134363
:101D4000C0F81432096A01290CD010E0D0F804322E
:101D50009343C0F80432EEE7D0F814329343C0F84E
:101D60001432EFE7D0F81C121143C0F81C12D0F85F
:101D7000001221F00101C0F800120020704700009D
:101D800000640040704730B490F820C0BCF1010FEF
:101D900009D0BCF1020F06D0416A41F480214162B2
:101DA00030BC0120704739B1D0F800C0DCF810C059
:101DB0001CF0030F33D006E0D0F800C0DCF80CC0F4
:101DC0001CF0030F24D04FF4D87C04680CEB011CEA
:101DD00054F80C4004F0040494603CB3046854F8D4
:101DE0000C40E4085460046854F80CC00CF0020C79
:101DF000C2F80CC04FF4DA7C04680CEB011C54F8F8
:101E00000C5005F00F05082D16D30824146118E0B6
:101E1000416A41F40011416230BC01207047416ABF
:101E200041F40011416230BC01207047046854F84D
:101E30000C40640D1460D6E754F80C4004F00F0415
:101E40001461046854F80C40C4F3072494610468D6
:101E500054F80CC04FEA1C4CC2F814C04FF4DC72AA
:101E6000D0F800C002EB01125CF802C083F800C099
:101E7000D0F800C05CF802C04FEA1C2C83F801C007
:101E8000D0F800C05CF802C04FEA1C4C83F802C0D6
:101E9000D0F800C05CF80220120EDA704FF4DE7247
:101EA000D0F800C002EB01125CF802C083F804C055
:101EB000D0F800C05CF802C04FEA1C2C83F805C0C3
:101EC000D0F800C05CF802C04FEA1C4C83F806C092
:101ED000D0F800C05CF80220120EDA7139B1006847
:101EE000016941F02001016130BC002070470068A9
:101EF000C16841F02001C160F6E70246002092F877
:101F00002010012901D002290FD111688A6812F02E
:101F1000806F00D001208A6812F0006F00D0401C52
:101F2000896811F0805F00D0401C70472DE9F05F98
:101F30000546002428684669D0F804908768D0F8E0
:101F40000CA0D0F810B0D0F8188016F0010F54D0C3
:101F500017F0010F17D00121816017F0020F03D095
:101F6000284600F0F9FA0EE017F0040F02D04FF403
:101F7000006408E017F0080F02D04FF4805402E02C
:101F8000284600F0E8FA17F4807F19D029684FF44A
:101F90008070886017F4007F03D0284600F0DEFAD6
:101FA0000EE017F4806F02D044F4005408E017F4F8
:101FB000006F02D044F4804402E0284600F0CDFADD
:101FC00017F4803F19D029684FF48030886017F4E7
:101FD000003F03D0284600F0C3FA0EE017F4802F2C
:101FE00002D044F4004408E017F4002F02D044F477
:101FF000803402E0284600F0B2FA16F0080F07D04D
:102000001AF0100F04D044F4007429681020C8603E
:1020100016F0040F4FF0080707D01AF0080F04D08D
:102020002868C760284600F0CFF916F0020F07D0E5
:102030002868C06810F0030F02D0284600F0C6F9E7
:1020400016F0400F07D01BF0100F04D044F480644A
:1020500029681020086116F0200F07D01BF0080F28
:1020600004D028680761284600F040FA16F0100FE7
:1020700007D02868006910F0030F02D0284600F04E
:1020800036FA16F4003F08D019F0100F05D0296871
:1020900010204860284600F02BFA16F4803F07D045
:1020A00019F0080F04D028684760284600F059FA54
:1020B00016F4004F4AD019F0040F44D016F4807F74
:1020C00004D018F0010F01D044F0010416F4007F91
:1020D00004D018F0020F01D044F0020416F4806F0F
:1020E00004D018F0040F01D044F0040416F4006F7B
:1020F00029D018F0700F26D008F07000402815D0B5
:1021000006DC102809D020280AD0302816D10AE091
:1021100050280ED0602811D10EE044F008040DE0E4
:1021200044F010040AE044F0200407E044F04004C6
:1021300004E044F0800401E044F48074286881697C
:1021400021F070018161296804204860002C05D0CD
:10215000686A204368622846FFF714FEBDE8F09FD6
:1021600070B50446002C03D094F8200010B104E0B0
:10217000012070BD204600F0A7F82068016841F0FA
:102180000101016000F002FE0546206840684FF042
:10219000050610F0010F11D100F0F8FD401B0A28D0
:1021A00007D9606A40F40030606284F82060012042
:1021B00070BD2068406810F0010FEDD02068016804
:1021C00021F00201016000F0E1FD05462068406851
:1021D00010F0020F11D000F0D9FD401B0A2807D9DA
:1021E000606A40F40030606284F82060012070BDB5
:1021F0002068406810F0020FEDD1207E01283FD00A
:102200002068016821F080010160607E01283DD0D6
:102210002068016821F040010160A07E01283BD0C8
:102220002068016821F020010160E07E012839D09A
:102230002068016841F010010160207F012837D03B
:102240002068016821F008010160607F012835D015
:102250002068016821F004010160E168A0686269FA
:1022600008432169114308436168491E08432168F6
:10227000C86100206062012084F82000002070BD49
:102280002068016841F080010160BEE720680168B4
:1022900041F040010160C0E72068016841F0200181
:1022A0000160C2E72068016821F010010160C4E705
:1022B0002068016841F008010160C6E720680168F4
:1022C00041F004010160C8E72DE9F04186B0044601
:1022D000142101A8FEF719FA364B374ADFF8D080EF
:1022E00018682168344C03260227401C1032002550
:1022F0004FF0090C414527D11860012807D110681B
:1023000040F000701060106800F0007000902068CD
:1023100040F008002060206800F00800009001965E
:10232000029703950496CDF814C001A9234800F044
:102330000FFC00220621142001F0E0F8142001F027
:10234000CFF806B0BDE8F081DFF874804145F8D1E0
:10235000116841F080611160116801F080610091A5
:102360001860012807D1106840F0007010601068F4
:1023700000F000700090206840F0020020602068AB
:1023800000F00200009060200190029703950496EF
:10239000CDF814C001A90B4800F0DAFB0022062199
:1023A000402001F0ABF8402001F09AF8C9E70000A6
:1023B000006400402C00002030380240000C024035
:1023C00000680040000402407047000030B589B04A
:1023D000424988425AD16B4602AA0021FFF7D3FC3A
:1023E0000298A0F2012007284ED2DFE800F0040492
:1023F0000404044D0400C2B239480270394C02EBA7
:10240000820104EB810034F8213003819DF8013012
:102410009DF8005043EA052324F821309DF803304D
:102420009DF8025043EA052343809DF805309DF84E
:10243000045043EA052383809DF80630837134F805
:102440002130B0F908505B1BB3F5805F03DD0369F1
:102450005B1E036105E013F5805F02DA03695B1C14
:10246000036103694FF4B47534F821106B43694379
:1024700003EB513100EE101AB8EEC00A80ED030AEA
:10248000521CD0B209F084FD09B030BD1649884213
:10249000FAD16B4602AA0021FFF775FC02980928C1
:1024A000F2D2DFE800F005060A0E12050505160057
:1024B000EAE76846FEF792FEE6E76846FEF7B4FEF6
:1024C000E2E76846FEF7D6FEDEE76846FEF7F2FE74
:1024D000DAE76846FEF70EFFD6E70000E0090020C5
:1024E000A800002094100020080A002070477047C0
:1024F000704770B5044694F82000012805D0606A42
:1025000040F400206062012070BD022084F82000A9
:102510002068016821F00101016000F037FC0546E8
:102520002068406810F0010F12D000F02FFC401B13
:102530000A2808D9606A40F400306062052084F8F7
:102540002000012070BD2068406810F0010FECD120
:102550000020606270BD70477047704770477047D9
:10256000704770472DE9F0410446A66D00F00EFC5F
:10257000054694F835000027022806D080206065C3
:1025800084F834700120BDE8F0812068016821F0F2
:10259000160101602068416921F080014161206CD1
:1025A00008B9A06C20B12068016821F00801016021
:1025B0002068016821F0010101602068006810F0C6
:1025C000010F12D000F0E2FB401B052808D92020A3
:1025D0006065032084F8350084F83470BDE8F0812C
:1025E0002068006810F0010FECD194F85C003F21E6
:1025F00001FA00F0B060012084F8350084F83470EE
:102600000020BDE8F08190F83510022903D0802128
:10261000416501207047052180F835100068016888
:1026200021F0010101600020704700002DE9F8430E
:1026300004464FF00008CDF8008076484FF416515C
:102640000068B0FBF1F7A56D2E6894F85C000821D6
:1026500001FA00F0304211D02068026812F0040F35
:102660000CD0026822F00402026094F85C0001FAC7
:1026700000F0A860606D40F00100606594F85C00B7
:102680004FF0010909FA00F0304209D02168496988
:1026900011F0800F04D0A860606D40F0020060650A
:1026A00094F85C1004208840304209D02168096801
:1026B00011F0020F04D0A860606D40F00400606566
:1026C00094F85C1010208840304224D021680968BA
:1026D00011F0080F1FD0A8602068016811F4802F46
:1026E0000DD0006810F4002F04D0A16C99B12046E1
:1026F000884710E0216C71B1204688470BE00168E3
:1027000011F4807F03D1016821F008010160216C80
:1027100009B12046884794F85C1020208840304258
:1027200051D02168096811F0100F4CD0A86094F8BE
:10273000350005280DD02068016811F4802F32D0B3
:10274000006810F4002F29D0E16B59B32046884768
:1027500039E02068016821F01601016020684169B4
:1027600021F080014161206C08B9A06C20B1206883
:10277000016821F00801016094F85C003F2101FA32
:1027800000F0A86084F8359084F83480216D002929
:102790003ED001B02046BDE8F0430847616C09B166
:1027A000204688470FE0016811F4807F07D1016857
:1027B00021F01001016084F8359084F83480E16BD9
:1027C00009B120468847606D002821D0606D10F067
:1027D000010F15D0052084F835002068016821F02C
:1027E000010101600098401C0090B84204D82068A4
:1027F000006810F0010FF5D184F8359084F834802A
:10280000E16C002904D001B02046BDE8F043084740
:10281000BDE8F883300000202DE9F041044600F0C7
:10282000B5FA0546DCB1022084F83500002684F8AC
:1028300034602068016821F00101016020680068AF
:1028400010F0010F13D000F0A1FA401B052809D9A0
:1028500020206065032084F83500BDE8F081012068
:10286000BDE8F0812068006810F0010FEBD121680D
:102870000868234A1040A3686268D4F810C01A435D
:10288000E36843EA0C031A4363691A43A3691A43D2
:10289000E3691A43236A1A431043626A042A03D184
:1028A000236BE26A1A43104308602068406920F0F5
:1028B0000701606A40EA0105012704280ED1A06AD9
:1028C0000543E06A50B12046FEF7C0FF30B140201A
:1028D000606584F835700120BDE8F08120684561AD
:1028E0002046FEF799FF94F85C103F2202FA01F1AE
:1028F0008160666584F835700020BDE8F0810000D5
:102900003F8010F070B5044600F040FA0546B4F17F
:10291000FF3F02D004480078044400F037FA401B1F
:10292000A042FAD370BD0000540200202DE9F0410E
:1029300004460F46DFF8988098F8180001280AD05E
:10294000012088F818004CF25030FFF7BDF802461D
:10295000100003D035E00220BDE8F0814FF0FF30D9
:10296000386020681B4E012815D0A568E06828440F
:10297000A84224D9217C2846FEF7B6FF4CF25030FD
:10298000FFF7A2F80246306820F0FA00306010002D
:102990000FD03D6013E0207C6168FEF7F9FF4CF238
:1029A0005030FFF791F80246306820F004003060A4
:1029B00005E06D1CA168E0680844A842DAD8FEF77B
:1029C000BBFF002088F818001046BDE8F081000029
:1029D00074250020103C02400348016841F000418A
:1029E0000160002070470000103C02402DE9F041DA
:1029F0000646884614461D461A4F387E012807D0E1
:102A0000012038764CF25030FFF75EF818B115E02F
:102A10000220BDE8F081AEB1012E18D0022E1BD0ED
:102A200022462B464046FEF7D7FF4CF25030FFF7C8
:102A30004BF80D490A6822F001020A60002139763C
:102A4000BDE8F081E1B24046FEF7B6FFEDE7A1B286
:102A50004046FEF7DBFFE8E721464046FEF7E8FF89
:102A6000E3E7000074250020103C024000200849E4
:102A70000A6812F0004F09D0074A064B1360074B53
:102A80001360096811F0004F00D00120704700006A
:102A9000103C024023016745043C0240AB89EFCD66
:102AA00010B5234C10281AD020282AD0082836D058
:102AB000012813D10CF05AFC01280FD004F10C01AD
:102AC00020690BF02FFFE068002807D019494FF06C
:102AD00080500860BFF34F8FBFF36F8F10BD092088
:102AE00009F056FA607840F001006070A07840F07C
:102AF0000100A07020790028F0D0BDE8104009F056
:102B0000D5BF082009F044FA207840F00100207079
:102B100020790028E2D0BDE8104009F0C7BF0A20A4
:102B200009F036FAE07840F00100E07010BD0000D6
:102B3000E000002004ED00E010B504490A680242FC
:102B400002D00860FFF7ACFF10BD0000143C01404C
:102B50002DE9F84F0022DFF818A2DFF810924FF0AD
:102B6000010E03274FF00F08AAF1040B0EFA02FC26
:102B70000B6803EA0C0363457DD10C7904F0030470
:102B8000012C01D0022C14D18568540007FA04F6F8
:102B9000B543CE6806FA04F42C438460446824EA02
:102BA0000C0C0C79C4F30014944044EA0C0CC0F8EB
:102BB00004C0D1F804C037EA0C0C0CD0C4684FEA4A
:102BC000420C07FA0CF5AC438D6805FA0CFC4CEA94
:102BD000040CC0F80CC091F804C00CF0030CBCF15C
:102BE000020F12D14FEAD20C00EB8C04256A4FEA97
:102BF000427C4FEADC6C08FA0CF6B5430E6906FA23
:102C00000CFC4CEA050CC4F820C004684FEA420CE6
:102C100007FA0CF5AC430D7905F0030505FA0CFC39
:102C20004CEA040CC0F800C0D1F804C01CF4403FCA
:102C30007DD0D9F800C04CF4804CC9F800C0D9F858
:102C400000C00CF4804CCDF800C022F0030C0CF155
:102C5000804505F59835D5F808C89407240F08FA7B
:102C600004F62CEA0606A0F1804CBCF5003C64D0CA
:102C7000A0F1804C00E05AE0BCF5013C60D0A0F12E
:102C8000804CBCF5023C5ED0A0F1804CBCF5033C0E
:102C90005CD0A0F1804CBCF5043C5AD0A0F1804C33
:102CA000BCF5053C58D0A0F1804CBCF5063C56D094
:102CB000A0F1804CBCF5073C54D04FF0080C0CFA46
:102CC00004FC4CEA060CC5F808C8DAF800C02CEA87
:102CD000030C4C6814F4801F01D04CEA030CCAF8B2
:102CE00000C0244CD4F800C02CEA030C4D6815F445
:102CF000001F01D04CEA030CC4F800C0DBF800C090
:102D00002CEA030C4C6814F4003F01D04CEA030C8D
:102D1000CBF800C0184CD4F800C02CEA030C4D6866
:102D200015F4803F01D04CEA030CC4F800C0521CDB
:102D3000102AFFF41BAFBDE8F88F4FF0000CBEE780
:102D40004FF0010CBBE74FF0020CB8E74FF0030C5B
:102D5000B5E74FF0040CB2E74FF0050CAFE74FF0CA
:102D6000060CACE74FF0070CA9E70000443802401E
:102D7000083C01400C3C0140003C0140002A01D0CD
:102D800081617047090481617047000001488068D3
:102D9000704700005402002070B50446002C04D097
:102DA00094F83D00002510B106E0012070BD84F8C4
:102DB0003C50204600F0EAFA242084F83D002068C8
:102DC000016821F0010101602068016841F40041BF
:102DD00001602068016821F40041016000F056FDA7
:102DE000544B6168994203D85349884203D304E0A5
:102DF0005249884201D2012070BD5149B0FBF1F126
:102E00002268D2F804C02CF03F0C4CEA010CC2F846
:102E100004C062689A4201D84A1C07E04FF49672D7
:102E200051434FF47A72B1FBF2F14A1C2168D1F898
:102E300020C02CF03F0C42EA0C020A626168994201
:102E400010D84900401EB0FBF1F2521CC2F30B0235
:102E5000042A01D2042026E0B0FBF1F0401CC0F3AC
:102E60000B0020E0A268002A50D001EBC10303EB65
:102E70000113A0F1010CBCFBF3F35B1C43F4804392
:102E80001B051B0D4AD0002A4AD001EBC10202EB00
:102E90000111401EB0FBF1F0401CC0F30B0040F4E8
:102EA000804040F400402168CA6922F0FF0222F409
:102EB0004F421043C861216AE069014320680268FB
:102EC00022F0C00211430160E168206901432068DB
:102ED000826822F0FF0222F4034211438160A1695B
:102EE000606901432068C26822F0FF021143C1609B
:102EF0002068016841F0010101602564202084F808
:102F00003D00256384F83E50002070BD01EB410375
:102F1000A0F1010CBCFBF3F35B1CB1E70120C2E79D
:102F200001EB4101401EB0FBF1F0401CC0F30B006F
:102F3000B7E70000A086010080841E0000093D0064
:102F400040420F002DE9FF4F83B004468A46934666
:102F5000DDF84490DDF84080129EFFF717FF05462C
:102F600094F83D00202803D007B00220BDE8F08F80
:102F700019230122A5492046009502F00AFA18B14A
:102F800007B00220BDE8F08F94F83C00012808D07B
:102F9000012084F83C002068016811F0010F04D082
:102FA00007E007B00220BDE8F08F016841F00101A1
:102FB00001602068016821F400610160222084F82A
:102FC0003D00402084F83E0000272764C4F8248098
:102FD000A4F82A90608D20858D48E06201950096C6
:102FE0005A4651462046069B02F08EF818B107B0AB
:102FF0000120BDE8F08F208D10B3012829D00228D0
:1030000035D02068416980690290208D002800F049
:10301000F180DFF80082208D032800F2B7800128BC
:1030200034D002284AD0334600224146204600953B
:1030300002F0AFF900286CD007B00120BDE8F08F96
:103040002068416981690291016841F40071016061
:10305000DBE72068016821F4806101602068416934
:1030600081690291016841F400710160CDE7206837
:10307000016821F4806101602068016841F4006109
:1030800001602068416980690290BEE72A463146A6
:10309000204602F069FA18B107B00120BDE8F08FB0
:1030A00020680069616A0870606A401C6062208D57
:1030B000401E2085608D401E608597E033460022CB
:1030C00041462046009502F064F918B107B001208E
:1030D000BDE8F08F2068016841F40071016020684C
:1030E0000069616A0870606A401C6062218D491E37
:1030F0002185618D491E6185216809690170606AB9
:10310000401C6062208D401E2085608D401E6085C1
:103110006CE02068016821F480610160206800692A
:10312000616A0870606A401C6062208D401E2085C4
:10313000608D401E60853346002241462046009542
:1031400002F027F918B107B00120BDE8F08F206820
:10315000016841F40071016020680069616A0870CB
:10316000606A401C6062218D491E2185618D491E67
:103170006185216809690170606A401C6062208D68
:10318000401E2085608D401E60852FE02A46314616
:10319000204602F0E9F918B107B00120BDE8F08F30
:1031A00020680069616A0870606A401C6062208D56
:1031B000401E82B22285608D401E60852068416974
:1031C00011F0040F12D0032A03D1016821F48061A9
:1031D000016020680069616A0870606A401C606272
:1031E000208D401E2085608D401E6085208D00282A
:1031F0007FF411AF202084F83D0084F83E7084F8FD
:103200003C7007B00020BDE8F08F00000200100005
:103210000000FFFF040001002DE9FF4F83B00446CA
:103220008A469346DDF84490DDF84080129EFFF711
:10323000ADFD054694F83D00202803D007B00220DC
:10324000BDE8F08F192301224E492046009502F077
:10325000A0F818B107B00220BDE8F08F94F83C0048
:10326000012808D0012084F83C002068016811F092
:10327000010F04D007E007B00220BDE8F08F01681D
:1032800041F0010101602068016821F400610160E2
:10329000212084F83D00402084F83E000027276468
:1032A000C4F82480A4F82A90608D20853648E06216
:1032B000019500965A4651462046069B01F0CEFFE6
:1032C00018B107B00120BDE8F08F208D002836D05E
:1032D0002A463146204602F08AF958B1206C04286B
:1032E00004D12068016841F40071016007B0012039
:1032F000BDE8F08F606A216800780861606A00F1BB
:10330000010CC4F824C0208D401E80B22085618D40
:10331000491E61852368596911F0040F0CD058B11A
:103320009CF800001861606A401C6062208D401E9D
:103330002085608D401E6085208D0028C8D12A46DA
:103340003146204601F0F2FF58B1206C042804D128
:103350002068016841F40071016007B00120BDE8F8
:10336000F08F2068016841F400710160202084F82A
:103370003D0084F83E7084F83C7007B00020BDE842
:10338000F08F0000020010000000FFFFF0B587B0D2
:103390000446142102A8FDF7B8F91D4920688842A7
:1033A00033D11C48016841F004010160016801F05B
:1033B00004010191016841F001010160006800F021
:1033C000010001904FF4007002901227039701242E
:1033D0000494032605960425069502A90E48FFF7D6
:1033E000B7FB20020290039704940596069502A964
:1033F0000A48FFF7ADFB07481030016841F40001AF
:103400000160006800F40000019007B0F0BD00000A
:10341000005C0040303802400008024000000240DA
:10342000024881680278114481607047540200208C
:1034300010B50B48016841F400710160016841F466
:1034400080610160016841F480710160032000F037
:1034500089F80F2000F006F800F026F8002010BDD3
:10346000003C024070B504460D4D4FF47A71287847
:10347000B1FBF0F00B490968B1FBF0F000F01EFF62
:1034800008B1012070BD102C07D200222146501E29
:1034900000F034F86C60002070BD012070BD0000A9
:1034A000540200203000002082B00C48016841F432
:1034B00080410160006800F4804001900748001FCF
:1034C000016841F080510160006800F08050019077
:1034D00000220F21901E02B000F010B844380240C4
:1034E00000280ADB00F01F01012202FA01F1400965
:1034F000800000F1E020C0F80011704710B4184BB4
:103500001B68C3F30223C3F1070CBCF1040F01D9FC
:103510004FF0040C1C1D072C01D2002300E0DB1E21
:10352000012404FA0CFCACF1010C0CEA01019940F5
:1035300004FA03F35B1E1A401143002806DB00F176
:10354000E020090180F8001410BC704700F00F0063
:1035500000F1E020090180F8141D10BC7047000044
:103560000CED00E000F00700064A11684FF6FF037B
:10357000194041EA002040F0FD7040F0806010608A
:10358000704700000CED00E02DE9F84304464FF0D1
:10359000010820784FF0000710F0050F33D0DFF856
:1035A0004491C9F86870FFF7F1FB06464E4D286854
:1035B00010F0006F0BD0FFF7E9FB801B022802D947
:1035C0000320BDE8F883286810F0006FF3D160682D
:1035D000217A800140EA017044490860C9F8688096
:1035E000FFF7D4FB0646286810F0006F0BD1FFF7F9
:1035F000CDFB801B022802D90320BDE8F883286890
:1036000010F0006FF3D0207810F0020F5CD0384833
:10361000016841F080510160006800F08050009026
:10362000344D286840F480702860FFF7AFFB0646F1
:10363000286810F4807F0BD1FFF7A8FB801B0228BD
:1036400002D90320BDE8F883286810F4807FF3D006
:10365000294D286800F4407028B3A18901F4407115
:10366000814220D0286820F440702449C1F80080AD
:103670000F602860286810F0010F14D0FFF786FB58
:103680000646286810F0020F0DD141F28837FFF787
:103690007DFB801BB84202D90320BDE8F88328686F
:1036A00010F0020FF3D0E0684FF4407131EA0002ED
:1036B00013490CD0086820F4F81008602868A18924
:1036C000C1F30B01084328600020BDE8F8830A68B5
:1036D00020F4407022F4F81220F07040104308608B
:1036E000ECE7000000004742003802408438024006
:1036F000403802400070004070380240400E47429F
:10370000083802402DE9F04704460D46002C13D03E
:10371000DFF85491D9F80000EFB200F00700A8429A
:103720000DD289F80070D9F8000000F00700A84217
:1037300005D00120BDE8F0870120BDE8F0872068B2
:103740004A4E10F0020F14D010F0040F03D030686E
:1037500040F4E0503060207810F0080F03D030685B
:1037600040F4604030603068A16820F0F000084309
:103770003060207810F0010F3ED060683C4901288D
:1037800008D002280DD003280BD0096811F0020FD1
:1037900028D00AE0096811F4003F06D10120BDE8F5
:1037A000F087096811F0007F19D0316821F003011A
:1037B00008433060FFF7EAFA80463068616800F03D
:1037C0000C00B0EB810F17D041F2883AFFF7DEFA18
:1037D000A0EB0800504508D90320BDE8F087012080
:1037E000BDE8F0870120BDE8F0873068616800F02F
:1037F0000C00B0EB810FE9D1D9F8000000F0070010
:10380000A8420AD989F80070D9F8000000F0070032
:10381000A84202D00120BDE8F087207810F0040F04
:1038200005D03068E16820F4E0500843306020782B
:1038300010F0080F06D03068216920F4604040EA9B
:10384000C100306000F042F831680A4AC1F3031148
:10385000515CC8400849086008480068FFF702FE4C
:103860000020BDE8F0870000003C0240083802401C
:1038700000380240D00F010830000020580200201C
:1038800001480068704700003000002000B5FFF7D5
:10389000F7FF04490968044AC1F38221515CC8401A
:1038A00000BD000008380240E00F010800B5FFF736
:1038B000E7FF04490968044AC1F34231515CC8403A
:1038C00000BD000008380240E00F010810B517489D
:1038D000006810F00C01164816D0164B042912D0BF
:1038E000082911D1144C216801F03F02216811F41C
:1038F000800F0AD02068C0F38810A0FB03010023CA
:10390000FCF7A8FD09E0184610BD21680023C1F3AB
:103910008811A1FB0001FCF79DFD2168C1F3014165
:10392000491C4900B0FBF1F010BD0000083802400E
:103930000024F400001BB700043802402DE9F84FC2
:103940000446002C12D02078FB4E10F0010FA6F197
:10395000040563D0301D016801F00C0104290CD06E
:10396000006800F00C00082803D010E00120BDE83A
:10397000F88F306810F4800F09D0286810F4003FE9
:103980004CD06068002849D10120BDE8F88F6068FC
:10399000B0F5803F14D0B0F5A02F16D0286820F4E1
:1039A00080302860286820F480202860606810B388
:1039B000FFF7ECF90746286810F4003F0ED02DE021
:1039C000286840F480302860F0E7286840F48020C0
:1039D0002860286840F480302860E7E7FFF7D6F9D0
:1039E000C01B642802D90320BDE8F88F286810F4B2
:1039F000003FF3D012E0FFF7C9F90746286810F43A
:103A0000003F0BD0FFF7C2F9C01B642802D9032086
:103A1000BDE8F88F286810F4003FF3D12078C74F35
:103A200010F0020F4FF0000957D0C548016811F09F
:103A30000C0F14D0006800F00C00082803D1306887
:103A400010F4800F0BD0E06880B301203860FFF7DE
:103A50009DF98046286810F0020F12D01EE02868F9
:103A600010F0020F05D0E068012802D00120BDE867
:103A7000F88F2868216920F0F80040EAC10028602A
:103A80002BE0FFF783F9A0EB0800022802D90320FE
:103A9000BDE8F88F286810F0020FF2D0286821697D
:103AA00020F0F80040EAC100286016E0FFE7C7F800
:103AB0000090FFF76BF98046286810F0020F0CD0D9
:103AC000FFF764F9A0EB0800022802D90320BDE843
:103AD000F88F286810F0020FF2D1207810F0080F4C
:103AE00035D09848DFF860A26169C1B10121016059
:103AF000FFF74CF98046DAF8000010F0020F26D1EB
:103B0000FFF744F9A0EB0800022802D90320BDE822
:103B1000F88FDAF8000010F0020FF1D017E0C0F8CB
:103B20000090FFF733F98046DAF8000010F0020F3A
:103B30000DD0FFF72BF9A0EB0800022802D90320D3
:103B4000BDE8F88FDAF8000010F0020FF1D120780C
:103B500010F0040F71D04FF000087C48006810F09E
:103B6000805F0AD17948016841F0805101600068A6
:103B700000F0805000904FF00108DFF8D4B1DBF87E
:103B8000000010F4807F1BD1DBF8000040F480704F
:103B9000CBF80000FFF7FAF88246DBF8000010F4DB
:103BA000807F0DD1FFF7F2F8A0EB0A00022802D9BE
:103BB0000320BDE8F88FDBF8000010F4807FF1D01F
:103BC000A068DFF890B1012818D005281DD0DBF8D7
:103BD000000020F00100CBF80000DBF8000020F02E
:103BE0000400CBF80000A06840B3FFF7CFF882468E
:103BF000DBF8000010F0020F14D03EE0DBF800000C
:103C000040F00100CBF80000EDE7DBF8000040F0E9
:103C10000400CBF80000DBF8000040F00100CBF816
:103C20000000E0E7FFF7B2F8A0EB0A0141F28830AC
:103C3000814204D90320BDE8F88F26E005E0DBF8D7
:103C4000000010F0020FEDD017E0FFF79FF882465A
:103C5000DBF8000010F0020F0FD0FFF797F8A0EB91
:103C60000A0141F28830814202D90320BDE8F88F71
:103C7000DBF8000010F0020FEFD1B8F1010F04D112
:103C80003248016821F080510160A069F0B32C49ED
:103C900009684FF0FF3801F00C01082966D00228AE
:103CA00010D0C7F86090FFF771F80446286810F04C
:103CB000007F2BD0FFF76AF8001B022851D90320A0
:103CC000BDE8F88FC7F86090FFF760F88146286874
:103CD00010F0007F0CD0FFF759F8A0EB0900022884
:103CE00002D90320BDE8F88F286810F0007FF2D1D8
:103CF000216AE069A26A0843616A08EB52028901FD
:103D000041EA0241084394F82C1000E055E040EAF3
:103D10000160306001203866FFF738F804462868F3
:103D200010F0007F49D1FFF731F8001B022813D9AA
:103D30000320BDE8F88F000004380240000047422D
:103D400008380240800E4742743802404038024032
:103D50000070004070380240286810F0007FE2D008
:103D60002BE0286810F0007FA4D126E0012822D0A3
:103D70003068E26900F4800191421AD1226A00F0B1
:103D80003F01914215D147F6C071626A0140B1EB23
:103D9000821F0ED1A26A00F4403108EB5202B1EB4F
:103DA000024F06D194F82C1000F07060B0EB016F58
:103DB00003D00120BDE70120BBE70020B9E710B523
:103DC0000446002C02D0607F10B106E0012010BD37
:103DD00000202077204600F041F80220607720681C
:103DE000C16811F0100F05D000200028EFD101218B
:103DF000617710BDCA214162216853204862204684
:103E000002F000FCD8B92068816821F0400121F45B
:103E1000E0018160206881686268636911432269FA
:103E20001A43114381602168E068086120680169D4
:103E3000228941EA02410161204602F007FC48B9AB
:103E400021680A6C22F480220A6421680A6CA36942
:103E50001A430A642268FF215162C6E71FB5002198
:103E600000910191029103910068084988420CD1A8
:103E700002200090064803906846FFF785FB08B1D2
:103E8000FDF730FD0349012008601FBD00280040F8
:103E900000031E003C0E474270B504460C482168E2
:103EA000C860FEF773FF05462068C06810F0200F59
:103EB0000CD1FEF76BFF401BB0F57A7F01D90320D0
:103EC00070BD2068C06810F0200FF2D0002070BDD7
:103ED0005F7F010070B50446002C09D0606A0025A0
:103EE00040B125616561A56294F8510040B10CE0D4
:103EF000012070BD6068B0F5827FF4D0E561F2E723
:103F000084F85050204600F045F8022084F8510013
:103F10002068016821F040010160A088218900F437
:103F2000827001F404410843A18901F4006108434F
:103F3000217C01F002010843217D01F001010843C9
:103F4000218B01F400710843217F01F038010843FF
:103F500094F8201001F080010843218D01F40051F4
:103F6000084321680860A169042000EA114094F820
:103F7000241001F010010143206841602068C169EC
:103F800021F40061C1616565012084F851000020C1
:103F900070BD00002DE9F04387B00546142102A84A
:103FA000FCF7B3FB3949286888426CD100263848B1
:103FB000016841F480510160006800F48050019074
:103FC00033481438016841F002010160016801F0D2
:103FD00002010191016841F001010160006800F0F7
:103FE00001000190182002904FF00208CDF80C80DB
:103FF0004FF00109CDF8109003240594052706978A
:1040000002A92448FEF7A4FD80200290CDF80C8080
:10401000CDF810900594069702A91F48FEF798FD69
:104020001F4C1E4820604FF0C068C4F80480A66092
:10403000E660071527616661A661E6614FF44030CE
:10404000206266622046FEF7E7FB08B1FDF74AFCF6
:10405000EC64A5631148124C183060342060C4F839
:1040600004804020A060E66027616661A661E66189
:10407000C002206266622046FEF7CEFB08B1FDF763
:1040800031FCAC64A56307B0BDE8F08300300140AB
:1040900044380240000402400000024040640240F4
:1040A000FC0A00202DE9F84F04460A9E8A469346F2
:1040B0001F460125FEF76AFE804694F851006168AC
:1040C000012809D0B1F5827F03D1A16809B904287C
:1040D00002D00220BDE8F88FBAF1000F28D0BBF162
:1040E000000F25D0380023D094F85000012822D0AA
:1040F000012084F8500094F85100042802D00520D3
:1041000084F851004FF00009C4F85490C4F838B056
:10411000E787A787C4F830A0E786A786C4F8409051
:10412000C4F844902068016811F0400F06D009E0FF
:104130000120BDE8F88F0220BDE8F88F016841F04A
:1041400040010160E068B0F5006F05D060680028AC
:104150004DD0012F4BD083E0606808B1012F3FD1D3
:10416000206B21680088C860206B801C2063E08E73
:10417000401EE08634E02068816811F0020F0DD007
:10418000E18E59B1012D09D1216B0988C160206BE5
:10419000801C2063E08E401EE08600252068816838
:1041A00011F0010F0BD0E18F49B1C068A16B0880FD
:1041B000A06B801CA063E08F401EE0870125FEF706
:1041C000E5FDA0EB0800B0420AD3B6F1FF3F07D0EF
:1041D000012084F8510084F850900320BDE8F88F46
:1041E000E08E0028C7D1E08F0028C4D13EE0206BCC
:1041F000216800780873206B401C2063E08E401E0D
:10420000E0862DE02068816811F0020F0DD0E18E6C
:1042100059B1012D09D1216B09780173206B401C24
:104220002063E08E401EE08600252068816811F042
:10423000010F0BD0E18F49B1C068A16B0870A06B72
:10424000401CA063E08F401EE0870125FEF79EFD25
:10425000A0EB0800B04202D3B6F1FF3F13D196B1F4
:10426000E08E0028CED1E08F0028CBD142463146E7
:10427000204603F0ADFE70B12020606584F85090B8
:104280000120BDE8F88F012084F8510084F8509097
:104290000320BDE8F88FA06818B92068C16880685D
:1042A0000090012084F8510084F85090606D10B1A6
:1042B0000120BDE8F88F0020BDE8F88F401EB0F166
:1042C000807F01D3012070474FF0E0214861044A0C
:1042D000F0201070002088610720086100207047DE
:1042E00023ED00E072B6BFF34F8F05480168054A21
:1042F00001F4E06111430160BFF34F8F00BFFDE7A0
:104300000CED00E00400FA057047704730B490F8F7
:104310003C20012A44D0012480F83C40022280F84D
:104320003D200268D2F804C093682CF0700C0D6830
:1043300045EA0C0CC2F804C00268A2F1804CBCF53E
:10434000803C20D0B2F1804F1DD0A2F1804CBCF552
:10435000806C18D0A2F1804CBCF5006C13D0A2F197
:10436000804CBCF5406C0ED0A2F1804CBCF5823C78
:1043700009D0A2F1804CBCF5A03C04D0A2F1804C45
:10438000BCF5C05C04D123F08003496819439160F7
:1043900080F83D40002180F83C1030BC0020704780
:1043A00030BC0220704710B50446002C03D094F8AE
:1043B0003D0010B107E0012010BD002084F83C0052
:1043C000204600F01FF8022084F83D00211D2068DF
:1043D00003F068FF012084F8460084F83E0084F86A
:1043E0003F0084F8400084F8410084F8420084F8DB
:1043F000430084F8440084F8450084F83D00002020
:1044000010BD000008B50068284A2949904208D12B
:10441000086840F002000860086800F002000090A0
:1044200008BD244A904208D1086840F004000860A2
:10443000086800F00400009008BD1F4A904211D1A6
:10444000086840F008000860086800F00800009064
:10445000002205213220FFF751F8BDE80840322044
:10446000FFF73EB81249154A091D904208D1086865
:1044700040F002000860086800F00200009008BDEB
:104480000F4A9042FBD1086840F400300860086889
:1044900000F400300090002205211920FFF72EF8CB
:1044A000BDE808401920FFF71BB8000000040040D9
:1044B0004038024000080040000C00400004014069
:1044C0000044014090F83D10012901D001207047BF
:1044D000022180F83D100068A0F18041B1F58031E3
:1044E00026D0B0F1804F23D0A0F18041B1F580619A
:1044F0001ED0A0F18041B1F5006119D0A0F180413A
:10450000B1F5406114D0A0F18041B1F582310FD0F6
:10451000A0F18041B1F5A0310AD0A0F18041B1F500
:10452000C05105D0016841F00101016000207047D1
:10453000816801F007010629F8D0016841F0010106
:104540000160F3E770B50446002594F83C000128AB
:1045500018D0012684F83C60022084F83D002068D1
:10456000826822F0770222F47F4282600868502835
:1045700039D00EDC202854D006DC002851D0102879
:1045800011D14EE0022070BD30284AD040280AD117
:104590003DE0602831D070280DD0B0F5805F03D0A9
:1045A000B0F5005F13D0012584F83D60002084F849
:1045B0003C00284670BDCB684A688968206803F0D3
:1045C000F2FE2068816841F077018160ECE7CB68FA
:1045D0004A688968206803F0E6FE2068816841F433
:1045E00080418160E0E7CA684968206803F0FEFF07
:1045F0005021206803F0E2FED6E7CA6849682068C7
:1046000004F007F86021206803F0D8FECCE7CA6800
:104610004968206803F0EAFF4021206803F0CEFEDD
:10462000C2E722680146104603F0C8FEBCE77047A7
:104630002DE9F04104462068C56806694FF000077F
:1046400016F0020F16D015F0020F13D0F91E0161FB
:10465000012020772068806910F0030F03D02046E6
:10466000FFF7E5FF05E0204600F036F9204600F0B0
:10467000CFF9277716F0040F18D015F0040F15D0D6
:1046800021686FF0040008610220207720688069AB
:1046900010F4407F03D02046FFF7C9FF05E0204615
:1046A00000F01AF9204600F0B3F9277716F0080F4A
:1046B00018D015F0080F15D021686FF008000861B8
:1046C000042020772068C06910F0030F03D0204633
:1046D000FFF7ADFF05E0204600F0FEF8204600F0B1
:1046E00097F9277716F0100F18D015F0100F15D086
:1046F00021686FF010000861082020772068C069E9
:1047000010F4407F03D02046FFF791FF05E02046DC
:1047100000F0E2F8204600F07BF9277716F0010F51
:1047200009D015F0010F06D021686FF00100086173
:10473000204600F0DDF916F0800F09D015F0800F4B
:1047400006D021686FF0800008612046FFF7DCFD8D
:1047500016F0400F09D015F0400F06D021686FF019
:1047600040000861204600F0C4F916F0200F0BD07D
:1047700015F0200F08D021686FF020000861204656
:10478000BDE8F041FFF7C1BDBDE8F08110B586B0CE
:104790000446142101A8FBF7B8FF2068434C4449A4
:1047A00002220123A0421AD1086840F004000860E8
:1047B000086800F0040000908815019002920393AD
:1047C0000492059201A93B48FEF7C2F93A48FFF767
:1047D00079FE0821384800F01DF906B010BD374CAD
:1047E000A0421BD1086840F008000860086800F08B
:1047F0000800009020140190029203930492059205
:1048000001A92F48FEF7A4F92B484830FFF75AFEBC
:1048100029480821483000F0FDF8DEE7294CA04285
:1048200026D1086840F080000860086800F0800029
:1048300000904FF4E050019002920393049205928D
:1048400001A92148FEF784F91B489030FFF73AFE92
:1048500019480021903000F0DDF81748042190300D
:1048600000F0D8F814480821903000F0D3F8B4E7ED
:10487000164CA042B1D1086840F0200008600868DA
:1048800000F02000009040200190029203930492D7
:104890000320059001A90E48FEF75AF90D48FFF7CD
:1048A00011FE00210B4800F0B5F896E70004004027
:1048B0003038024000080240BC0B002000080040D5
:1048C000000C0240000C0040001C0240004401406B
:1048D00000140240DC0C0020704770B504460D4601
:1048E000002694F83C0001280FD0012084F83C00F9
:1048F0006AB1042A1FD0082A32D00C2A44D00126DB
:10490000002084F83C00304670BD022070BD29466E
:10491000206803F08FFD2068816941F00801816102
:104920002068816921F004018161206881692A6918
:1049300011438161E4E72946206803F0B3FD206854
:10494000816941F4006181612068816921F480619D
:104950008161206881692A6941EA02218161CFE78A
:104960002946206803F0DAFD2068C16941F008019A
:10497000C1612068C16921F00401C1612068C16979
:104980002A691143C161BBE72946206803F002FE92
:104990002068C16941F40061C1612068C16921F4E6
:1049A0008061C1612068C1692A6941EA0221C1614F
:1049B000A6E710B50446002C03D094F83D0010B1D2
:1049C00007E0012010BD002084F83C00204600F0E4
:1049D0001EF8022084F83D00211D206803F062FCCF
:1049E000012084F8460084F83E0084F83F0084F8F3
:1049F000400084F8410084F8420084F8430084F8C1
:104A0000440084F8450084F83D00002010BD704744
:104A10007047000010B50446002909D004290AD0C7
:104A200008290BD094F8410001280AD0012010BDBC
:104A300094F83E00F8E794F83F00F5E794F840005A
:104A4000F2E70220D9B3042947D0082948D084F8D6
:104A500041000122206803F097FC234A2068234983
:104A6000904201D0884203D1436C43F40043436435
:104A70002068904224D0B0F1804F21D0A0F1804234
:104A8000B2F580621CD0A0F18042B2F5006217D06E
:104A9000A0F18042B2F5406212D0884210D0A0F15D
:104AA0008041B1F5A0310BD0A0F18041B1F5C051EA
:104AB00006D0016841F001010160002010BD09E04D
:104AC000816801F007010629F7D0016841F0010172
:104AD0000160F2E784F83E00BBE784F83F00B8E7E6
:104AE00084F84000B5E700000000014000040140E8
:104AF0007047704770477047F8B5044622681068E1
:104B0000D168536900F00F0CBCF1000F0AD110F00E
:104B1000200F07D011F0200F04D02046BDE8F84048
:104B200003F0C7BD0025BCF1000F75D003F0010CE8
:104B300001F490765CEA06066ED010F0010F06D004
:104B400011F4807F03D0626C42F00102626410F0C5
:104B5000040F06D013F0010F03D0626C42F0020282
:104B6000626410F0020F06D013F0010F03D0626CE4
:104B700042F00402626410F0080F08D001F0200235
:104B800052EA0C0203D0626C42F008026264626C6A
:104B9000002A35D010F0200F05D011F0200F02D0E0
:104BA000204603F086FD20684069C0F38010616CE8
:104BB00011F0080F00D148B3204603F046FD2068ED
:104BC000406910F0400F1CD02068143050E8001FDE
:104BD00021F0400140E80012002AF5D1E06B60B1FD
:104BE0005E490165E06BFDF70EFD002808D0E06B23
:104BF000016D01B0BDE8F04008472046FFF77BFF9C
:104C0000F8BD2046FFF777FFF8BD05E0FFE7204637
:104C1000FFF771FF6564F8BD236B012B7ED110F0A7
:104C2000100F7BD011F0100F78D0106850680090F2
:104C300050694FF0200310F0400F4FF0020644D0AF
:104C4000E16B0868406880B20028E4D0A28D8242FF
:104C5000E1D9E085C869B0F5807F2DD020680C309F
:104C600050E8001F21F4807140E80012002AF5D1BD
:104C70002068143050E8001F21F0010140E80012C4
:104C8000002AF5D12068143050E8001F21F04001BF
:104C900040E80012002AF5D184F8423025632068EC
:104CA0000C3050E8001F21F0100140E80012002AEB
:104CB000F5D1E06BFDF756FC6663A08DE18D401ADF
:104CC00081B22046FFF716FFF8BDA08DE18D401A96
:104CD00081B2E08D0028F7D00029F5D020680C3093
:104CE00050E8002F22F4907240E8002CBCF1000F35
:104CF000F4D12068143050E8002F22F0010240E87F
:104D0000002CBCF1000FF4D184F8423025632068F8
:104D10000C3050E8002F22F0100200E008E040E8DC
:104D20000023002BF3D166632046FFF7E3FEF8BDB6
:104D300010F0800F07D011F0800F04D02046BDE89E
:104D4000F84003F099BD10F0400FF0D011F0400F83
:104D5000EDD02046BDE8F84003F09EBC3B8600083D
:104D600070B50446002C04D094F84100002510B121
:104D700006E0012070BD84F84050204600F024F881
:104D8000242084F841002068C16821F40051C160EA
:104D9000204603F0F3FC2068016921F49041016191
:104DA0002068416921F02A0141612068C16841F40D
:104DB0000051C1606564202084F8410084F84200FD
:104DC0006563002070BD00002DE9F04F87B00446F8
:104DD000142102A8FBF799FC8449DFF80CC21439AE
:104DE0002368824A0227072000250E154FF001088C
:104DF0004FF003094FF0006A634553D1136843F045
:104E000010031360126802F0100201920A6842F067
:104E100002020A600A6802F0020201920A6842F085
:104E200001020A60096801F00101019180210291EB
:104E30000397CDF81080CDF814908346069002A910
:104E40006B48FDF785FE701002900397CDF8108037
:104E5000CDF81490CDF818B002A96648FDF778FE99
:104E6000664F65483860C7F804A04020B860FD6010
:104E70003E617D61BD61FD61800238627D623846C0
:104E8000FDF7CAFC08B1FCF72DFDA763BC63002247
:104E900005212520FEF732FB2520FEF721FB07B078
:104EA000BDE8F08FDFF858C14FF4003B63453ED1B9
:104EB0004E4A121F136843F480231360126802F4F1
:104EC000802201920A6842F004020A60096801F037
:104ED000040101914FF4406102910397CDF81080D5
:104EE000CDF81490069002A94648FDF731FE434FD5
:104EF000454860373860C7F804A0BD60FD603E617A
:104F00007D61BD61FD61C7F820B07D623846FDF767
:104F100083FC08B1FCF7E6FCE763BC6300220421D4
:104F20002720FEF7EBFA2720FEF7DAFAB7E7374833
:104F30008342B4D1106840F020001060106800F087
:104F400020000190086840F040000860086800F008
:104F5000400001904FF4844002900397CDF81080F8
:104F6000CDF814900820069002A92948FDF7F0FD1D
:104F70002148224F9038C03738604FF02068C7F87A
:104F80000480BD60FD603E617D61BD61FD61C7F86B
:104F900020B07D623846FDF73FFC08B1FCF7A2FC6B
:104FA000E763BC6314481B4F18383860C7F80480A7
:104FB0004020B860FD603E617D61BD61FD618002A1
:104FC00038627D623846FDF727FC08B1FCF78AFCA1
:104FD000A763BC63002205214720FEF78FFA472014
:104FE000FEF77EFA5BE70000001001404438024003
:104FF0000004024000000240B8640240FC0D0020A2
:1050000000480040000802402860024000140140AF
:10501000001802401C0F002070472DE9F843044699
:105020000E4615461F4694F84100202802D0022063
:10503000BDE8F8837EB175B100206064212084F85A
:105040004100FDF7A3FE8146A584E584A068B0F584
:10505000805F03D004E00120BDE8F883206990B1AF
:1050600035460026E08C4FF02008C8B14B460022A0
:1050700080212046009703F02EFC30B184F8418057
:105080000320BDE8F8830025ECE7B5B12168287856
:1050900048606D1CE08C401EE084E08C0028E5D167
:1050A0004B46002240212046009703F014FC58B1E3
:1050B00084F841800320BDE8F88330882168C0F37C
:1050C00008004860B61CE5E784F841800020BDE890
:1050D000F8837047FEE701684A6912F4806F11D0C7
:1050E0006FF480624A6100210163202280F83D2034
:1050F00080F83E10026C42F00402026480F83C101A
:1051000001207047002070472DE9F84F0446DDF874
:1051100028A00B9D0F4690461E462068016841F46A
:10512000806101602068016841F48071016053462C
:1051300000224FF001112046009500F02AF94FF4AB
:10514000007948B12068006810F4807F01D0C4F86D
:1051500040900320BDE8F88F216807F0FE00086149
:10516000DFF8F4B02B4652465946204600F086F947
:1051700010B10120BDE8F88F206841698069009076
:105180002A465146204600F032FA50B1206C0428DD
:1051900004D12068016841F4007101600120BDE87C
:1051A000F88F304608F0FF0601280DD021684FEA3D
:1051B000182008612A465146204600F018FA70B1BE
:1051C000206C042803D007E02068066109E020680D
:1051D000016841F4007101600120BDE8F88F20688A
:1051E00006612A465146204600F001FA50B1206C73
:1051F000042804D12068016841F400710160012095
:10520000BDE8F88F2068016841F480710160534661
:1052100000224FF001112046009500F0BAF848B185
:105220002068006810F4807F01D0C4F8409003200B
:10523000BDE8F88F2168F8B240F0010008612B4604
:1052400052465946204600F019F910B10120BDE838
:10525000F88F0020BDE8F88F020001002DE9F84327
:105260000446DDF82090099F0D46164698462068B2
:10527000016841F4807101604B4600224FF001113A
:105280002046009700F085F850B12068006810F4BF
:10529000807F02D04FF4007020640320BDE8F883C3
:1052A000216805F0FE0008613B464A461E4920463B
:1052B00000F0E4F810B10120BDE8F88320684169EE
:1052C000806900903A464946204600F090F950B176
:1052D000206C042804D12068016841F40071016049
:1052E0000120BDE8F883F5B2B8F1010F0CD02168B8
:1052F000300A08613A464946204600F078F970B114
:10530000206C042803D007E02068056109E02068CC
:10531000016841F4007101600120BDE8F883206854
:1053200005610020BDE8F8830200010070B5044665
:105330000D4616462068406910F0040F18D120462B
:10534000FFF7C9FE08B1012070BDB5F1FF3F0AD0DB
:10535000FDF71CFD801BA84200D825B920684069D4
:1053600010F0040F06D02068406910F0040FE6D05A
:10537000002070BD00202063202184F83D1084F8B7
:105380003E00216C41F02001216484F83C000120A2
:1053900070BD2DE9F0470446DDF820900D46174614
:1053A0001E46C5F307482068B8F1010F13D0806985
:1053B00025EA00000004000C17D00020B8424DD1AF
:1053C000B6F1FF3F3DD0FDF7E1FCA0EB0900B04294
:1053D0000DD866B135E0406925EA00000004000CF4
:1053E00001D00020EAE70120E8E70120E6E7B8F174
:1053F000010F19D02068806925EA00000004000C24
:105400001DD00020B8421CD100202063202184F848
:105410003D1084F83E00216C41F02001216484F8A5
:105420003C000120BDE8F0872068406925EA0000C3
:105430000004000C01D00020E4E70120E2E7012095
:10544000E0E7B8F1010F0CD02068806925EA000080
:105450000004000C10D00020B842B1D00020BDE8FC
:10546000F0872068406925EA00000004000C01D0A4
:105470000020F1E70120EFE70120EDE72DE9F047FB
:1054800004460D4616469846C5F307472068012F87
:1054900026D0806925EA00000004000C59D04FF0A6
:1054A00000094FF0200A2068406910F4806F1ED078
:1054B0002068016841F40071016021686FF4806028
:1054C0004861C4F8309084F83DA084F83E90206C88
:1054D00040F00400206484F83C900120BDE8F0878F
:1054E000406925EA00000004000C32D0D7E7B6F18D
:1054F000FF3F25D0FDF74AFCA0EB0800B04200D8E2
:10550000F6B9012F15D02068806925EA0000000453
:10551000000C15D0C4F8309084F83DA084F83E907B
:10552000206C40F02000206484F83C900120BDE80D
:10553000F0872068406925EA00000004000CE9D1EA
:10554000012F09D02068806925EA00000004000CC2
:10555000A9D10020BDE8F0872068406925EA000055
:105560000004000C9FD1F4E72DE9F04104460D46FC
:1055700016462068406910F0400F27D100274FF0F1
:1055800020082068406910F0100F0FD020686FF0DD
:1055900010014161276384F83D8084F83E70206CDF
:1055A000206484F83C700120BDE8F081FDF7EEFB3B
:1055B000801BA84200D825B92068406910F0400F30
:1055C00007D02068406910F0400FDAD00020BDE815
:1055D000F081276384F83D8084F83E70206C40F0B1
:1055E0002000206484F83C700120BDE8F08170B593
:1055F00004460D4616462068406910F0800F18D109
:105600002046FFF768FD08B1012070BDB5F1FF3FEE
:105610000AD0FDF7BBFB801BA84200D825B9206843
:10562000406910F0800F06D02068406910F0800FAC
:10563000E6D0002070BD00202063202184F83D10BA
:1056400084F83E00216C41F02001216484F83C0084
:10565000012070BD30B503460C461088154D00285A
:105660000DD105F10C0090ED000A85ED000A90EDDA
:10567000010A85ED010A90ED020A85ED020A0D4945
:105680000C48703907F076F995ED000A84ED000AB0
:1056900095ED010A84ED010A95ED020A84ED020AF6
:1056A000B7EE000A83ED000A83ED010A83ED020ADA
:1056B00030BD00001C1800200A4891ED000A80ED62
:1056C000000AD1ED010AC0ED010A91ED021A80ED48
:1056D000021A0C3880ED000AC0ED010A80ED021AB2
:1056E00070470000281800200EB5072007F062FC64
:1056F00002E0642007F05EFCFBF7CEFB0028F8D147
:1057000002E0642007F056FC07F032FB0028F8D1D5
:105710007E4A101DCDE90102A2F11005291DFBF7FB
:10572000D3FB2B46A3F1340205F1480AA2F10C0188
:10573000A1F10C00CDF800A007F042F9DFED740AEA
:105740009FED740A744A002105F1640000F0BAFD6F
:10575000A5F13402A2F10C0101F11800FBF708F9E0
:10576000A5F14008A5F1580698ED000AA5F16407D7
:1057700086ED000AA5F1700987ED000A89ED000A9F
:1057800098ED010A86ED010A87ED010A89ED010A0B
:1057900098ED020A86ED020A87ED020A89ED020AF7
:1057A000002007F043FC09F09BFD5C4C20615C4944
:1057B0001020C8610846FEF78DFB08B1FCF792F88F
:1057C000564908222031A1F1080002F07BFB01209C
:1057D00020714FF0FF3B5946012008F049FE012897
:1057E000F9D12078000708D5207820F00800207033
:1057F0004A4801992130FBF71FFB607840070AD522
:10580000607820F004006070404A291D1032A2F137
:105810002A00FBF7C7FAA07840070CD5A07820F043
:105820000400A0703D4802991630FBF729FC95ED65
:10583000040A07F0D3F9354BCDF800A0103BA3F1D3
:105840003402A2F10C01A1F10C0007F0B9F897EDB8
:10585000000A89ED000AD6ED000AC7ED000A9FEDA7
:10586000311ADFED311A9FED312A60EE810A40EEE8
:10587000210A98ED000A40EE020AC6ED000A97EDF3
:10588000010A89ED010AD6ED010AC7ED010A60EEB1
:10589000810A40EE210A98ED010A40EE020AC6EDA7
:1058A000010A97ED020A89ED020AD6ED020AC7ED58
:1058B000020A60EE810A40EE210A98ED020A40EEEB
:1058C000020AC6ED020A114B9FED190A443BA3F1EF
:1058D000240202F10C0101F12400FBF7A3F90B4BA8
:1058E000203B1A1F111FA1F1100006F0C5FDE07842
:1058F00010F00100E0703FF46EAFE07820F001009E
:10590000E070E07840F00200E07064E708180020E2
:105910000080894500A08C456C100108E000002043
:10592000A40A00205AF8F63F5D896EBFD5A9183B3E
:105930006F12833A10B58EB000240A940B940C9425
:105940000D94089409941C2101A8FAF7DEFE17486B
:1059500015490160A721416084604FF6FF71C16065
:105960000461846102F06EFC4FF480500A900AA931
:105970000E48FEF7E7FD0D48FFF71BF80894099461
:1059800008A90A48FEF7C2FC602001900294039423
:105990000594082201A90548FEF79FFF034802F07D
:1059A00015FD0EB010BD0000000800402C250020A1
:1059B00010B50F480D49016003214160002181604D
:1059C000C1604FF4102202614FF40012426101766F
:1059D00041768176C17601774177FCF7C1FB0028DB
:1059E00003D0BDE81040FBF77DBF10BD0064004050
:1059F000E009002010B50F480D4901600321416006
:105A000000218160C1604FF4102202614FF4001246
:105A10004261017641768176C17601774177FCF764
:105A20009FFB002803D0BDE81040FBF75BBF10BD13
:105A300000680040080A002008B52148016841F4C8
:105A400080010160016801F480010091016841F466
:105A500000110160006800F4001000900022052190
:105A60000C20FDF74BFD0C20FDF73AFD002205212F
:105A70003920FDF743FD3920FDF732FD00220521D5
:105A80003A20FDF73BFD3A20FDF72AFD00220521D3
:105A90003B20FDF733FD3B20FDF722FD00220521D1
:105AA0004520FDF72BFD4520FDF71AFD00220521BD
:105AB0004620FDF723FDBDE808404620FDF710BD58
:105AC0003038024010B5D4B01C2242494DA8FAF734
:105AD000C0FD00214DA807F07AFA3F4C60621C22FD
